:020000040800F2
:10000000D00A0020010100089D27000829230008CC
:1000100099270008C90200083D4D000800000000B3
:100020000000000000000000000000004D28000853
:100030006903000800000000D9270008B52800085F
:100040001B0100081B0100081B0100081B01000820
:100050001B0100081B0100081B0100081B01000810
:100060001B0100081B0100086D030008CD020008F9
:10007000DD020008ED020008FD0200080D03000883
:100080001D0300082D0300081B0100081B010008C8
:100090001B0100081B0100081B0100088103000868
:1000A0001B0100081B0100081B0100081B010008C0
:1000B0001B0100081B0100081B0100081B010008B0
:1000C0001B0100081B0100081B0100081B010008A0
:1000D0001B010008A5460008E54600082547000862
:1000E0001B0100081B0100081B010008DFF80CD0F1
:1000F00000F02EF80048004705520008D00A002002
:100100000648804706480047FEE7FEE7FEE7FEE7B1
:10011000FEE7FEE7FEE7FEE7FEE7FEE76D290008E3
:10012000ED00000830B50B460146002020220124D6
:1001300009E021FA02F59D4205D303FA02F5491BB5
:1001400004FA02F52844151EA2F10102F1DC30BDCB
:10015000064C074D06E0E06840F0010394E8070014
:1001600098471034AC42F6D3FFF7C4FFD85B0008C1
:10017000F85B000870B5044600252068806800F030
:100180000100F0B12068806820F0010021688860DB
:1001900000F06AFF05460EE000F066FF401B0228F3
:1001A00009D9A06A40F01000A062E06A40F00100A6
:1001B000E062012070BD2068806800F00100002826
:1001C000EAD10020F6E770B505466C6AA06A00F037
:1001D0005000E0B9A06A40F40070A0622068806816
:1001E00000F46020B0F5602F0DD1E06858B9A06A26
:1001F00020F48070A062A06A00F4805018B9A06A50
:1002000040F00100A062204600F0F6F903E0206A09
:10021000016B2846884770BD70B505466C6AA06AB8
:1002200040F04000A062E06A40F00400E062204636
:1002300000F0E4F970BD70B50446656A284600F028
:10024000DCF970BD38B50446002500200090206818
:10025000806800F0010080BB2068806840F00100E9
:1002600021688860164800681649B0FBF1F00090DC
:1002700002E00098401E009000980028F9D100F09C
:10028000F3FE054613E000F0EFFE401B02280ED9F6
:10029000A06A40F01000A062E06A40F00100E06255
:1002A00000BF002084F8240000BF012038BD206872
:1002B000806800F001000028E5D00020F6E700008B
:1002C0000000002040420F0000BFFEE710B50248CA
:1002D00000F0C6FB10BD00003004002010B502483D
:1002E00000F0BEFB10BD00008806002010B50248DB
:1002F00000F0B6FB10BD00004406002010B5024817
:1003000000F0AEFB10BD00007805002010B50248DB
:1003100000F0A6FB10BD00003405002010B5024817
:1003200000F09EFB10BD0000BC05002010B5024887
:1003300000F096FB10BD00000006002030B590F8DC
:1003400040500124AC40C56B6C6004686360446835
:10035000102C04D10468A2600468E16003E0046822
:10036000A1600468E26030BD7047000010B5102045
:1003700000F0CCFC01200149087010BD29000020CC
:1003800010B5202000F0C2FC01200149487010BDCA
:1003900029000020F8B5044600260020009000BF88
:1003A00094F82400012801D10220F8BD012084F82E
:1003B000240000BF2046FFF7DDFE0646002E62D176
:1003C000A06A20F4885040F00200A062022000F0F1
:1003D0005BFF30490968B1FBF0F04000009002E09B
:1003E0000098401E009000980028F9D12046FFF7A1
:1003F00029FF2068806840F008002168886000F0CC
:1004000033FE054611E000F02FFE401B0A280CD9F0
:10041000A06A20F0020040F01000A06200BF00209F
:1004200084F8240000BF0120BFE72068806800F046
:1004300008000028E7D12068806840F004002168A7
:10044000886000F011FE054611E000F00DFE401B33
:100450000A280CD9A06A20F0020040F01000A06227
:1004600000BF002084F8240000BF01209DE7206821
:10047000806800F004000028E7D1A06A20F00200A4
:1004800040F00100A06200BF002084F8240000BFFB
:1004900030468AE70000002038B5024600230020DD
:1004A000009000BF92F82400012801D1022038BD3D
:1004B000012082F8240000BF4868072812D2106883
:1004C000406B0C79641E04EB84051F24AC40A043F0
:1004D0000D796D1E05EB85050C68AC402043146852
:1004E000606327E048680D2812D21068006B0C7911
:1004F000E41F04EB84051F24AC40A0430D79ED1FDD
:1005000005EB85050C68AC4020431468206311E0BE
:100510001068C06A0C790D3C04EB84051F24AC40C4
:10052000A0430D790D3D05EB85050C68AC402043DB
:100530001468E06208680A2812D31068C0680C7852
:100540000A3C04EB44050724AC40A0430D780A3D67
:1005500005EB45058C68AC4020431468E0600FE073
:10056000106800690C7804EB44050724AC40A043F4
:100570000D7805EB45058C68AC402043146820617C
:100580000868102802D00868112827D1174C106875
:10059000A0421ED11068806800F40000F0B9106815
:1005A000806840F400001468A0600868102815D125
:1005B0000F4800680F4CB0FBF4F000EB80004000E7
:1005C000009002E00098401E009000980028F9D1A9
:1005D00004E0906A40F020009062012300BF0020F8
:1005E00082F8240000BF184661E7000000240140A3
:1005F0000000002040420F00704770477047000025
:100600002DE9F0410446002700250026A84614B92C
:100610000120BDE8F081A06810B1606900B100BFA1
:10062000A06A30B90020E06284F82400204600F07F
:1006300089F82046FFF79EFD0746A06A00F01000EB
:10064000002873D1002F71D1A06A20F4885040F0A7
:100650000200A062E16960680843E16840EA410085
:100660000643A068B0F5807F02D0A068012802D1BF
:100670004FF4807000E0002005436069012811D12B
:10068000E06838B9A069401E4FF4006141EA40308B
:10069000054307E0A06A40F02000A062E06A40F055
:1006A0000100E0622068406820F469402843216826
:1006B000486020688068214908403043216888608C
:1006C000A068B0F5807F02D0A068012802D14FF465
:1006D000807000E00020B0F5807F03D1208A401EAA
:1006E0004FEA00582068C06A20F4700040EA080011
:1006F0002168C8622068806811490840B04208D16A
:100700000020E062A06A20F0020040F00100A06238
:1007100011E0A06A20F0020040F01000A062E06A40
:1007200040F00100E062012705E0FFE7A06A40F029
:100730001000A062012738466BE70000FDF7E1FFDB
:10074000FE0E1FFF10B586B004462049206888427F
:100750003AD100BF1E48806940F400701C4988618E
:100760000846806900F40070019000BF00BFF320CC
:1007700002900320039002A9164800F0D5FA032046
:100780000290039002A9144800F0CEFA13481449CD
:100790000860002048600021114881608021C1600C
:1007A0008900016189004161202181610021C161CD
:1007B00000F024FA18B1BE210AA004F0C1FA00BF6B
:1007C00007482062446200BF06B010BD002401400B
:1007D0000010024000080140000C014008000240E7
:1007E000300400202E2E2F5372632F6164632E631A
:1007F000000000002DE9F04104460D461646002792
:1008000057492068884203D056492068884205D15C
:100810005348001D006800F4702000E0002000280C
:100820007ED100BF94F82400012802D10220BDE847
:10083000F081012084F8240000BF2046FFF702FD6C
:100840000746002F6DD1A06A40F60161884340F44D
:100850008070A06243492068884209D14048001D49
:10086000006800F4702008B9012002E0002000E0D8
:10087000012078B1A06A20F48010A062206840684E
:1008800000F4806000B3A06A20F4005040F480506F
:10089000A06219E0A06A40F48010A062304920688C
:1008A000884203D02F492068884205D12C48001D7A
:1008B000006800F4806000E0002028B1A06A20F405
:1008C000005040F48050A062A06A00F4805020B133
:1008D000E06A20F00600E06201E00020E06200BF74
:1008E000002084F8240000BF1F48216A88621F4846
:1008F000216AC8621E48216A08636FF002002168FD
:1009000008602068806840F48070216888602268F0
:1009100002F14C0133462A46206A00F0A7F901E0B3
:100920001AE014E02068806800F46020B0F5602FC1
:1009300006D12068806840F4A000216888600CE03F
:100940002068806840F480102168886005E000BF5E
:10095000002084F8240000E00127384667E7000003
:100960000024014000280140C701000837020008A8
:1009700019020008014600200A68126822F00E02DF
:100980000B681A600A68126822F001020B681A608C
:1009900091F8403001229A40CB6B5A60012281F8D5
:1009A000212000BF002281F8202000BF70470000F6
:1009B00070B50446002594F82100022803D00420D5
:1009C000A063012548E02068006820F00E0021683F
:1009D00008602068006820F00100216808601F4955
:1009E0002068884201D1012026E01C49143120688A
:1009F000884201D110201FE0184928312068884220
:100A000001D1801518E015493C312068884201D198
:100A1000801411E0114950312068884202D14FF40E
:100A2000803009E00D4964312068884202D14FF4DA
:100A3000801001E04FF080700849083948600120BB
:100A400084F8210000BF002084F8200000BF606B04
:100A500010B12046616B8847284670BD08000240EF
:100A600070B50446E06B05682068066894F840108D
:100A7000042088402840002846D006F004000028C2
:100A800042D02068006800F0200028B92068006883
:100A900020F004002168086057492068884201D18D
:100AA000042027E0544914312068884201D14020B5
:100AB00020E0514928312068884201D1001519E011
:100AC0004D493C312068884202D14FF4804011E00A
:100AD000494950312068884202D14FF4802009E012
:100AE000454964312068884202D14FF4800001E01A
:100AF0004FF08060404908394860E06A00287AD0A9
:100B00002046E16A884776E094F840100220884049
:100B10002840A0B306F0020088B32068006800F007
:100B2000200040B92068006820F00A0021680860B1
:100B3000012084F8210030492068884201D1022038
:100B400028E02D4914312068884201D1202021E07D
:100B5000294928312068884201D140151AE02649E8
:100B60003C312068884202D14FF4005012E0224903
:100B700050312068884203D14FF400300AE017E07A
:100B80001D4964312068884202D14FF4001001E011
:100B90004FF0007018490839486000BF002084F801
:100BA000200000BFA06A30B32046A16A884722E037
:100BB00094F84010082088402840E0B106F0080072
:100BC000C8B12068006820F00E002168086094F821
:100BD000401001208840E16B48600120A06384F848
:100BE000210000BF002084F8200000BF206B10B15E
:100BF0002046216B884770BD080002400146002254
:100C000009B901207047184B0868C01A1423B0FBBB
:100C1000F3F08000086414480838C863022081F8A3
:100C200021000868026843F6F0708243D1E90103AD
:100C30001843CB6818430B6918434B6918438B69F9
:100C40001843CB6918430243086802600020886299
:100C5000C862086348638863012081F8210000208E
:100C600081F8200000BFCDE7080002402DE9F041E7
:100C700004460D4616461F464FF0000800BF94F884
:100C80002000012802D10220BDE8F081012084F873
:100C9000200000BF94F8210001282CD1022084F804
:100CA00021000020A0632068006820F00100216876
:100CB00008603B46324629462046FFF73FFBE06A84
:100CC00030B12068006840F00E00216808600BE039
:100CD0002068006820F0040021680860206800682F
:100CE00040F00A00216808602068006840F00100B8
:100CF0002168086006E000BF002084F8200000BFE3
:100D00004FF002084046BFE77047000010B50446A8
:100D100004480068204020B1024804602046FFF7E4
:100D2000F3FF10BD140401402DE9F84703460024E9
:100D3000002000258446002700226EE14FF00108C4
:100D400008FA02F4D1F8008008EA0400A0427DD13C
:100D5000DFF8D0A2D1F80480A8EB0A09D0453AD038
:100D600014DCB8F1030F50D009DCB8F1000F31D01A
:100D7000B8F1010F1CD0B8F1020F49D120E0B8F151
:100D8000110F18D0B8F1120F42D11EE0B9F5881F2B
:100D900025D006DCB9F5803F20D0B9F5801F37D1CA
:100DA0001AE0B9F5001F18D0B9F5041F30D117E0CB
:100DB000D1F80CC02DE0D1F80C8008F1040C28E02B
:100DC000D1F80C8008F1080C23E0D1F80C8008F170
:100DD0000C0C1EE000BF00BF00BF00BF00BF00BF83
:100DE000D1F80880B8F1000F02D14FF0040C0BE0ED
:100DF000D1F80880B8F1010F03D14FF0080C1C6145
:100E000002E04FF0080C5C6103E04FF0000C00E0E2
:100E100000BF00BFFF2801D8984601E003F1040895
:100E20004646FF2802D84FEA820803E0A2F10808EC
:100E30004FEA88084746D6F800804FF00F0909FAB4
:100E400007F928EA09080CFA07F900E088E048EAFF
:100E50000908C6F80080D1F8048008F08058B8F17D
:100E6000805F7DD100BFDFF8C081D8F8188048F0DE
:100E70000108DFF8B491C9F81880C846D8F818807E
:100E800008F00108CDF8008000BF00BF4FEAB93874
:100E90004FEA920958F829504FEA82784FEA1879B8
:100EA0004FF00F0808FA09F825EA0805DFF87C81F9
:100EB000434502D14FF0000816E0DFF87481434546
:100EC00002D14FF001080FE0DFF86881434502D1FD
:100ED0004FF0020808E0DFF86081434502D14FF08F
:100EE000030801E04FF004084FEA82794FEA1979CC
:100EF00008FA09F848EA0505DFF840814FEA920947
:100F000048F82950D1F8048008F48038B8F5803FBB
:100F10000AD1DFF82C81D8F8008048EA0008DFF811
:100F20002091C9F8008009E0DFF81481D8F800802A
:100F300028EA0008DFF80891C9F80080D1F8048099
:100F400008F40038B8F5003F10D1DFF8F48008F15C
:100F50000408D8F8008048EA0008DFF8E49000E0D0
:100F60005AE009F10409C9F800800DE0DFF8D080EB
:100F700008F10408D8F8008028EA0008DFF8C090DB
:100F800009F10409C9F80080D1F8048008F4801838
:100F9000B8F5801F0ED1DFF8A88008F10808D8F84E
:100FA000008048EA0008DFF8989009F10809C9F8BC
:100FB00000800DE0DFF8888008F10808D8F800808C
:100FC00028EA0008DFF8789009F10809C9F80080DC
:100FD000D1F8048008F40018B8F5001F0ED1DFF82E
:100FE000608008F10C08D8F8008048EA0008DFF8B3
:100FF000509009F10C09C9F800800DE0DFF840803D
:1010000008F10C08D8F8008028EA0008DFF83090D2
:1010100009F10C09C9F80080521C102AFFF48EAEA9
:10102000BDE8F887000011100010024000080140E0
:10103000000C014000100140001401400800014074
:1010400000040140024693680B400BB1012000E010
:1010500000207047C2684A40C26070470AB101610F
:1010600001E00B040361704701480068704700000D
:101070009800002070B504460CB9012070BD4CF6F4
:10108000CC402168086045F2555021680860D4E9D9
:10109000001048602168A0688860FFF7E5FF0546FA
:1010A00006E0FFF7E1FF401B302801D90320E5E708
:1010B0002068C0680028F4D14AF6AA202168086098
:1010C0000020DBE701464AF6AA200A6810600020EB
:1010D0007047000002480068401C014908607047E2
:1010E0009800002010B50848006840F0100006493C
:1010F0000860032000F0B4F8002000F007F800F0CA
:1011000019F8002010BD00000020024070B5044610
:10111000074800684FF47A71B0FBF1F5284600F0FB
:1011200054FD00222146501E00F05BF8002070BDE7
:101130000000002008B500BF2148806940F0010090
:101140001F4988610846806900F00100009000BFD7
:1011500000BF032000F084F8002211466FF00B005E
:1011600000F03FF8002211466FF00A0000F039F855
:10117000002211466FF0090000F033F800221146FA
:10118000501F00F02EF800221146101F00F029F821
:1011900000221146901E00F024F800221146501E35
:1011A00000F01FF800BF0748406820F0E0600549E4
:1011B00048600846406840F00070486000BF08BDC5
:1011C000001002400000014000BF00F01F0201219A
:1011D00091404209920002F1E022C2F8001100BFE2
:1011E00070472DE9F05F80460D461646002701F056
:1011F000D7FA074639462A46334601F00700C0F1C0
:10120000070ABAF1040F02D94FF0040A01E0C0F155
:10121000070AD14600F1040ABAF1070F02D24FF0D3
:10122000000A01E0A0F1030AD4464FF0010A0AFACD
:1012300009FAAAF1010A0AEA020A0AFA0CFA4FF0BC
:10124000010B0BFA0CFBABF1010B0BEA030B4AEAA7
:101250000B042146404601F0ABFABDE8F09F0000C8
:1012600000BF00F00702064B19684FF6FF03194054
:10127000044B0B4343EA0221014B196000BF704746
:101280000CED00E00000FA052DE9F04385B00646BC
:101290003DA30FCB01AC0FC43FA0006800904FF0FE
:1012A0000008002500270024A146012E30D0022E80
:1012B00058D0102E61D139484468006800F0807021
:1012C00000B301A8C4F38341475C04F4803070B1DB
:1012D00032484068C0F340401DF8008004F480307C
:1012E00040B12F48B0FBF8F000FB07F502E02D48B5
:1012F00007FB00F52948406800F48000B0F5800F36
:1013000001D1A94603E068000321B0FBF1F935E003
:101310002248046A04F44070B0F5807F05D104F0DF
:10132000020010B14FF400491BE004F44070B0F526
:10133000007F07D11948406A00F0020010B149F659
:1013400040490EE004F44070B0F5407F07D11348E7
:10135000006800F4003010B14FF2244901E04FF072
:1013600000090BE000F0A0F90C494968C1F3813194
:10137000491C4900B0FBF1F900E000BF00BF48463E
:1013800005B0BDE8F0830000020304050607080964
:101390000A0B0C0D0E0F101001020000001002408D
:1013A00000127A0000093D00F8B504460026002529
:1013B000207800F0010000286BD000274348C06966
:1013C00000F0805070B900BF4048C06940F08050C4
:1013D0003E49C8610846C06900F08050009000BFD7
:1013E00000BF01273A48006800F48070B0B938485F
:1013F000006840F4807036490860FFF735FE064605
:1014000006E0FFF731FE801B642801D90320F8BDF8
:101410002F48006800F480700028F2D02B48006A42
:1014200000F440752DB3A08800F44070A84220D08D
:101430002648006A20F440750120264908600020F3
:1014400008602248056205F0010090B1FFF70CFE2C
:10145000064608E0FFF708FE801B41F2883188420B
:1014600001D90320D3E71948006A00F002000028E0
:10147000F0D01648006A20F44070616808431349B0
:101480000862012F04D10846C06920F08050C8616D
:1014900000BF207800F00200022807D10B48406806
:1014A00020F44040A168084308494860207800F0D3
:1014B0001000102807D10548406820F48000E1683A
:1014C0000843024948600020A1E7000000100240E4
:1014D000007000404004424270B504460D460026AC
:1014E0006248006800F00700A8420ED25F4800681A
:1014F00020F0070028435D4908600846006800F0B6
:101500000700A84201D0012070BD207800F0020041
:10151000022807D15648406820F0F000A16808432F
:1015200053494860207800F0010000285DD06068D1
:10153000012806D14E48006800F4003090B901201F
:10154000E2E76068022806D14948006800F00070B0
:1015500040B90120D8E74648006800F0020008B909
:101560000120D1E74248406820F003006168084349
:101570003F494860FFF778FD06466068012810D1B2
:1015800008E0FFF771FD801B41F28831884201D9E4
:101590000320B9E73648406800F00C000428F0D179
:1015A00023E06068022810D108E0FFF75DFD801B92
:1015B00041F28831884201D90320A5E72C484068D0
:1015C00000F00C000828F0D10FE008E0FFF74CFD18
:1015D000801B41F28831884201D9032094E72448D6
:1015E000406800F00C000028F0D12048006800F0AE
:1015F0000700A8420ED91D48006820F007002843C4
:101600001A4908600846006800F00700A84201D0A7
:10161000012079E7207800F00400042807D114485D
:10162000406820F4E060E168084311494860207890
:1016300000F00800082808D10D48406820F46050E8
:10164000216940EAC1000A49486000F03DF80849B4
:101650004968C1F30311074A515CC8400649086054
:101660000020FFF753FD00204EE70000002002405D
:101670000010024050590008000000200148006896
:10168000704700000000002000B5FFF7F7FF044995
:101690004968C1F30221034A515CC84000BD000003
:1016A000001002406059000800B5FFF7E7FF044949
:1016B0004968C1F3C221034A515CC84000BD000023
:1016C0000010024060590008F0B585B00FF2700CB0
:1016D0009CE8E01001A8A0E8E0101DA52D68009589
:1016E000002100240022002300201A4D696801F027
:1016F0000C05FDB1042D02D0082D1AD101E01648C9
:101700001AE001ADC1F38346AB5D01F480355DB1F4
:10171000104D6D68C5F340451DF805400E4DB5FBF5
:10172000F4F505FB03F202E00C4D03FB05F2104655
:1017300002E000BF084800BF00BF05B0F0BD0000D8
:1017400002030405060708090A0B0C0D0E0F101002
:10175000010200000010024000127A0000093D0062
:10176000F8B504460025207800F00100002878D064
:10177000F848406800F00C0004280CD0F548406898
:1017800000F00C00082811D1F248406800F48030C5
:10179000B0F5803F0AD1EF48006800F4003000281F
:1017A0005FD0606800285CD10120F8BD00BF606890
:1017B000B0F5803F06D1E748006840F48030E54945
:1017C000086028E0606858B9E248006820F480307A
:1017D000E04908600846006820F4802008601AE0AC
:1017E0006068B0F5A02F0BD1DA48006840F4802083
:1017F000D84908600846006840F4803008600AE074
:10180000D448006820F48030D24908600846006857
:1018100020F48020086000BF606888B1FFF724FCD6
:10182000054606E0FFF720FC401B642801D9032091
:10183000BBE7C848006800F400300028F2D010E090
:10184000FFF712FC054606E0FFF70EFC401B64287C
:1018500001D90320A9E7BF48006800F40030002840
:10186000F2D1207800F00200022857D1B948406830
:1018700000F00C0050B1B748406800F00C00082898
:1018800018D1B448406800F4803098B9B148006875
:1018900000F0020020B12069012801D0012084E776
:1018A000AC48006820F0F800616940EAC100A9492D
:1018B000086033E02069E8B10120A7490860FFF71C
:1018C000D3FB054606E0FFF7CFFB401B022801D9FA
:1018D00003206AE79F48006800F002000028F2D069
:1018E0009C48006820F0F800616940EAC10099490D
:1018F000086013E0002098490860FFF7B5FB054633
:1019000006E0FFF7B1FB401B022801D903204CE79A
:101910009048006800F002000028F2D1207800F022
:10192000080008282DD1A069B8B101208B490860B2
:10193000FFF79AFB054606E0FFF796FB401B0228DF
:1019400001D9032031E78348406A00F002000028F3
:10195000F2D0012000F042FF13E000207F49086030
:10196000FFF782FB054606E0FFF77EFB401B0228DF
:1019700001D9032019E77748406A00F002000028E7
:10198000F2D1207800F00400042873D100267148B9
:10199000C06900F0805070B900BF6E48C06940F067
:1019A00080506C49C8610846C06900F080500090C2
:1019B00000BF00BF01266A48006800F48070B0B91B
:1019C0006748006840F4807065490860FFF74CFB89
:1019D000054606E0FFF748FB401B642801D90320B9
:1019E000E3E65F48006800F480700028F2D000BF92
:1019F000E068012806D15748006A40F001005549C7
:101A0000086227E0E06858B95248006A20F00100F7
:101A1000504908620846006A20F00400086219E094
:101A2000E06805280BD14B48006A40F004004949A2
:101A300008620846006A40F0010008620AE0454872
:101A4000006A20F00100434908620846006A20F05D
:101A50000400086200BFE068A0B1FFF705FB05467F
:101A600009E0FFF701FB401B41F28831884202D9AF
:101A700003209AE622E03748006A00F002000028BE
:101A8000EFD012E0FFF7F0FA054608E0FFF7ECFAB6
:101A9000401B41F28831884201D9032085E62D4858
:101AA000006A00F002000028F0D1012E05D129487B
:101AB000C06920F080502749C86100BFE069C8B301
:101AC0002448406800F00C00082860D0E069022833
:101AD00048D1002020490866FFF7C6FA054606E00F
:101AE000FFF7C2FA401B022801D903205DE619481E
:101AF000006800F000700028F2D1206AB0F5803F45
:101B000007D11448406820F40030A1680843114907
:101B10004860D4E9080108430E49496821F474116A
:101B200008430C49486001200B490866FFF79CFAFE
:101B3000054607E02DE0FFF797FA401B022801D980
:101B4000032032E60348006800F000700028F2D05D
:101B50001FE00000001002400000424280044242A8
:101B60000070004000200C490866FFF77DFA05462A
:101B700006E0FFF779FA401B022801D9032014E69A
:101B80000648006800F000700028F2D101E0012052
:101B90000BE6002009E6000000004242001002406F
:101BA000042808D14FF0E021096941F004014FF009
:101BB000E022116107E04FF0E021096921F0040102
:101BC0004FF0E02211617047704770B5044625461A
:101BD000681EB0F1807F01D301200FE0681E4FF036
:101BE000E02148610F214FF0FF3000F0E1FD0020BF
:101BF0004FF0E021886107200861002070BD10B51A
:101C0000FFF7E2FF10BD70B504460025206840696B
:101C1000C0F3C01594F8390021280ED16DB12068A9
:101C2000406920F0800021684861206B10B1206B72
:101C3000FEF7A0FE204602F089FB20684069C0F351
:101C4000801594F83A0022280ED16DB120684069C1
:101C500020F0400021684861606B10B1606BFEF7B6
:101C600089FE204602F052FB002070BD7047000044
:101C70002DE9F0470446206805682068C66820689A
:101C800047694FF00008C14605F00F08B8F1000F92
:101C90000AD105F0200038B106F0200020B120461E
:101CA00002F05EFBBDE8F087B8F1000F6DD007F0E1
:101CB000010018B906F49070002866D005F0010004
:101CC00030B106F4807018B1E06B40F00100E063C1
:101CD00005F0040030B107F0010018B1E06B40F0EE
:101CE0000200E06305F0020030B107F0010018B116
:101CF000E06B40F00400E06305F0080030B107F04D
:101D0000010018B1E06B40F00800E063E06B68B3DD
:101D100005F0200028B106F0200010B1204602F0A6
:101D20001FFB20684069C0F38019E06B00F00800D9
:101D300010B9B9F1000F22D0204602F0E7FA20686E
:101D4000406900F04000B0B12068406920F04000D8
:101D500021684861606B50B11748616B4863606BE4
:101D6000FEF726FE10B1606B416B88470CE0204601
:101D7000FFF77CFF08E02046FFF778FF04E02046ED
:101D8000FFF774FF0020E0638CE705F0800030B1BE
:101D900006F0800018B1204602F01AFC82E705F038
:101DA000400030B106F0400018B1204602F0BEFA03
:101DB00078E700BF76E700001142000810B504463E
:101DC0000CB9012010BDA06900B100E000BF94F87B
:101DD000390028B9002084F83800204600F028F89F
:101DE000242084F839002068C06820F4005021685D
:101DF000C860204602F008FB2068006920F490408B
:101E0000216808612068406920F02A002168486143
:101E10002068C06840F400502168C8600020E0637A
:101E2000202084F8390084F83A000020CAE7000036
:101E300010B586B004469B492068884261D100BF36
:101E40009948806940F480409749886108468069D4
:101E500000F48040019000BF00BF481502900220AE
:101E600003900320059002A99048FEF75DFF4FF410
:101E70008060029000200390049002A98B48FEF736
:101E800053FF8B488B490860002048600021894837
:101E900081608021C1600021016141618161C16176
:101EA000FEF7ACFE18B19C2183A002F049FF00BFF1
:101EB00080486063446200BF7D48143882490860EE
:101EC000102048600021804881608021C16000218D
:101ED000016141618161C161FEF790FE18B1AC21E1
:101EE00075A002F02DFF00BF77482063446200BF59
:101EF000002211462520FFF774F92520FFF764F929
:101F0000CDE072492068884261D100BF6648C0694F
:101F100040F400306449C8610846C06900F40030EC
:101F2000019000BF00BF0420029002200390032014
:101F3000059002A95D48FEF7F7FE082002900020F8
:101F40000390049002A95948FEF7EEFE5848143059
:101F50005F4908600020486000215D488160802161
:101F6000C1600021016141618161C161FEF746FEEE
:101F700018B1DA2150A002F0E3FE00BF54486063BC
:101F8000446200BF4A482830524908601020486027
:101F90000021504881608021C160002101614161C0
:101FA0008161C161FEF72AFE18B1EA2142A002F068
:101FB000C7FE00BF47482063446200BF00221146AD
:101FC0002620FFF70EF92620FFF7FEF867E04249CA
:101FD0002068884263D100BF3348C06940F4802044
:101FE0003149C8610846C06900F48020019000BFF3
:101FF00000BF08150290022003900320059002A95B
:102000003648FEF791FE4FF40060029000200390E6
:10201000049002A93148FEF787FE25482838304948
:1020200008600020486000212D4881608021C16047
:102030000021016141618161C161FEF7DFFD20B1D5
:102040004FF48C711CA002F07BFE00BF244860633B
:10205000446200BF16483C3822490860102048609E
:102060000021204881608021C1600021016141611F
:102070008161C161FEF7C2FD20B14FF494710EA0E1
:1020800002F05EFE00BF17482063446200BF0022DA
:1020900011462720FFF7A5F82720FFF795F806B08F
:1020A00010BD00000038014000100240000801404F
:1020B00058000240340500202E2E2F5372632F75D6
:1020C000736172742E6300007805002000440040A4
:1020D000BC0500200006002000480040000C014024
:1020E000440600208806002077B581B004461546D6
:1020F00094F83A00202850D1029800B115B9012077
:1021000004B070BD00BF94F83800012801D102204E
:10211000F6E7012084F8380000BF0298A062A58588
:102120000020E063222084F83A001D48616B886239
:102130001C48616BC8621C48616B08630020616BBE
:10214000486302AE32682368191D2B46606BFEF7A8
:102150008DFD00BF0020009020680068009020687E
:102160004068009000BF00BF00BF002084F8380026
:1021700000BF2068C06840F480702168C860206893
:10218000406940F00100216848612068406940F0E2
:102190004000216848610020B2E70220B0E700005B
:1021A00075420008BB42000825420008704770478E
:1021B0002DE9F84304460D4616461F464FF0000928
:1021C00094F8390020285CD105B116B90120BDE88A
:1021D000F88300BF94F83800012801D10220F6E707
:1021E000012084F8380000BF0020E063212084F83B
:1021F0003900FEF739FF8146A684E6842BE0E08CA7
:10220000401EE084A068B0F5805F16D14B460022E6
:1022100080212046009702F00FFA08B10320D6E78C
:10222000A846B8F80000C0F308002168486020699B
:1022300008B9AD1C0FE06D1C0DE04B46002280215B
:102240002046009702F0F8F908B10320BFE715F81F
:10225000010B21684860E08C0028D0D14B46002259
:1022600040212046009702F0E7F908B10320AEE7CD
:10227000202084F8390000BF002084F8380000BF17
:10228000A5E70220A3E70000F7B50446154694F839
:10229000390020283DD1019800B10DB90120FEBDC3
:1022A00000BF94F83800012801D10220F7E701208F
:1022B00084F8380000BF01982062A584E5840020DE
:1022C000E063212084F839001348216B88621348A9
:1022D000216BC8621248216B08630020216B4863A0
:1022E00001AE23681A1D31682B46206BFEF7BEFC39
:1022F0006FF040002168086000BF002084F83800BB
:1023000000BF2068406940F08000216848610020DB
:10231000C5E70220C3E70000C9420008FF420008E9
:10232000254200087047704700BFFEE70EB54248DF
:10233000424908608115414881600121C160002146
:1023400041614FF46021C16100203C49486008218F
:102350003A480161FEF754F918B1452138A002F05E
:10236000EFFC002000900120019002906946334864
:10237000FEF792F818B14F2131A002F0E1FC0120E4
:1023800000900220019069462C48FEF785F818B1AC
:1023900058212BA002F0D4FC0420009003200190CF
:1023A00069462648FEF778F818B1612124A002F0AA
:1023B000C7FC052000900420019069461F48FEF7E5
:1023C0006BF818B16A211EA002F0BAFC062000903A
:1023D0000520019069461948FEF75EF818B173218F
:1023E00017A002F0ADFC072000900620019069467E
:1023F0001248FEF751F818B17C2111A002F0A0FCA0
:10240000082000900720019069460C48FEF744F828
:1024100018B185210AA002F093FC09200090082041
:10242000019069460548FEF737F818B18E2104A0DF
:1024300002F086FC0EBD00000024014000040020D4
:102440002E2E2F5372632F6164632E6300000000F1
:1024500008B500BF2248406940F0010020494861AA
:102460000846406900F00100009000BF00BF002254
:1024700011460B20FEF7B5FE0B20FEF7A5FE00224D
:1024800011460C20FEF7ADFE0C20FEF79DFE00224B
:1024900011460D20FEF7A5FE0D20FEF795FE002249
:1024A00011460E20FEF79DFE0E20FEF78DFE002247
:1024B00011460F20FEF795FE0F20FEF785FE002245
:1024C00011461020FEF78DFE1020FEF77DFE002243
:1024D00011461120FEF785FE1120FEF775FE08BD9E
:1024E0000010024000B585B000BF5C48806940F034
:1024F00010005A4988610846806900F01000009079
:1025000000BF00BF00BF0846806940F0200088611E
:102510000846806900F02000009000BF00BF00BFA7
:102520000846806940F0040088610846806900F030
:102530000400009000BF00BF00BF0846806940F063
:10254000080088610846806900F00800009000BF1C
:1025500000BF00224FF460414148FEF77FFD00229A
:1025600003214048FEF77AFD012211033E48FEF7A1
:1025700075FD00224FF400413B48FEF76FFD01223C
:102580004FF410613948FEF769FD00224FF4805185
:102590003648FEF763FD4FF4604001900120029041
:1025A0000220049001A92E48FEF7BEFB03200190F3
:1025B000012002900220049001A92A48FEF7B4FBF2
:1025C0004FF410400190012002900220049001A9D4
:1025D0002548FEF7A9FB46F2C800019000200290B2
:1025E0000220039001A92048FEF79EFB4FF4C8503B
:1025F0000190012002900220049001A91B48FEF7DF
:1026000093FB302001901A4802900220039001A908
:102610001548FEF789FB4FF44070019000200290AE
:102620000120039001A91048FEF77EFB1148406885
:1026300040F400400F494860002211460A20FEF78E
:10264000D0FD0A20FEF7C0FD002211461720FEF73C
:10265000C8FD1720FEF7B8FD05B000BD0010024010
:102660000010014000140140000C0140000801402E
:10267000000011100000014010B50848084908602A
:102680000220486040F6FF7105488160FEF7F2FCC9
:1026900018B13A2103A002F053FB10BD00300040F6
:1026A000F40300202E2E2F5372632F697764672E58
:1026B0006300000010B50C480C4908604FF4E1308D
:1026C0004860002109488160C16001610C214161BD
:1026D00000218161C161FFF771FB18B14B2104A09A
:1026E00002F02EFB10BD00000038014074040020F1
:1026F0002E2E2F5372632F75736172742E63000038
:1027000010B50C480C4908604FF461504860002136
:1027100009488160C16001610C2141610021816132
:10272000C161FFF74BFB18B15E2104A002F008FB6A
:1027300010BD000000440040B40400202E2E2F5392
:1027400072632F75736172742E63000010B50C48AC
:102750000C4908604FF4E13048600021094881606D
:10276000C16001610C21416100218161C161FFF7FC
:1027700025FB18B1712104A002F0E2FA10BD00009F
:1027800000480040F40400202E2E2F5372632F7552
:10279000736172742E63000000BFFEE77047000093
:1027A00002480068C0F30220704700000CED00E012
:1027B00010B5002807DA0A07140E054A00F00F03C7
:1027C0001B1FD45403E00A07130E024A135410BD12
:1027D00018ED00E000E400E07047000008B508498B
:1027E0000968C9084FF47A72B1FBF2F141430091D4
:1027F00000BF00BF00994A1E00920029F9D108BD10
:102800000000002010B500224FF460410B48FEF795
:1028100025FC002203210A48FEF720FC01221103B7
:102820000848FEF71BFC00224FF400410548FEF764
:1028300015FC00200449487010BD00000010014044
:1028400000140140000C01402D00002070470000E2
:102850002DE9F04104460D464120134908704B20F4
:1028600048700A2088700020C870201208714D71CD
:102870008C712812C871262008720C4800784872A2
:102880000027002605E00848805D3844C7B2701C68
:10289000C6B20A2EF7DB78420349C8700A22044800
:1028A000FFF7F2FCBDE8F081A90300202200002020
:1028B000B404002010B5FEF70DFCFFF7A0F902F0FC
:1028C000FDFF10BD10B594B00A200A9001200E90B3
:1028D00010200F90012010900220119000211291E1
:1028E0004FF4201113910AA8FEF73AFF18B1D42132
:1028F0001AA002F025FA0F20059002200690002071
:1029000007904FF48060089000200990012105A8ED
:10291000FEF7E2FD18B1E22110A002F011FA022048
:1029200001904003039001A8FEF73EFD18B1E92194
:102930000AA002F005FAFEF7A1FE4FF47A71B0FB8F
:10294000F1F42046FFF741F90420FFF729F90022AE
:102950001146501EFEF745FC14B010BD2E2E2F530D
:1029600072632F6D61696E2E63000000114800686C
:1029700040F001000F490860084640680E490840D1
:102980000C494860084600680C490840094908603D
:102990000846006820F4802008600846406820F45B
:1029A000FE0048604FF41F008860C80304490860B7
:1029B00070470000001002400000FFF8FFFFF6FE25
:1029C00008ED00E010B51048808840F6C22188422A
:1029D0000BDD0D48808840F60241884205DA05206B
:1029E0000A4948701420C87007E000200749487061
:1029F000042008701F20064988700348818805A0BC
:102A000002F0A0F910BD00007E0100202D00002082
:102A1000240000200A0D203138765F61643D2025B6
:102A20006400000010B51048C08840F29E718842D2
:102A30000BDD0D48C08840F63F01884205DA0620CC
:102A40000A4948701920C87007E0002007494870FB
:102A5000052008701F20064988700348C18805A01A
:102A600002F070F910BD00007E0100202D00002052
:102A7000240000200A0D20332E33765F61643D2050
:102A80002564000010B5FE4800780A287ED2DFE8F1
:102A900010F00A003100D8003C01C001C40232032A
:102AA0009F0319059A0542F22320F6490880002069
:102AB00048800A20F44908705620F449C870002262
:102AC0004FF40041F248FEF7C9FA01221146F148DD
:102AD000FEF7C4FAF0480088401CEF490880084619
:102AE0000088C82805DD0120E54908700020EA4972
:102AF000088091E2E9480078002873D10122E74B71
:102B00001A70E74B1A804FF48B72E64B1A80520012
:102B1000E54B1A8040F29E32E44B1A804FF4A262D9
:102B2000E34B1A8040F28362E24B1A800022E24BB0
:102B3000DA70DB4A1278002303EB0212DE4B5A7183
:102B4000D74A1288C2F30712DA71D64A12780123E3
:102B500003EB0212D84B5A72D24A1288C2F3071200
:102B6000DA72D14A1278022303EB0212D24B5A7363
:102B7000CD4A1288C2F30712DA73CC4A12780323C3
:102B800003EB0212CC4B5A74C84A00E0E4E312880B
:102B9000C2F30712DA74C64A1278042303EB021256
:102BA000C54B5A75C24A1288C2F30712DA75C14A78
:102BB0001278052303EB0212BF4B5A76BD4A1288E6
:102BC000C2F30712DA76002100BF05E0BA4A125CB0
:102BD0000A44D1B2421CD0B21C28F7DB4A42B64BA1
:102BE000DA7000BFAC480088401CAB49088008463A
:102BF0000088FA2804DD0122D103A548FEF72EFA49
:102C0000A5480088B0F5967F1ADD02209C4908701F
:102C10000020A149088042F223209A49088040F60A
:102C2000B830488001209E49088000209D490880D6
:102C30009D4908809D4908809D4908809D490880DC
:102C400057E742F223208F49088040F6B830488089
:102C500091480088401C9049088008460088B0F5DB
:102C6000617F51DD954890F8620000F0A0000028D7
:102C700037D19348C08A502833DD904890F86700D8
:102C8000904908808D4890F866008C4991F867104B
:102C900000EB01208B4908800846008864214843E6
:102CA000362190FBF1F0884908808548C08A874921
:102CB00008808548018886A002F044F8834801888E
:102CC00088A002F03FF803206D4908700020724987
:102CD000088042F223206B49088041F6C8104880E2
:102CE00012E086A002F02EF80020684948701220F9
:102CF0000870002062490870674908801F208849D1
:102D00008870012060490870F3E642F223205D4993
:102D1000088041F6C81048805F480088401C5E4922
:102D2000088008460088B0F5167F71DD634890F88A
:102D3000620000F0A000002857D16148C08A9628A0
:102D400053DD5E4890F867005E4908805B4890F864
:102D500066005A4991F8671000EB01205949088034
:102D60000846008864214843362190FBF1F06D4904
:102D700008805348C08A6C49088008460088963805
:102D800068490988504A1288891A4843664909885F
:102D90004E4A1288891A90FBF1F062490988081A94
:102DA000404908805F4800884FF496714843444981
:102DB000C98A90FBF1F03C4908805A4801885BA021
:102DC00001F0C0FF584801885DA001F0BBFF04205E
:102DD0002B49087000203049088042F223202949FD
:102DE000088042F6F820488012E05BA001F0AAFFBC
:102DF00000202649487012200870002020490870E1
:102E0000254908801F204649887001201E49087006
:102E1000E9E342F223201B49088042F6F82048806B
:102E20001D480088401C1C49088008460088B0F5F1
:102E3000167F23DD214890F8620000F0A0000028F2
:102E40001DD11F48C08AB0F5AF7F18DD1B4890F830
:102E500067001C490880194890F86600174991F8E6
:102E6000671000EB0120174908800846008864219C
:102E70004843362190FBF1F03F497FE0CCE0B7E0DA
:102E80004E00002032000020220000202D000020F3
:102E900000100140001401404C00002023000020DD
:102EA000580000205A0000205C0000205E00002036
:102EB000600000206200002062010020F802002073
:102EC0007E0100206C0000205400002050000020F3
:102ED0000A0D2063757272656E74315F61643D2006
:102EE000256400000A0D207265616C5F6375727263
:102EF000656E74313D202564000000000A0D2043FA
:102F0000616C6962726174652053746172742068C7
:102F100065617474696E67206661696C20210000C8
:102F20002400002056000020520000200A0D2063DB
:102F3000757272656E74325F61643D2025640000B5
:102F40000A0D207265616C5F63757272656E743212
:102F50003D202564000000000A0D2048656174745E
:102F6000696E672073746F70206163636964656E56
:102F700074616C6C792021006A000020088008468A
:102F800000884FF4FA714843F449C98A90FBF1F084
:102F9000F3490880F3480188F3A001F0D3FEEF481D
:102FA000C18AF6A001F0CEFEFA4890F86400F94913
:102FB00091F8651000EB012084B2E848808AA042B5
:102FC00005DDE648808A001BF349088002E0012005
:102FD000F14908800520F14908700020F049088077
:102FE00042F22320EF49088043F62840488013E04E
:102FF000AFF29C0001F0A6FE0020EB4948701220C1
:1030000008700020E5490870E54908801F20E7495D
:1030100088700120E6490870E5E242F22320E14988
:10302000088043F628404880DD480088401CDC4981
:10303000088008460088B0F5167F5BDDD54890F81B
:10304000620000F0A000002840D1C448C08A40F2CD
:10305000262188423ADDCF4890F86700D54908809C
:10306000CC4890F86600CB4991F8671000EB01203E
:10307000D04908800846008864214843362190FBE7
:10308000F1F0B8490880084600884FF42F71484392
:10309000B249C98A90FBF1F0C7490880B14801885C
:1030A000C6A001F04FFEAD48C18AC9A001F04AFE9A
:1030B0000620BA4908700020B949088042F223204E
:1030C000B849088044F65850488013E0AFF27810B1
:1030D00001F038FE0020B44948701220087000202A
:1030E000AE490870AE4908801F20B04988700120A1
:1030F000AF49087077E242F22320AA49088044F6DB
:1031000058504880A6480088401CA54908800846B9
:103110000088B0F5167F5ADD9E4890F8620000F0F6
:10312000A000E8BB8D48C08AB0F52F7F3BDD9948F1
:1031300090F867009F490880964890F86600954986
:1031400091F8671000EB01209A4908800846008832
:1031500064214843362190FBF1F0824908800846FB
:1031600000884FF4617148437C49C98A90FBF1F0B3
:103170009D4908807B4801889CA001F0E3FD7748C9
:10318000C18A9FA001F0DEFD07208449087000205D
:103190008349088042F2232082490880002000E011
:1031A00001E0488013E0AFF2502001F0CBFD002099
:1031B0007D494870122008700020784908707849CD
:1031C00008801F20794988700120794908700AE237
:1031D00042F223207349088000204880704800880C
:1031E000401C6F4908808C480088E62802DAE620F7
:1031F000894908806A480088B0F5967F70DD002014
:103200006749088084480088B0F58B7F0CDD8248D0
:103210000088A0F58B70642148434FF48B7190FBBC
:10322000F1F07E4908800BE07B480088C0F58B7088
:10323000642148434FF48B7190FBF1F0774908808B
:103240004748008840F29E3188420CDD444800889F
:10325000A0F29E306421484340F29E3190FBF1F091
:103260006F4908800CE03E48008840F29E31081A01
:103270006421484340F29E3190FBF1F06849088098
:103280005948008840F2836188420CDD5648008826
:10329000A0F283606421484340F2836190FBF1F027
:1032A000604908800CE05048008840F28361081AA9
:1032B0006421484340F2836190FBF1F05949088052
:1032C0005648008814280CDA55480088142808DA73
:1032D00054480088142804DA08203049087013E0A4
:1032E00039E051A001F02EFD00202F494870132035
:1032F0000870002029490870294908801F202B499F
:10330000887001202A4908703748008862214843A4
:10331000642190FBF1F0344908801F4801884BA0DC
:1033200001F010FD3C4801884CA001F00BFD504815
:10333000018850A001F006FD0948018852A001F063
:1033400001FD1D48018855A001F0FCFC26480188BC
:1033500057A001F0F7FC46E144E100007E010020A7
:103360005E0000206A0000200A0D206375727265FD
:103370006E74335F61643D20256400000A0D207285
:1033800065616C5F63757272656E74333D20256490
:1033900000000000F8020020580000204E0000202D
:1033A0004C000020320000202D00002024000020CE
:1033B000220000206C000020600000200A0D206325
:1033C000757272656E74345F61643D20256400001F
:1033D0000A0D207265616C5F63757272656E74347C
:1033E0003D20256400000000620000200A0D2063DB
:1033F000757272656E74355F61643D2025640000EE
:103400000A0D207265616C5F63757272656E74354A
:103410003D202564000000005A00002064000020C8
:1034200066000020680000200A0D2043616C69627C
:10343000726174696F6E2064617461206F757420AD
:103440006F662072616E6765202100000A0D20639F
:10345000616C692D766F6C3D202564000A0D206338
:10346000616C692D637572313D2025640000000098
:103470005C0000200A0D2063616C692D6375723257
:103480003D202564000000000A0D2063616C692D59
:10349000637572333D202564000000000A0D20632F
:1034A000616C692D637572343D2025640000000055
:1034B0000A0D2063616C692D637572353D202564AA
:1034C000000000004948007800285AD10122474BEB
:1034D0001A700022464BDA70464A12781207120E12
:1034E0005A71444A1288C2F30712DA71424A1278BA
:1034F000012303EB02123E4B5A723F4A1288C2F379
:103500000712DA723D4A1278022303EB0212384B9B
:103510005A733A4A1288C2F30712DA73384A127899
:10352000032303EB0212324B5A74354A1288C2F35A
:103530000712DA74334A1278042303EB02122C4B7D
:103540005A75304A1288C2F30712DA752E4A127879
:10355000052303EB0212264B5A762B4A1288C2F33C
:103560000712DA76002100BF05E0214A125C0A4406
:10357000D1B2421CD0B21C28F7DB4A421C4BDA7095
:1035800000BF22480088401C204908800846008867
:10359000B0F5967F16DD09201D49087000201B49F3
:1035A000088000224FF400411A48FDF757FD002221
:1035B00001211948FDF752FD42F2232017490880E6
:1035C000002048800FE05F201549C8701320487024
:1035D00000200F490870012012490870C8200B49CB
:1035E000088000E000BF00BF10BD000023000020E5
:1035F00062010020580000205A0000205C000020DA
:103600005E00002060000020620000204C000020CE
:103610004E00002000100140001401403200002044
:103620002D0000202200002010B542F2254025493F
:1036300008800020488024480088002804DD2248B3
:103640000088401E2049088020480078412816D173
:103650001E4840784B2812D11C48407900F00800E1
:1036600020B91B480078401C19490870002404E068
:10367000002016490855601CC4B2322CF8DB1248F1
:103680000088E8B9124800780A2805DD0A201149A7
:1036900048702D20C87007E000200E4948700920AE
:1036A00008701F200C498870094801780BA001F0B0
:1036B00049FB4FF42F70044908800020044908702A
:1036C00010BD0000320000203E000020300100202C
:1036D000400000202D000020240000200A0D20437F
:1036E0006F6D6D5F537563657373436F756E74654E
:1036F000723D20256400000010B5142009490870AF
:10370000002048706420C87000224FF40041064831
:10371000FDF7A4FCFFF776F83120044988700F20EC
:10372000087010BD2D000020001001402400002072
:1037300010B51A48007810B101282CD11FE00022E2
:103740004FF400411648FDF789FC01221146154847
:10375000FDF784FC14480078401C134908700846A3
:10376000007864280ADD0122D1030D48FDF776FCBC
:1037700000200D4908700120084908700CE0002065
:10378000064908700420094948700F20C87008A035
:1037900001F0D8FA00E000BF00BF10BD3C000020DF
:1037A00000100140001401403B0000202D000020CB
:1037B0000A0D2048313856207061737421000000D2
:1037C00010B51048008940F29E7188420BDD0D480B
:1037D000008940F63F01884205DA07200A4948700F
:1037E0001E20C87007E000200749487006200870B6
:1037F0001F20064988700348018905A001F0A2FA3C
:1038000010BD00007E0100202D00002024000020BB
:103810000A0D2049332E33765F61643D2025640014
:1038200010B50024154890F86D4090F86C0000EB3E
:10383000042084B21248408900F5E170A0420BDDFB
:103840000F484089A0F5E170A04205DA0C200D492F
:1038500048703720C87007E000200A4948700B20E4
:1038600008701F20084988700548418907A001F0A9
:1038700069FA21460BA001F065FA10BDF80200209C
:103880007E0100202D000020240000200A0D206170
:10389000645F656E76726F6E6D656E743D20256433
:1038A000000000000A0D206967627474656D703D48
:1038B0002025640010B542F2232011490880002021
:1038C00048801048407870B111200F49487050204E
:1038D000C87042F223200A490880002048800BA0CB
:1038E00001F030FA0AE00020074948701020087003
:1038F0000CA001F027FA1F201049887010BD0000AD
:1039000032000020290000202D0000200A0D20494F
:103910004742544820746573742070617374202189
:10392000000000000A0D2049474254482074657386
:1039300074206661696C20210000000024000020D2
:1039400010B542F223201549088000204880144811
:103950000078B8B155201349C87042F223200F49AE
:1039600008800020488010480078042803D11220E5
:103970000C49487002E014200A4948700BA001F07D
:10398000E1F90AE0002007494870112008700DA0F5
:1039900001F0D8F91F201149887010BD32000020B5
:1039A000290000202D000020360000200A0D2049AB
:1039B0004742544C207465737420706173742021E5
:1039C000000000000A0D20494742544C20746573E2
:1039D00074206661696C2021000000002400002032
:1039E00010B53848007810B1012867D121E0364879
:1039F00090F8620000F0050060B9012251033348DD
:103A0000FDF72CFB01202F4908704FF4C870304996
:103A100008800DE000202F4948700C20087000201D
:103A2000284908702CA001F08DF91F2034498870B6
:103A300045E027480088002804DD25480088401E0E
:103A400023490880204890F8620000F0050005280E
:103A500018D11F480088002814DD00224FF40051BF
:103A60001A48FDF7FBFA0020164908700D20194985
:103A700048703C20C8704FF496701549088021A00A
:103A800001F060F912480088B8B900224FF40051E3
:103A90000E48FDF7E3FA00200E4948700C2008702C
:103AA0000020084908704FF49670094908801CA04E
:103AB00001F048F91F201249887000E000BF00BFE4
:103AC00010BD000046000020F80200200010014058
:103AD000440000202D0000200A0D206F76657263DF
:103AE000757272656E74207369676E616C20747292
:103AF00069676765726564206572726F7221000084
:103B0000240000200A0D206F76657263757272655D
:103B10006E742074657374207061737420210000CA
:103B20000A0D206F76657263757272656E7420730C
:103B300069676E616C206E6F742065786973747349
:103B40002100000010B54B480078052876D2DFE848
:103B500000F0030F1E3D5400012047490870002269
:103B6000C1034648FDF77AFA0120424908707EE019
:103B700043480088401C42490880084600881428B1
:103B800004DDC820088002203A4908706FE042F244
:103B900023203C49088040F6B830488038480088E7
:103BA000002804DD36480088401E35490880344826
:103BB000008850B903202F4908700020324948700E
:103BC00008704FF4FA702E49088050E042F223202A
:103BD0002C49088040F6B8304880294800880028E1
:103BE00004DD27480088401E2549088024480088B5
:103BF00010B904201F49087039E0244890F86A0081
:103C000001281CDD214890F86A000C2817DA0020F2
:103C10001B4908801749087010201D4948704B2027
:103C2000C87042F2232017490880002048801748B6
:103C300090F86A1017A001F085F816E016E0134816
:103C400090F86A1019A001F07DF800201049487022
:103C50000F20087042F223200A4908800020488083
:103C6000044908701F201649887000E000BF00BF9B
:103C700010BD00004A00002022000020001001407A
:103C8000480000203200002029000020F802002017
:103C90002D0000200A0D204C6F616454657374562A
:103CA000616C75653D202564000000000A0D206CE4
:103CB0006F616476616C75653D20256400000000CD
:103CC0002400002014200149487070472D00002076
:103CD00010B55948007830B1012829D0022842D0C7
:103CE00003287DD169E0002201215448FDF7B6F98F
:103CF00000224FF400415248FDF7B0F90122D103F0
:103D00005048FDF7ABF9012202214C48FDF7A6F916
:103D10004D480088401C4C490880084600881428FB
:103D200005DD01204449087000204749088081E0F2
:103D300045480088401C4449088000224FF48051C7
:103D40004048FDF78BF9404800880A280ADD012227
:103D500011033C48FDF782F9022037490870002022
:103D60003949088066E038480088401C3649088098
:103D7000084600880A280BDD4FF480413148FDF7E2
:103D800061F928B103202C49087000202E490880D1
:103D90002D480088B0F5487F0EDD00202A490880B4
:103DA00025490870294948700220087028A000F0B1
:103DB000C9FF1F202B4988703CE04FF40051214877
:103DC000FDF740F9B0B928480078012809D114203E
:103DD0001E4948706420C87024A000F0B3FF14E0AE
:103DE00027E00320194948700A20C8701FA000F07E
:103DF000A9FF0AE00020154948700220087014A0AD
:103E000000F0A0FF1F201749887000200A490870A1
:103E100000224FF400410B48FDF720F90022012158
:103E20000648FDF71BF9002202210448FDF716F9A8
:103E300000E000BF00BF10BD3A00002000140140A8
:103E400000100140000C0140380000202D0000202F
:103E50000A0D2070726F6772616D206661696C2156
:103E60000000000024000020360000200A0D207011
:103E7000726F6772616D20706173742100000000C1
:103E800010B5012211463048FDF7E8F800224FF442
:103E900000412E48FDF7E2F82D480078401C2C49DF
:103EA0000870084600781E284CDD0020087029485C
:103EB000808AC0EB001000EB400040F6980190FBB8
:103EC000F1F0C4B22348C08AA04221DA2248007827
:103ED000012802D10220214948701F480078022899
:103EE00002D103201D4948701B480078032802D1E5
:103EF00012201A49487018480078042802D102207C
:103F0000164948700020154908700520C87013E054
:103F10000120124908701F201149887000200F49A4
:103F20004870002201210848FDF798F800224FF45C
:103F300000410648FDF792F80648C18A09A000F042
:103F400001FF00BF10BD000000140140001001403F
:103F5000370000207E010020360000202D000020C8
:103F6000240000200A0D2043757272656E743D2096
:103F70002564000010B500240D4890F8674090F8C3
:103F8000660000EB042084B22CB90F200949487068
:103F90004620C87007E00020064948700E200870CF
:103FA0001F2005498870214604A000F0CBFE10BDFB
:103FB000F80200202D000020240000200A0D2073AC
:103FC00074617469632063757272656E743D202537
:103FD0006400000010B50024144890F8654090F883
:103FE000640000EB042084B21148808A6430A0424F
:103FF0000ADD0F48808A6438A04205DA0E200D4998
:1040000048704120C87007E000200A4948700D2020
:1040100008701F2008498870214608A000F092FE11
:104020000348818A0BA000F08DFE10BDF80200202D
:104030007E0100202D000020240000200A0D2053C6
:104040007461746963566C6F746167653D202564A3
:10405000000000000A0D205265616C566F6C74619F
:1040600067653D202564000010B51048808940F246
:104070006C7188420BDD0D48808940F698018842BA
:1040800005DA08200A4948702320C87007E000209C
:1040900007494870072008701F20064988700348A8
:1040A000818905A000F04EFE10BD00007E010020B9
:1040B0002D000020240000200A0D20537572676532
:1040C0005F61643D2025640010B501229103194809
:1040D000FCF7C4FF18480078401C174908700846D0
:1040E00000781E2825DD002008701448C08940F2A1
:1040F0008A2188420ADD1148C089B0F56C7F05DC51
:1041000009200F4948702820C87007E000200C499A
:104110004870082008701F200A4988700748C18924
:1041200009A000F00FFE00224FF480410148FCF787
:1041300095FF10BD001001403D0000207E010020D1
:104140002D000020240000200A0D205472616E739F
:10415000666F726D65725F61643D202564000000CA
:1041600010B542F225401B4908804FF6FF70488089
:1041700019480088002804DD17480088401E1649A9
:10418000088015480088002822D108211348FCF730
:1041900059FF40B90B20124948703220C87011A055
:1041A00000F0D0FD0AE000200D4948700A20087098
:1041B00011A000F0C7FD1F201449887042F225406D
:1041C00004490880002048804FF4C87002490880E4
:1041D00010BD00003200002042000020000C014011
:1041E0002D0000200A0D2066616E20746573742016
:1041F00070617374210000000A0D2066616E2074E6
:10420000657374206661696C210000002400002041
:1042100070B505466C6A0020E085E0842046FDF715
:1042200025FD70BD70B506460025746A206840699A
:10423000C0F3C01594F83900212805D125B100201C
:10424000E084204600F082F820684069C0F38015C1
:1042500094F83A00222805D125B10020E0852046B7
:1042600000F054F8E06B40F01000E0632046FDF7EA
:10427000FDFC70BD70B505466C6A2868006800F0EA
:104280002000B0B90020E0852068C06820F480706C
:104290002168C8602068406920F0010021684861F9
:1042A0002068406920F0400021684861202084F89F
:1042B0003A002046FDF77AFF70BD70B50446656A86
:1042C0002846FDF774FF70BD70B505466C6A286816
:1042D000006800F0200070B90020E0842068406988
:1042E00020F08000216848612068C06840F04000EC
:1042F0002168C86002E02046FEF714F870BD70B572
:104300000446656A2846FEF70EF870BD0168C96864
:1043100021F490710268D1600168496921F00101BE
:1043200002685161202180F83A10704710B50446A8
:104330002068C06820F040002168C860202084F810
:1043400039002046FDF7EEFF002010BD0168C96866
:1043500021F0C0010268D160202180F83910704737
:1043600070B5044694F83A0022284AD1A068B0F506
:10437000805F13D1A56A206940B920684068C0F306
:1043800008002880A06A801CA06219E020684068AC
:10439000C0B22880A06A401CA06211E0206938B930
:1043A00020684068C1B2A26A501CA062117007E088
:1043B0002068406800F07F01A26A501CA062117062
:1043C000E08D401E80B2E085C8B92068C06820F04A
:1043D00020002168C8602068C06820F480702168CF
:1043E000C8602068406920F00100216848612020F1
:1043F00084F83A002046FDF7D9FE002070BD002069
:10440000FCE70220FAE700002DE9F0410446002510
:104410002068006920F44050E16808432168086181
:104420002169A06808436169084305432068C068A2
:1044300041F20C61884328432168C86020684069C4
:1044400020F44070A1690843216848615F492068F1
:1044500088425CD1FDF728F900EBC00101EB0010A8
:1044600061688900B0FBF1F6FDF71EF900EBC001B1
:1044700001EB001061688900B0FBF1F06421B0FB32
:10448000F1F000EBC00101EB0010A6EB800032213F
:1044900001EB00106421B0FBF1F000F0F006FDF735
:1044A00003F900EBC00101EB001061688900B0FB6B
:1044B000F1F06421B0FBF1F006EB0016FDF7F4F823
:1044C00000EBC00101EB001061688900B0FBF1F75F
:1044D000FDF7EAF800EBC00101EB0010616889000C
:1044E000B0FBF1F06421B0FBF1F000EBC00101EB97
:1044F0000010A7EB8000322101EB00106421B0FB1B
:10450000F1F000F00F003044216888605BE0FDF7B7
:10451000BBF800EBC00101EB001061688900B0FB43
:10452000F1F6FDF7B1F800EBC00101EB0010616896
:104530008900B0FBF1F06421B0FBF1F000EBC001A9
:1045400001EB0010A6EB8000322101EB001064218A
:10455000B0FBF1F000F0F006FDF796F800EBC001BB
:1045600001EB001061688900B0FBF1F06421B0FB41
:10457000F1F006EB0016FDF787F800EBC00101EB48
:10458000001061688900B0FBF1F7FDF77DF800EBE2
:10459000C00101EB001061688900B0FBF1F06421FB
:1045A000B0FBF1F000EBC00101EB0010A7EB8000C5
:1045B000322101EB00106421B0FBF1F000F00F009C
:1045C000304421688860BDE8F08100000038014077
:1045D000014691F8390021282CD18868B0F5805F18
:1045E0000FD10A6A1088C0F308000B685860086988
:1045F00018B9086A801C086209E0086A401C086251
:1046000005E00B6A581C086218780B685860C88C63
:10461000401E80B2C88458B90868C06820F0800085
:104620000B68D8600868C06840F040000B68D8602C
:10463000002070470220FCE72DE9F04104460D46BA
:1046400017469846069E21E0701CF8B12EB1FCF783
:104650000BFDA0EB0800B04218D92068C06820F418
:10466000D0702168C8602068406920F0010021688E
:104670004861202084F8390084F83A0000BF002007
:1046800084F8380000BF0320BDE8F081206800688E
:104690002840A84201D1012000E00020B842D3D038
:1046A0000020F1E708B50D48FDF7E2FA0B48006875
:1046B0000068C0F3001078B100BF002000900748E8
:1046C000006800680090054800684068009000BFDE
:1046D00000BF01200249887008BD0000740400205A
:1046E0002900002008B50D48FDF7C2FA0B48006804
:1046F0000068C0F3001078B100BF002000900748A8
:10470000006800680090054800684068009000BF9D
:1047100000BF01200249C87008BD0000B404002099
:104720002900002010B50248FDF7A2FA10BD0000D4
:10473000F404002070B51748807848B31648FDF798
:1047400062FA0020134988700025002405E0134810
:10475000005D2844C5B2601CC4B2062CF7DB0F48CC
:10476000007841280CD10D4840784B2808D13DB93C
:1047700011200B498870094840790A49887002E085
:104780000548FDF71BFB062204490348FDF7ACFC76
:1047900070BD000029000020740400207C0000206F
:1047A000240000202D00002010B50D48007818B915
:1047B00001200B49087002E00020094908700848F0
:1047C000007818B90749087800F046F804480078DE
:1047D000002803DD0349C87800F006F810BD00008A
:1047E000850000202D00002070B50446002505E05E
:1047F0001648405D16494855681CC5B20F2DF7DBB9
:10480000642094FBF0F030301149C873642094FBAD
:10481000F0F100FB1140C4B20A2094FBF0F03030FC
:104820000B4908740A2094FBF0F100FB1140C4B25C
:1048300004F1300006494874FF208874C874087574
:1048400015220448FDF720FD70BD00008600002001
:10485000B30300207404002070B50546152D70D2F6
:10486000DFE805F00B1F33475B708498ACC0D4F2CF
:10487000F0EFEEEDECEBEAE9E800002405E0D848C3
:10488000005DD8490855601CC4B21B2CF7DBFF2023
:10489000D449C876087748771E22D348FDF7F4FC40
:1048A0009BE1002405E0D148005DCE490855601C1D
:1048B000C4B21B2CF7DBFF20CA49C87608774877BB
:1048C0001E22C948FDF7E0FC87E1002405E0C84846
:1048D000005DC4490855601CC4B21B2CF7DBFF20E7
:1048E000C049C876087748771E22BF48FDF7CCFC40
:1048F00073E1002405E0BF48005DBA490855601C1B
:10490000C4B21B2CF7DBFF20B649C876087748777E
:104910001E22B548FDF7B8FC5FE1002405E0B6486B
:10492000005DB0490855601CC4B21B2CF7DBFF20AA
:10493000AC49C876087748771E22AB48FDF7A4FC3F
:104940004BE149E1002405E0AC48005DA54908556C
:10495000601CC4B21B2CF7DBFF20A249C876087785
:1049600048771E22A048FDF78FFC36E1002405E0C1
:10497000A348005D9B490855601CC4B21B2CF7DBA3
:10498000FF209849C876087748771E229648FDF799
:104990007BFC22E1002405E09A48005D914908551E
:1049A000601CC4B21B2CF7DBFF208E49C876087749
:1049B00048771E228C48FDF767FC0EE1002405E0D5
:1049C0009148005D87490855601CC4B21B2CF7DB79
:1049D000FF208449C876087748771E228248FDF771
:1049E00053FCFAE0002405E08848005D7D49085545
:1049F000601CC4B21B2CF7DBFF207A49C87608770D
:104A000048771E227848FDF73FFCE6E0002405E0E9
:104A10007F48005D73490855601CC4B21C2CF7DB4D
:104A2000FF2070490877487788771F226E48FDF786
:104A30002BFCD2E0BCE0A7E092E07DE068E053E030
:104A40003EE029E014E0FFE7002405E07148005D46
:104A500064490855601CC4B21C2CF7DBFF20614977
:104A60000877487788771F225F48FDF70DFCB4E090
:104A7000002405E06848005D5A490855601CC4B22E
:104A80001C2CF7DBFF2057490877487788771F22CF
:104A90005548FDF7F9FBA0E0002405E05F48005D04
:104AA00050490855601CC4B21C2CF7DBFF204D494F
:104AB0000877487788771F224B48FDF7E5FB8CE0A5
:104AC000002405E05648005D46490855601CC4B204
:104AD0001C2CF7DBFF2043490877487788771F2293
:104AE0004148FDF7D1FB78E0002405E04D48005D2A
:104AF0003C490855601CC4B21C2CF7DBFF20394927
:104B00000877487788771F223748FDF7BDFB64E0B8
:104B1000002405E04448005D32490855601CC4B2D9
:104B20001C2CF7DBFF202F490877487788771F2256
:104B30002D48FDF7A9FB50E0002405E03B48005D4F
:104B400028490855601CC4B21C2CF7DBFF202549FE
:104B50000877487788771F222348FDF795FB3CE0CC
:104B6000002405E03248005D1E490855601CC4B2AF
:104B70001C2CF7DBFF201B490877487788771F221A
:104B80001948FDF781FB28E0002405E02948005D75
:104B900014490855601CC4B21C2CF7DBFF201149D6
:104BA0000877487788771F220F48FDF76DFB14E0E0
:104BB000002405E02048005D0A490855601CC4B285
:104BC0001C2CF7DBFF2007490877487788771F22DE
:104BD0000548FDF759FB00E000BF00BF70BD0000B5
:104BE0007F590008CC030020740400209B59000862
:104BF000B7590008D3590008EF5900080B5A0008AC
:104C0000275A0008435A00085F5A00087B5A0008D8
:104C1000975A0008B45A0008D15A0008EE5A000802
:104C20000B5B0008285B0008455B0008625B00081E
:104C30007F5B00089C5B0008B95B000870B52848E2
:104C40000078002804DD26480078401E24490870BA
:104C50002448C078002842D02348FCF7D4FF002025
:104C60002049C8700025002405E02048005D284444
:104C7000C5B2601CC4B21D488078A042F5DC1B4858
:104C8000007841281FD1194840784B281BD1D5B94D
:104C9000142013490870042407E01449601C085CC0
:104CA000095D134A5054A01CC4B210488078A04239
:104CB000F3DC002405E00D48005D0E490855601C3A
:104CC000C4B2322CF7DB064800780A2802DA06481C
:104CD000FDF774F8322205490348FDF705FA70BD67
:104CE0008400002029000020B40400207703002065
:104CF000F80200203001002010B50C48007840B1C7
:104D000000200A4908701C2209490A48FDF7BCFA2C
:104D10000BE00948008840B1074A51881088FDF728
:104D200097FD002004490880488010BD2300002022
:104D300062010020B40400203200002000BFFEE722
:104D400000BFFEE70FB4054B10B503A9044A029853
:104D500000F018F810BC5DF814FB0000994F000833
:104D60009C00002002E008C8121F08C1002AFAD1E6
:104D700070477047002001E001C1121F002AFBD1DB
:104D8000704700002DE9FF4F89B09B46044600257F
:104D900006E025280BD05A460B999047641C6D1CE1
:104DA00020780028F5D10DB02846BDE8F08F002707
:104DB000B8460122474900E0074314F8013F203B71
:104DC00002FA03F00842F7D120782E2819D114F8FE
:104DD000010F47F004072A280ED06FF02F02207829
:104DE000A0F1300109290CD808EB880102EB410140
:104DF00000EB0108641CF2E70A98641C50F8048B6D
:104E00000A9020780028CED0642808D0692806D0DF
:104E100075281ED05A460B9990476D1C58E00A9988
:104E20004FF00A0901C90A91002802DA40422D21F7
:104E300002E0390504D52B218DF82010012103E073
:104E4000F90704D02021F7E78A4608AE0DE00021DB
:104E5000FAE70A994FF00A0901C90A91F7E74946AA
:104E6000FBF760F9303106F8011D0028F7D1ADEBF2
:104E7000060000F12009780701D44FF00108C84569
:104E800002DDA8EB090000E000208046002706E0D4
:104E900008A85A46C05D0B9990476D1C7F1C57456A
:104EA000F6DB04E030205A460B9990476D1CB8F1B0
:104EB0000001A8F10108F5DC05E016F8010B5A46DF
:104EC0000B9990476D1CB9F10001A9F10109F4DCBF
:104ED000641C65E70928010010B529488078A0B155
:104EE0002748807827490870002025498870254880
:104EF00000780011244908702248007800F00F0063
:104F0000224908700020224908701F4800780028B4
:104F10002EDD1E480078002814DD1C480078401E55
:104F20001A4908701A48007828B901221103194853
:104F3000FCF794F822E000224FF480511548FCF76A
:104F40008DF81BE010480078401E0F49087010488B
:104F5000007818B901200E49087002E000200C49C1
:104F600008700848007800F00F000849087005E054
:104F700000224FF480510748FCF770F810BD000084
:104F8000240000207400002075000020760000201E
:104F9000770000200008014013B50C464FF6FF7360
:104FA000012269460248FDF703F900981CBD000084
:104FB000F404002010B53D48007820B101280CD041
:104FC000022833D125E04FF400713948FCF73AF854
:104FD00010B901203549087029E04FF400713448B8
:104FE000FCF730F828B933480078401C3149087084
:104FF00004E000202F4908702C4908702D480078E3
:10500000022805DD00202B4908700220274908707E
:105010000DE04FF400712648FCF714F828B1012088
:105020002549C87000202149087000E000BF00BF7A
:105030002248007820B101280CD0022833D125E085
:105040004FF480711A48FBF7FDFF10B901201B498E
:10505000087029E04FF480711548FBF7F3FF28B979
:1050600017480078401C1649087004E000201449D5
:1050700008701249087012480078022805DD0020E7
:105080000F49087002200D4908700DE04FF480713F
:105090000748FBF7D7FF28B1012007490871002016
:1050A0000649087000E000BF00BF10BD720000207C
:1050B000000C01407000002024000020730000203C
:1050C0007100002010B52348407890B12148407805
:1050D0002149097888420CD01E4840781E49087042
:1050E0000846007800F00F000870084600781B4959
:1050F00008701848407810B9002017490870164801
:1051000000780F2806D100224FF400611448FBF705
:10511000A5FF1DE01048007828B90122D1021048EF
:10512000FBF79CFF14E00D480078002804DD0B48D5
:105130000078401E094908700848007840B90648C0
:105140000078064908704FF400610548FBF782FFBC
:1051500010BD0000240000207A0000207B00002009
:105160000008014010B52348007890B1214800782C
:105170002149097888420CD01E4800781E490870E1
:105180000846007800F00F000870084600781B49B8
:1051900008701848007810B90020174908701648A0
:1051A00000780F2806D100224FF480711448FBF7D5
:1051B00055FF1DE01048007828B90122110210485F
:1051C000FBF74CFF14E00D480078002804DD0B4885
:1051D0000078401E094908700848007840B9064820
:1051E0000078064908704FF480710548FBF732FFDC
:1051F00010BD00002400002078000020790000206D
:1052000000080140FBF76EFFFDF75CFBFDF76AF954
:10521000FDF71EF9FDF78AF84048FBF7BBF820229E
:105220003F493E48FBF7E6FAFDF726FAFDF742FA5A
:105230003C480068C06840F010003A490968C860FE
:10524000FDF75EFA38480068C06840F01000364943
:105250000968C860FDF77AFA132034498870012084
:105260003349087000203349487008708870C8704E
:10527000002407E0002501E0681C85B2FF2DFBDB60
:10528000601C84B2B4F5FA6FF4DB2BA0FFF75AFD73
:1052900037A0FFF757FD3CA0FFF754FD45A0FFF7EF
:1052A00051FD41204E4908704B2048701C208870E9
:1052B0000020C870302008710020487131208871AA
:1052C0000020C87132200872002048723320887292
:1052D0000020C8723420087300204873352088737A
:1052E0000020C87336200874002048743720887462
:1052F0000020C8743820087500204875392088754A
:105300000020C8753A200876002048763B20887631
:105310000020C87601E000F0EDFAFCE70004002070
:10532000B000002074040020B404002024000020F9
:10533000220000202D0000200A0D204D61696E62C0
:105340006F61726420646961676E6F736520737941
:105350007374656D207374617274656421205630B6
:105360002E333220323031383033303800000000F4
:105370000A0D20763D61642A313532312F313030CB
:10538000302B3435000000000A0D2061645F637526
:105390007272656E743C3D3536302C633D28616415
:1053A0002A333737392B323630303030292F3130ED
:1053B000303030000A0D2061645F63757272656E73
:1053C000743E3536302C633D2861642A33383836D4
:1053D0002B323030303030292F3130303030000037
:1053E00062010020F0B501257F4E358002201BE0D0
:1053F0007E4D55F820507E4E56F820602E447C4F4E
:1054000000F1080557F825502E4400F1100557F813
:1054100025502E4400F1180557F825503544734E99
:1054200046F82050451CE8B20828E1DB704D2D6895
:105430006F4E366A35446E4E366C35446C4E366E61
:105440003544C5F38F056B4E3582694D6D68684EE6
:10545000766A3544664E766C3544654E766E3544D4
:10546000C5F38F05634E7582614DAD69604EB66BB5
:1054700035445F4EB66D35445D4EB66F3544C5F369
:105480008F035D4D2D78312D05DA5B4D2D786D1C28
:10549000594E357002E00025574E3570554D2D8A16
:1054A000564E554F3F7826F81750524D6D8A544E40
:1054B000514F3F7826F81750524D4F4E367825F809
:1054C00016300021002200200DE04D4D35F810501F
:1054D00029444A4D35F810502A444A4D35F81050A9
:1054E0002C44451CE8B23228EFDB3225B1FBF5F540
:1054F000404E75803225B2FBF5F535803225B4FB80
:10550000F5F5B581404D2D78322D2FD100253E4E39
:105510003570364DAD68C826B5FBF6F5354EB5800D
:10552000324DED68C826B5FBF6F5324EF5802F4DAD
:105530002D69C826B5FBF6F52E4E35812B4D6D69CC
:10554000C826B5FBF6F52B4E7581284DED69C826AA
:10555000B5FBF6F5274EF581002005E00025234E2A
:1055600046F82050451CE8B20828F7DB264D2D7878
:105570006D1C254E35701F4D2D8840F2F156754338
:105580004FF47A7695FBF6F52D351A4EB5823546F1
:105590006D88B5F50C7F0DDC35466D8840F6C36629
:1055A00075431A4E354442F2107695FBF6F5114ECE
:1055B000F5820DE00F4D6D8840F297767543144EDD
:1055C00006EB450542F2107695FBF6F5094EF5829D
:1055D000084DAD8A074EF68A7543642695FBF6F5AD
:1055E000044E3583F0BD0000A0000020D80200204A
:1055F000B00000207E0100206E000020100200207C
:10560000AC010020740200206F000020A0F703000E
:10561000400D030010B5052070494880704840785F
:10562000E0B97048C078012818D111206D49887000
:10563000002405E06C48005D6C490855601CC4B24C
:105640000C2CF7DBFF2069490873487388730F221D
:105650006748FCF719FE0420614988700020614901
:10566000C87008460079012817D1112088700024DD
:1056700005E06048005D5D490855601CC4B2092C16
:10568000F7DBFF20594948728872C8720C225848CB
:10569000FCF7FAFD05205249887000205149087135
:1056A0004F480078002805DD4D480078142801DABD
:1056B0000F2048704A48807800283BD00020484995
:1056C0000870C870487008468078012804D102200C
:1056D000487001204849087041488078022805D167
:1056E00001203F4948700220434908703C488078B7
:1056F000032805D101203A49487003203E4908702B
:1057000037488078042805D10120354948700420A5
:105710003949087032488078052805D10020304981
:10572000487005203449087000202D4988702D49A3
:10573000487008702A48407815284BD2DFE800F0FE
:105740000B0E1114171A1D202326292C2F32353841
:105750003B3E41444700FDF755F83CE0FEF790FB27
:1057600039E0FEF7B5FA36E0FDF7E2FF33E0FDF78A
:1057700029F930E0FDF756F92DE0FEF721F82AE08F
:10578000FEF772FC27E0FEF79FFC24E0FDF74CFFDC
:1057900021E0FEF7E5FC1EE0FEF742F81BE0FEF715
:1057A0001FF918E0FEF716FC15E0FEF7E3FB12E028
:1057B000FEF7C8F90FE0FEF77DF80CE0FEF7C0F841
:1057C00009E0FDF75FF906E0FEF77CFA03E0FDF77C
:1057D00093FF00E000BF00BF10BD0000A00000204C
:1057E0002D000020240000206859000898010020A6
:1057F00074040020755900083600002040F2E9309A
:105800000149888070470000A000002010B53220B8
:105810000B49C8800B48007818B901200949087065
:1058200002E00020074908700648007808B9FFF731
:1058300063FA04480078002801DDFFF7FFF910BD86
:10584000A00000208200002010B565200B490881CF
:105850000B48007818B901200949087002E00020BF
:10586000074908700648007808B9FEF79DFF04480C
:105870000078002801DDFEF75DFF10BDA0000020CC
:105880008300002010B52F2005494881FFF724FB35
:10589000FFF768FCFFF716FCFFF78CFB10BD00005C
:1058A000A000002010B56720024988810248FBF75C
:1058B00009FC10BDA0000020F4030020002014E02B
:1058C0000B4931F8101000290DDD094931F810108D
:1058D0004FF6FF72914206DA054931F81010491E61
:1058E000034A22F81010411CC8B20728E8DB7047B1
:1058F000A0000020002405E00020124921F8140037
:10590000601CC4B2072CF7DB1AE000200E490870B7
:1059100011E00C480C49097830F8110030B90B49F6
:10592000094A127851F82200804708E006480078BA
:10593000401C05490870044800780728E9DB00BFCF
:10594000E3E70000A0000020200000200400002069
:10595000000000000000000001020304060708091F
:105960000000000001020304706167652070726F1F
:10597000636573730070616765206D61696E0070A7
:10598000726F636573732E74312E7478743D657213
:10599000726F722E74302E7478740070726F63653B
:1059A00073732E74312E7478743D6572726F722E1B
:1059B00074312E7478740070726F636573732E7413
:1059C000312E7478743D6572726F722E74322E743B
:1059D00078740070726F636573732E74312E7478EF
:1059E000743D6572726F722E74332E747874007009
:1059F000726F636573732E74312E7478743D6572A3
:105A0000726F722E74342E7478740070726F6365C6
:105A100073732E74312E7478743D6572726F722EAA
:105A200074352E7478740070726F636573732E749E
:105A3000312E7478743D6572726F722E74362E74C6
:105A400078740070726F636573732E74312E74787E
:105A5000743D6572726F722E74372E747874007094
:105A6000726F636573732E74312E7478743D657232
:105A7000726F722E74382E7478740070726F636552
:105A800073732E74312E7478743D6572726F722E3A
:105A900074392E7478740070726F636573732E742A
:105AA000312E7478743D6572726F722E7431302E9F
:105AB0007478740070726F636573732E74312E7412
:105AC00078743D6572726F722E7431312E747874F1
:105AD0000070726F636573732E74312E7478743D29
