:020000040800F2
:1000000020090020C5000008CD000008CF0000082E
:1000100000000000000000000000000000000000E0
:10002000000000000000000000000000D1000008F7
:100030000000000000000000D30000086924000850
:10004000D700000800000000D7000008D700000813
:10005000D7000008D7000008D7000008D702000822
:100060000000000091020008A1020008D70000086B
:10007000D7000008D7000008D700000800000000E3
:10008000D70000080000000000000000D7000008B2
:1000900000000000D7000008D7000008D7000008C3
:1000A00000000000D700000800000000012C00083C
:1000B0000348854600F050F800480047AD3100087D
:1000C000200900200448804704480047FEE7FEE777
:1000D000FEE7FEE7FEE7FEE72D250008B100000879
:1000E00030B50B46014600202022012409E00D46D0
:1000F000D5409D4205D31D469540491B2546954058
:1001000040191546521E002DF1DC30BD70B500249B
:100110002546002801DA01244042002901DA0125A0
:100120004942FFF7DDFFAC4200D04042002C00D036
:10013000494270BD10B5202A04DB0846203AD04061
:10014000002110BD0B46D340D0402024A21A91407C
:100150000843194610BD0000064C0125064E05E077
:10016000E36807CC2B430C3C98471034B442F7D3D8
:10017000FFF7A2FFE83600080837000810B501466F
:10018000406A426C50231A420AD1416C0122520249
:10019000114341640168CA681205920F05D020E03E
:1001A000C06B026B0846904710BD026A002A18D146
:1001B0000A68120715D58A6853070122002B09DB4C
:1001C0004B680C24A3434B60416C130299431143C9
:1001D000416406E0416C202319434164816C114362
:1001E000816400F0D7F910BD10B5406A416C40221F
:1001F00011434164816C04221143816400F0CCF905
:1002000010BD10B5406A00F0C6F910BDF8B504463F
:1002100000200090206881688907890F012905D195
:100220000168C9072CD1C168090429D48168154A1D
:10023000102611400125002915D1816829438160CC
:10024000124811490068FFF74BFF00E0401E009084
:100250000028FBD100F0DCFD07460CE000F0D8FDE3
:10026000C01B022807D9606C30436064A06C28432F
:10027000A0640120F8BD20680068C043C007EDD12C
:100280000020F8BD1700008040420F00040000204D
:1002900010B5024800F0ECFA10BD0000B0030020D9
:1002A00010B5034800F0E4FA024800F0E1FA10BD8E
:1002B000C80100200002002010B504686360436894
:1002C000102B036803D099600068C26010BD9A606B
:1002D0000068C16010BD10B50120400200F0E2FCD2
:1002E0000120400300F0DEFC0120800300F0DAFC76
:1002F00010BD000002498A8B02438A8370470000C8
:10030000A4000020FEE7000006490020C86106485E
:100310000169042211430161016940221143016115
:10032000704700007000002000200240064A0021B3
:10033000D16106490A6902231A430A6148610869C2
:1003400040221043086170477000002000200240E6
:1003500010B5054B0022DA61044A136901242343D6
:100360001361018010BD00007000002000200240D9
:100370000949C868C206094803D5C26902231A435D
:10038000C261CA68520703D5C26901231A43C26118
:100390001420C86070470000002002407000002058
:1003A00070B5054600F034FD0646104C0AE0681CA6
:1003B00008D0002D04D000F02BFD801BA84201D9ED
:1003C000032070BDE068C007F1D1E068800601D568
:1003D0002020E060E068C00602D4E068400703D552
:1003E000FFF7C6FF012070BD002070BD0020024055
:1003F000F8B505460446403528780026012808D07F
:1004000001202870206881688907890F012908D197
:1004100001E00220F8BD0168C9072AD1C1680904BA
:1004200027D4616CFF22013291430222114361649F
:10043000816892071143816000F0EAFC07460EE0F4
:1004400000F0E6FCC01B022809D9606C0221884339
:10045000102108436064002028700120F8BD206846
:1004600080680028ECDB606C80088000401C6064C1
:1004700004E0606C2021084360640126002028709D
:100480003046F8BDF8B50025044640340095227882
:10049000012A39D00122227003689E68760767D44A
:1004A000384F4E68BE424DD09E6A0F78BA40164310
:1004B0009E620123826B1B079A421FD0012A1DD026
:1004C000022A1BD0032A19D0042A17D0052A15D0D6
:1004D000062A13D0072A11D002688B68566976075E
:1004E000760FB3420AD05369DB08DB005361006822
:1004F00042690B7A5B075B0F1A4342610A68102A54
:1005000004D0112A02D038E00220F8BD1E488368CA
:10051000102A07D00122920513438360086810282F
:1005200003D02AE00122D205F6E7194817490068EE
:10053000FFF7D6FD0A21484300E0401E0090002846
:10054000FBD11AE0986A0E78B2409043986209682D
:10055000102901D0112910D10B488268102904D02C
:10056000012189058A43826007E00121C905F9E775
:10057000416C20221143416401250020207028464F
:10058000F8BD0000011000000027014040420F00AC
:10059000040000207047704770470000F8B5002540
:1005A0000446002803D0606C002802D008E0012037
:1005B000F8BD0020A06440210855204600F0A8F8AE
:1005C000606C1022104270D12068816849076CD499
:1005D000616C13019943022319436164816889079F
:1005E000890F012905D10168C9070FD1C168090424
:1005F0000CD4C1681826B143A6683143C160206895
:100600000169666889008908314301612068C16811
:100610003D4E3140C160A069E1698003C9030843D0
:10062000216A4E033043666B012E02D00126360349
:1006300000E000263043E66830432669022E08D0E9
:1006400000263043266B76003043666A012E02D0C6
:100650000BE00426F5E7002928D0616C2026314301
:100660006164A16C01263143A164A16A0E46FF3E7C
:10067000C23E02D0E66A314308432168CE68064391
:10068000CE600126A16B3607B14213D0012911D0EB
:1006900002290FD003290DD004290BD0052909D038
:1006A000062907D0072905D010E028E00121090418
:1006B0000843DAE721684E69F608F6004E612168C2
:1006C0004E69278F7F077F0F3E434E612168C968BF
:1006D0000E4E3140814207D10020A064606C80083A
:1006E0008000401C606408E0606C984310436064C4
:1006F000A06C01210843A06401252846F8BD606C68
:1007000010436064F8E700001902FEFFE7FF3F8333
:10071000F0B505460068174987B0884228D11648C9
:100720008169471539438161806900263840059009
:10073000A320009003200190092069460296C0067C
:1007400000F0BCFA0D480E4C41C4A7608020266022
:1007500060600001E0602020666120610848083C7C
:1007600000F074F9002801D0FFF7CCFDEC6365625E
:1007700007B0F0BD00240140001002400800024014
:10078000B0030020F7B504460068002580684007E4
:100790003DD426464036307801280AD001273770EC
:1007A000E069012807D02046FFF730FD050002D0A0
:1007B0002EE00220FEBD606C16490840FF21013189
:1007C000084360640020A0643070E16B12488862C6
:1007D000E16B1248C862E16B1148086321681C2074
:1007E0000860206841681022114341602068C16898
:1007F0003943C1602168E06B4031029B019A00F0EF
:100800004FF92068816804221143816000E00225CD
:100810002846FEBDFEF1FFFF7D010008030200082F
:10082000E9010008F8B50446006801684908490074
:10083000016000F0EDFA00272546064620350EE05F
:1008400000F0E6FA811B7D20C000814207D9606B71
:10085000202108436063032068702F70F8BD206872
:100860000068C007ECD1012068702F700020F8BD2F
:10087000F8B5044674480168734A734E724F0832E3
:100880002068D3141C363037904201D1082210E082
:10089000B04201D180220CE0B84201D11A4608E0F2
:1008A000694A4432904202D10122D20301E001227E
:1008B000D20425461140203500292ED00168C943B5
:1008C00009072AD401680822914301605E49206823
:1008D0000831884201D1082010E0B04201D18020C7
:1008E0000CE0B84201D1184608E05749443188422B
:1008F00002D10120C00301E00120C0045249486038
:10090000606B012108436063042068700020287038
:10091000216B002901D0204688474B4802684A498C
:10092000206808310B15884201D1042110E0B04243
:1009300001D140210CE0B84201D1194608E04249FA
:100940004431884202D10121890301E00121890457
:100950000A422BD00168C943490727D40168890698
:1009600003D4026804218A430260374920680831B1
:10097000884201D1042010E0B04201D140200CE0B7
:10098000B84201D1184608E02F494431884202D1CB
:100990000120800301E0012080042B4948601120E0
:1009A0006870E16A002901D020468847264802681D
:1009B000254920680831884201D1022311E0B04264
:1009C00001D120230DE0B84202D101235B0208E0EF
:1009D0001D4B4433984202D101235B0301E0012304
:1009E0005B041A422ED00268D24392072AD40268CE
:1009F000920603D4026802239A4302602068884268
:100A000001D1022011E0B04201D120200DE0B84216
:100A100002D10120400208E00B494431884202D152
:100A20000120400301E00120400407494860606B59
:100A300060630120687000202870A16A002901D03D
:100A400020468847F8BD000000000240F0B50028AD
:100A500006D0014620314A780024002A02D002E064
:100A60000120F0BD0C7002224A7005682B680B4A09
:100A700086681340426807693243C6683E43324382
:100A80004669324386693243C66932431A432A6053
:100A90004463012048700020F0BD00000FC0FFFF3C
:100AA000F8B5044620300578012D1ED001250570CB
:100AB0000226467020680768AF4307602046FFF7AC
:100AC000FBFB206801683143016020680168042253
:100AD0001143016020680168082211430160206809
:100AE0000168294301600020F8BD0220F8BD000024
:100AF000F8B5054623480F46017E012601290BD093
:100B0000012101762868204C012807D02046FFF7F4
:100B100047FC002813D030E00220F8BD2046FFF744
:100B20003FFC002829D1FFF7EFFB2046FFF738FCF8
:100B30000646164801690422914301611DE0002028
:100B4000C04338606C6812E02046FFF7EFFB0E48A8
:100B5000FFF726FC06460D48026902218A4302611E
:100B6000002E01D03C6008E0012080022418A86813
:100B7000810268680818A042E6D802480021017680
:100B80003046F8BD7000002050C300000020024035
:100B90000348016980221143016100207047000071
:100BA00000200240F0B51FB407461A480024017E19
:100BB00015461E46012907D0012101761648FFF788
:100BC000EFFB002803D020E0022005B0F0BD012F8C
:100BD00002D0022F00D00427220128463146FFF719
:100BE000A9FA81B2019862001018FFF7B1FB0A4818
:100BF000FFF7D6FB09490A69520852000A6100282A
:100C000003D1641CE4B2BC42E6D3024900220A7656
:100C1000DBE700007000002050C30000002002400D
:100C200005480169090605D5044941600449416048
:100C300000207047012070470020024023016745D3
:100C4000AB89EFCD01229203C31F10B55110FF3BBA
:100C5000FA3B0FD0904213D10120FFF74BFB0E4916
:100C60000888401F088000B202F03EFB0B490A20B2
:100C7000087010BD02F034FA0420FFF73BFB10BDF2
:100C80008842FCD106480178491CC9B20170C829C4
:100C9000F5D9C821017010BD380000202B000020BC
:100CA0002D00002010B504494A69024202D0486173
:100CB000FFF7C8FF10BD000000040140F8B5002395
:100CC0008DE001249C40A44622407DD04C68022C3B
:100CD00001D0122C0CD1DC08A40027183C6A5D0757
:100CE000ED0E0F26AE40B4430E69AE4026433E6281
:100CF00005685E000324B4400F79A543BF07BF0F0A
:100D0000B7402F4307604D68012D05D0022D03D059
:100D1000112D01D0122D0ED18568CF68A543B740A3
:100D20002F43876047686546AF430D79ED06ED0FA9
:100D30009D403D434560C568A5438C68B4402C4345
:100D4000C4604C68E40049D5284CA56901263543A8
:100D5000A561A4699D0834400094254CAD002F196D
:100D6000BC689D072E0F0F25B540AC430925ED0645
:100D7000A84201D100250FE01E4DA84201D1012556
:100D80000AE01D4DA84201D1022505E01B4DA842F5
:100D900001D1032500E00525B5402543BD60184C71
:100DA00025684E689543F60300D5154325606568B0
:100DB0004E689543B60300D515436560A5684E6837
:100DC0009543F60202D500E008E01543A560E5680A
:100DD0004E689543B60200D51543E5605B1C0A6872
:100DE0001446DC4000D06CE7F8BD00000010024063
:100DF000000001400004004800080048000C0048C2
:100E000000040140002A01D081617047816270476F
:100E100001480068704700000000002070B5040021
:100E20000CD02068C168C943C90709D1C168C9434A
:100E3000890705D4C068C043400701D4012070BDB4
:100E4000607C002803D12074204600F03DF8022089
:100E5000607421681A480860206841686268C9089F
:100E6000C9001143416020688168A268090B090329
:100E7000114381601348E168814203D12168096907
:100E8000814218D0FFF7C4FF7D260546F60007E033
:100E9000FFF7BEFF401BB04202D90320607470BD53
:100EA0002068C0680028F3D120680169E268090B56
:100EB00009031143016101206074002070BD00002E
:100EC00055550000FF0F000070470000F8B50446BC
:100ED000007C012808D00126267402206074FFF7E8
:100EE00097FF054600270CE00220F8BDFFF790FFB2
:100EF000411B7D20C000814203D903206074277408
:100F0000F8BD2068C068C0438007EFD5216803485A
:100F10000860667427740020F8BD0000AAAA0000CB
:100F2000F8B50446007C012812D001262674022060
:100F300060741649E068884202D12168144808604C
:100F4000216814480860FFF763FF054600270CE09E
:100F50000220F8BDFFF75CFF411B7D20C0008142ED
:100F600003D9032060742774F8BD2068C168C943A1
:100F7000C90707D1C168C943890703D4C068C04302
:100F80004007E7D5667427740020F8BDFF0F000006
:100F9000AAAA0000CCCC000002480168491C0160EC
:100FA000704700000000002010B5064801681022BC
:100FB00011430160002000F007F800F017F800204E
:100FC00010BD00000020024010B5044600F02CF9CE
:100FD0007D21C900FFF784F800F058FB002221466C
:100FE000501E00F033F8002010BD000008B50C487A
:100FF00081690122114381618069104000220090C3
:101000001146501F00F022F800221146901E00F0F9
:101010001DF800221146501E00F018F808BD00000F
:1010200000100240C106C90E012088400149086035
:101030007047000080E100E0C106C90E0120884031
:10104000014908607047000000E100E010B501F0C0
:101050007BF910BDF8B5054600682C4CC00340D59F
:10106000E16920040143E161E169294E01400091F9
:101070003068A11508433060FFF7CAFE074604E058
:10108000FFF7C6FEC01B642821D83068C005F7D51D
:10109000206A03263602696830403140884220D0F9
:1010A000206A226AB043012109040A432262226AAB
:1010B0008A432262206280070ED5FFF7A9FE074609
:1010C00007E0FFF7A5FEC11B1248814201D90320AA
:1010D000F8BD206A8007F4D5206A6968B0430843E8
:1010E00020622878C00705D0206BA968800880009E
:1010F000084320632878800605D5206B102188439B
:10110000E968084320630020F8BD00000010024099
:101110000070004088130000F8B505463F480E46B1
:101120000068C007C00FB0420AD23C4801684908B5
:101130004900314301600068C007C00FB0425CD174
:101140002878374C800705D56068F0218843A96866
:10115000084360602878C0073FD06868012813D032
:101160002168022813D08907002946DA61688908B6
:10117000890001436160FFF74BFE6968074601295A
:101180000DD0022917D024E021688903ECE78901FA
:10119000EAE7FFF73DFEC11B2248814217D860688D
:1011A0000007800F0128F4D117E0FFF731FEC11BC3
:1011B0001C4881420BD860680007800F0228F4D1D8
:1011C0000BE0FFF725FEC11B1648814201D9032021
:1011D000F8BD60680007800FF3D110480168C907A7
:1011E000C90FB1420BD90168490849003143016078
:1011F0000068C007C00FB04201D00120F8BD2878B8
:10120000400706D56068072109028843E96808435A
:1012100060600020FFF7D8FE0020F8BD00200240EB
:10122000001002408813000010B500F021F80549B5
:101230004968054A0906090F515CC840034908601E
:1012400010BD000000100240D83600080400002045
:1012500010B5FFF7E9FF04494968044A4905490FF9
:10126000515CC84010BD000000100240D836000894
:1012700010B512A30FCB88B06C460FC413A30FCBCD
:101280000FC416494A680C20134603401448042B27
:101290000FD0082B0DD193021B0F6C46E45CC96A7A
:1012A00004AB0907090F595CD20304D5FEF718FFF8
:1012B000604308B010BD0B486043FAE70203040521
:1012C000060708090A0B0C0D0E0F1010010203048B
:1012D00005060708090A0B0C0D0E0F10001002403E
:1012E00000127A0000093D00F8B504460078DD4D93
:1012F000C0075CD068680007800F012807D06868C5
:101300000007800F022809D16868C00306D5286845
:1013100080034CD5606800287BD048E0286801260F
:101320003604B04328602868B700B8432860FFF748
:101330006FFD009005E0FFF76BFD0099401A6428EF
:1013400068D828688003F6D4606801280AD000288D
:1013500001D0052808D029682846B14329602968AA
:10136000B94307E0284603E0296828463943296045
:10137000016831430160606800280CD0FFF748FD28
:10138000064604E0FFF744FD801B6428D8D828688F
:101390008003F7D50BE0FFF73BFD064604E0FFF7BF
:1013A00037FD801B6428CBD828688003F7D42078C9
:1013B0000127800700283DDA68680007800F07D002
:1013C00068680007800F022809D16868C00306D446
:1013D0002868800715D5E06801281AD111E0E06877
:1013E0000028286817D038432860FFF711FD06460B
:1013F00004E0FFF70DFD801B0228A1D828688007B4
:10140000F7D52868F82188432169C9000843286076
:1014100010E025E1CCE0400840002860FFF7F8FC30
:10142000064604E0FFF7F4FC801B022888D82868F1
:101430008007F7D42078000721D5206A0028686A41
:101440000ED038436862FFF7E3FC064604E0FFF77E
:10145000DFFC801B022899D8686A8007F7D50EE068
:10146000400840006862FFF7D3FC064604E0FFF73F
:10147000CFFC801B022889D8686A8007F7D42078BF
:1014800004264007002866DAE969B0060143E961ED
:10149000E9690140744800910168821511430160B7
:1014A000FFF7B6FC009005E0FFF7B2FC0099401A88
:1014B00064287DD86C480068C005F5D5286A4008C6
:1014C00040002862286AB0432862FFF7A1FC009020
:1014D00006E0FFF79DFC0099411A6448814267D8F5
:1014E000286A8007F5D4A06801280BD0002801D015
:1014F000052809D0296A2846490849002962296A2D
:10150000B14307E0284603E0296A284631432962AF
:10151000016A39430162A06800280ED0FFF778FC09
:10152000009006E0FFF774FC0099411A4F48814291
:101530003ED8286A8007F5D50DE0FFF769FC0090DA
:1015400006E0FFF765FC0099411A484881422FD810
:10155000286A8007F5D42078C00635D5606901284F
:101560000CD0401D686B24D030436863686B400822
:1015700040006863FFF74CFC064622E0686B30438E
:101580006863686B38436863FFF742FC064604E013
:10159000FFF73EFC801B02285BD8686B8007F7D5FD
:1015A000686BF8218843A169C900084368630BE0B0
:1015B0004FE0B0436863F3E7FFF72AFC801B022883
:1015C00047D8686B8007F7D4606A002846D06968FE
:1015D0000907890F022943D0012636060228286808
:1015E00005D0B0432860FFF713FC044633E0B04356
:1015F0002860FFF70DFC074604E0FFF709FCC01B5D
:10160000022826D828688001F7D4E86A216B0009EF
:1016100000010843E862A16AE06A084369683D2264
:101620001204914308436860286830432860FFF73C
:10163000EFFB044604E0FFF7EBFB001B022808D891
:1016400028688001F7D509E0FFF7E2FB001B0228BC
:1016500001D90320F8BD28688001F5D40020F8BD29
:101660000120F8BD00100240007000408813000007
:10167000042204490428086902D090430861704795
:101680001043FBE700E000E070470000094910B597
:10169000401E884201D9012010BD074C6061032122
:1016A000081F00F051FE0020A061072020610020EB
:1016B00010BD0000FFFFFF0000E000E010B5FFF7E5
:1016C000E3FF10BD70B502462032137E012B15D00A
:1016D000012313760224547630C94E682C430D68DA
:1016E000006835432C438D682C43CD6809692C4331
:1016F0000C43446453760020107670BD022070BD08
:1017000070B502462032137E012B1BD001231376C5
:1017100002245476046865687026B54365600468E1
:1017200065680E68354365600468A5688026B54322
:10173000A5600068846849680C4384605376002083
:10174000107670BD022070BD10B5044600680422FA
:1017500000F05FFF2068416C0122D2031143416415
:1017600020680168012211430160002010BD0000C3
:1017700070B504460068002200F04BFF2068036A41
:101780000C490D4A0B4207D1036A134204D1436C42
:101790000125ED03AB4343642068036A0B4206D185
:1017A000016A114203D10168490849000160002023
:1017B00070BD0000111100004404000070B5040069
:1017C00005D025462035687E002802D006E001209D
:1017D00070BD00202876204600F00AF802206876C6
:1017E000211D206800F0D0FE01206876002070BD29
:1017F00000B5144A0168144887B0914216D1826935
:10180000C1140A438261806908400590402000901D
:1018100002200121029101900021049003910920EE
:101820006946C006FFF74AFA07B000BD074A914271
:10183000FAD1C26989150A43C261C069084005909E
:10184000F2E70000002C01400010024000200040A0
:10185000F8B5054604462035287E012817D0012713
:101860002F7602206876226890687726FF23B0439F
:101870001B02984390600868502837D00EDC20285F
:1018800057D006DC00284ED0102840D14EE0022070
:10189000F8BD302850D0402839D13CE060282DD008
:1018A000702817D001221203801A0ED090422ED138
:1018B000CB684A688968206800F0B6FE20688168B5
:1018C000012292031143816021E020688168C908E8
:1018D000C900F8E7CB684A688968206800F0A4FE70
:1018E00021688868B0433043886010E0CA6849685E
:1018F000206800F08FFF5021206806E0CA68496820
:10190000206800F098FF6021206800F098FE6F7654
:1019100000202876F8BDCA684968206800F07AFF80
:1019200040212068F1E700212068EEE710212068BF
:10193000EBE720212068E8E730212068E5E7000098
:10194000F0B500681349092700250224FF0685B079
:1019500088420FD101260094019469460E480296F0
:1019600003950494FFF7AAF960026946039551C1F3
:10197000049408E00949884209D11020694631C120
:1019800004200395049069463846FFF797F905B09F
:10199000F0BD0000002C0140000400480020004081
:1019A000F8B5064604462036307E0D4601280DD097
:1019B00001203076022070760427002A08D0042AFD
:1019C00016D0082A2AD00C2A4DD137E00220F8BDC3
:1019D000206800F03DFE2068816908221143816182
:1019E00020688169B9438161206881692A6912E0B0
:1019F000206800F069FE206882690121C9020A435B
:101A0000826120688169012292029143816120688C
:101A100081692A6912021143816124E0206800F083
:101A20008DFE2068C26908210A43C2612068C1692D
:101A3000B943C1612068C1692A6912E0206800F0D9
:101A4000B9FE2068C1690122D2021143C161206838
:101A5000C269012189028A43C2612068C1692A6979
:101A600012021143C1610120707600203076F8BD6A
:101A700070B5040005D025462035687E002802D0C8
:101A800006E0012070BD00202876204600F00AF80C
:101A900002206876211D206800F076FD012068761E
:101AA000002070BD7047000010B504460068012298
:101AB00000F0A4FD0A482168814205D0094881420E
:101AC00002D00948814204D1486C0122D20310435C
:101AD000486420680168012211430160002010BDA4
:101AE000002C0140004401400048014030B504464C
:101AF0000068002200F082FD144A13482168931008
:101B0000814205D01248814202D0124881420AD156
:101B1000086A104207D1086A184204D1486C0125AE
:101B2000ED03A84348642068016A114206D1016AA6
:101B3000194203D10168490849000160012020349D
:101B40006076002030BD0000002C01401111000023
:101B5000004401400048014010B504460068816817
:101B6000402291438160606E002801D0FEF75AFE4A
:101B7000012060346072002010BD704770B50268AB
:101B80000446D0690121C30720466030002B07D0EE
:101B90001368DB0504D51162E26E0A43E266417206
:101BA0002268D36902259E070423002E07DA96686F
:101BB000F60704D01562E26E1A43E26641722268AB
:101BC000D669760707D59668F60704D01362E26EE9
:101BD0002A43E26641722268D36908251B07002B5D
:101BE00007DA9368DB0704D01562E26E2A43E266E7
:101BF0004172E06E002802D02046FFF7BEFF206849
:101C0000C169890609D50068800606D5204600F01E
:101C1000F3FE20688169294381612068C169090652
:101C200005D50068000602D5204600F0B1FF206807
:101C3000C169490605D50068400602D5204600F076
:101C4000C8FE70BD70B5040005D025466035687AC1
:101C5000002802D006E0012070BD00202872204636
:101C600000F026F8022068722068016849084900DF
:101C70000160204600F008FF0128EDD0606A0028CE
:101C800002D0204600F0EAFD206841680122D2021D
:101C900091434160206881680822914381602068F7
:101CA0000168012211430160204600F03CFE70BD36
:101CB000F0B506460068274987B0884248D12648D3
:101CC0008269012189030A43826180690840059085
:101CD0000C2000900220019001210320039002912A
:101CE000049109206946C006FEF7E8FF1B481C4D19
:101CF000002411C52C60AC60EC6080272C616F6003
:101D00006C611748083DFEF7A1FE002801D0FEF7E0
:101D1000F9FA75666E62124D1048383D1438286025
:101D20001020291D91C12C616C61AC612846EC61C9
:101D3000FEF78CFE002801D0FEF7E4FA356600229B
:101D400011461B206E62FFF781F91B20FFF774F923
:101D500007B0F0BD003801400010024030000240E2
:101D600000020020F8B5054604466035687A01286F
:101D700002D0687A12282FD1002929D0002A27D032
:101D8000287A012828D00120287258206165025342
:101D90000026E666687A12281CD022206872636EDC
:101DA0000E489862636E0E48D862636E0D481863E1
:101DB000134627680A4639462431606EFEF770FEE6
:101DC000206881684022114381602E720020F8BD96
:101DD0000120F8BD3220E1E70220F8BD59290008B2
:101DE0008F2900083729000870477047F8B5054665
:101DF00004466035687A012802D0687A222833D1F7
:101E000000292DD0002A2BD0287A01282CD001209F
:101E1000287220464030E164028242820026E66653
:101E2000687A22281ED012206872236E0F489862AA
:101E3000236E0F48D862236E0E4818632768134636
:101E40003A462832206EFEF72BFE216840200862B9
:101E5000206881688022114381602E720020F8BDC5
:101E60000120F8BD3220DFE70220F8BD99290008E3
:101E7000C92900083729000870477047F0B54B485A
:101E800004214B4B827805E04418455C6478891C3A
:101E90005C55C9B28A42F7D800210D464554491C09
:101EA000C9B23229FAD3424842492030427D037DEB
:101EB0001202D21892B2CA80C37C847C1B021B1906
:101EC0009CB24C818F8803460126523BBA4205D012
:101ED000002A03D08A801A810E7000E00D700A89F2
:101EE000944205D0002C03D00C81DC804E7000E0C1
:101EF0004D70C178827809025118198041790279B0
:101F00000902511859808079002800D01871284C96
:101F100001254034A0782D03002801D0D88102E0AB
:101F20002846FEF7E7F9607901022079401800049D
:101F3000000C01D0188202E02846FEF7DBF9E079B8
:101F4000A179000208180004000C01D0588202E0B8
:101F50002846FEF7CFF9607A217A000208180004BB
:101F6000000C01D0988202E02846FEF7C3F9E07A1F
:101F7000A17A000208180004000C01D0D88202E007
:101F80002846FEF7B7F9607B217B000208180004A1
:101F9000000C01D0188302E02846FEF7ABF9D8897F
:101FA000022801D20220D881F0BD0000D204002016
:101FB000D60000200A00002070B5154C00252078BE
:101FC000002802D0257000F0EBFE6078002802D0D7
:101FD000657000F0BDFE0F4CA0788007800F09D01F
:101FE000012804D0022804D003280AD004E02D20C0
:101FF00000E0432001F0CCF9A078400603D5012091
:1020000002E06420F6E7002000F020FA70BD000036
:102010000A000020A40000203EB5264926480024DE
:1020200012C0046044600125046185604461C4619C
:1020300085618562C56204214462C1600838FEF78B
:10204000ADFA002801D0FEF75DF9012000030190F0
:1020500002200290009469461748FEF713FA002800
:1020600001D0FEF74FF9694613480095FEF70AFACA
:10207000002801D0FEF746F90520009069460E4879
:10208000FEF700FA002801D0FEF73CF90720009087
:1020900069460948FEF7F6F9002801D0FEF732F943
:1020A0000548FEF7A5F90449102284310248FEF7DD
:1020B00069FB3EBD002401406403002008B50E48C2
:1020C00041690122114341614069104000220090A2
:1020D00011460920FEF7BAFF0920FEF7ADFF0920DF
:1020E000FEF7A0FF002211460A20FEF7AFFF0A20EC
:1020F000FEF7A2FF08BD00000010024070B52348A3
:1021000086B04269012189050A43426142690A4059
:102110000592426949110A43426142690A400592A7
:10212000426949000A4342614069194D08400590DF
:10213000002203212846FEF765FE0021032001242A
:10214000029103910090019469462846FEF7B6FD7E
:10215000600209260F4DF60600906946019502942B
:102160003046FEF7ABFD0320400300906946019521
:1021700002943046FEF7A2FD002211460720FEF72A
:1021800065FF0720FEF758FF06B070BD0010024043
:10219000001400480000111010B5084806490160FD
:1021A000002141600649C1608160FEF737FE0028CA
:1021B00001D0FEF7A7F810BD0030004090000020CD
:1021C000FF0F000010B51649164888B0002412C051
:1021D0000F210460C901846041600838FFF7EEFAFE
:1021E000002801D0FEF78EF80E48FFF741FC0028CA
:1021F00001D0FEF787F8602000900F208001019049
:1022000002940022694604940648FFF7C9FB00289F
:1022100001D0FEF777F80348FFF792FB08B010BD36
:10222000002000406404002070B53048304D94B068
:10223000002411C52C601920AC604001EC6068607E
:102240002B48083DFFF7BAFA002801D0FEF75AF8EC
:10225000012636030EA926480E96FFF7F9FA002844
:1022600001D0FEF74FF82248FFF702FC002801D00A
:10227000FEF748F8129412A91D481394FFF740FA8C
:10228000002801D0FEF73EF873200390012000944F
:1022900040030194059004960294694606941448FC
:1022A000FFF710FA002801D0FEF72CF86020079005
:1022B000FF209130089002200990082002460A90E1
:1022C0000B940C9407A90D940948FFF769FB0028AB
:1022D00001D0FEF717F80648FFF732FB28680168BF
:1022E00080221143016014B070BD0000002C014039
:1022F0002804002010B5134C114820604B20000228
:1023000060600020A060E0602061A0610C21E061BD
:1023100061612062702161620121A0634903E16370
:10232000C901216460642046FFF78CFC002801D0BD
:10233000FDF7E8FF2068016810221143016010BD1D
:1023400000380140580100208307FF22DB0E9A402D
:102350008907090E994000280BDA0007000F08389A
:10236000830808489B001818C36993430B43C36153
:102370007047830804489B001B1818689043084363
:102380001860704700ED00E000E400E07D210F4898
:10239000C90001820E4941820E4981821021C1810A
:1023A0000C490D4A9631C1824900018300211180F8
:1023B000084A64328281D2004281044A084632329D
:1023C0001154401CC0B27F28FAD37047A4000020EB
:1023D000B80B00007E0400003800002014498A8BEE
:1023E0000846130A9230C3708270CA8B130A437175
:1023F00002710A8C130AC37182714A8D130A4374E5
:102400000274CA8C130A437302734A8C130A437210
:1024100002720246723A12798272CA8D02750A8E6F
:10242000130AC3758275098D0A0AC27381737047D6
:10243000A40000200148408870470000003C0008CC
:102440000148008870470000003C000810B5054BAB
:10245000012805D0002201211846FEF7D3FC10BD4B
:102460000122F8E70014004810B50D487D220188CC
:10247000D200914202D2491C01800AE00021018071
:102480000848094B028D521C92B202859A4200D133
:102490000185FEF781FDFFF711F901F0E7F810BDA6
:1024A00008000020A4000020FFFF000070B596B0D7
:1024B00001251A2005950090102004900690052013
:1024C0000024C004039502260B90099608950A94EF
:1024D0000C946846FEF708FF002800D0FEE70720AE
:1024E0000D900F9401210E9610940DA8FEF714FE86
:1024F000002800D0FEE711A811951394FEF7AAFD5D
:10250000002800D0FEE7FEF78FFE7D21C900FDF711
:10251000E7FDFFF7BBF80420FFF7AAF800221146F9
:10252000501EFEF793FD16B070BD00001348016801
:102530000122114301604168114A11404160016864
:10254000104A114001600168012292049143016028
:1025500041683F22120491434160C16A090909019F
:10256000C162016BFF22143291430163416B490840
:102570004900416300218160704700000010024063
:102580000CB8FF08FFFFF6FE70B50268164B174D3A
:10259000984201D0A84204D1144670264A68B44338
:1025A0002243134C134E984208D0A84206D0124D35
:1025B000A84203D0A04201D0B04204D103252D028D
:1025C000AA43CD682A4302608A68C2620A688262AE
:1025D000984203D0A04201D0B04201D10969016301
:1025E0000121416170BD0000002C01400004004049
:1025F00000440140004801400020004010B5012384
:10260000046A8B409C430462036A8A40134303625A
:1026100010BD10B50423046A8B409C430462036A16
:102620008A401343036210BD30B58468FF252D0234
:102630001B021343AC430B432343836030BD8268CA
:1026400070239A430A4307210A43826070470000BF
:10265000F0B5026A520852000262056A4368826954
:102660007024A24392080C689200144302229543FE
:102670008A68134E2A43114DA84204D0B04202D0BA
:10268000104FB84206D10827BA43CF681743042237
:1026900097433A46A84204D0B04202D0094DA8421E
:1026A00006D103252D02AB434D691D438B692B4396
:1026B00043608461496841630262F0BD002C0140BF
:1026C000004401400048014070B5026A10239A435B
:1026D0000262046A4368826973252D02AA430D6869
:1026E0002D021543202294438A6812012243104C84
:1026F000A04208D11446CA688026B443120122437E
:102700004024A24305E00B4CA04202D00A4CA04258
:1027100008D10324A402A3434C69A4001C438B6981
:102720009B0023434360856149688163026270BDF9
:10273000002C0140004401400048014070B5026A8D
:10274000FF2301339A430262046A4368C269702519
:10275000AA4392080D689200154301225202944345
:102760008A6812022243104CA04207D1C414A2432B
:10277000CC68240222430615B24305E00B4CA0426C
:1027800002D00B4CA04208D103242403A3434C697C
:1027900024011C438B691B0123434360C5614968C5
:1027A000C163026270BD0000002C01400044014082
:1027B0000048014030B5026A01231B039A430262BC
:1027C000056A4268C36973242402A3430C68240287
:1027D0001C4301235B039D438B681B032B430A4D62
:1027E000A84205D0094DA84202D0094DA84205D102
:1027F0000125AD03AA434D69AD012A434260C4617E
:1028000049680164036230BD002C0140004401406E
:102810000048014030B5036A046A64086400046239
:102820008469F025AC43120122430A24A3430B43DD
:102830008261036230BD30B5036A1024A343036292
:102840008469036A0F252D031203AC432243A0249D
:10285000A343090119438261016230BD10B5818C27
:10286000C90707D001684A6801235B049A43836A59
:102870001A434A60818C890707D501684A68012399
:102880001B049A43C36A1A434A60818C490707D5DF
:1028900001684A6801239B049A43036B1A434A6008
:1028A000818C090707D501684A680123DB039A4335
:1028B000436B1A434A60818CC90607D50268916848
:1028C00001231B039943836B19439160818C890613
:1028D00007D501688A6801235B039A43C36B1A43D7
:1028E0008A60818C490612D503685A68012109055E
:1028F000046C8A4322435A60026C8A4207D1026800
:10290000516803235B059943436C19435160818CE3
:10291000090607D501684A680123DB04806C9A43E5
:1029200002434A6010BD0021C1660122603042723C
:1029300001720846704710B5406A002201464031D6
:102940004A834A82012269210A54C16E102211432E
:10295000C166FFF712F910BD10B501460968406A5B
:10296000096889060ED400225A210A5201688A6831
:1029700040239A438A60014660314A7A322A04D061
:1029800001224A72FFF730FA10BD1222F9E710B5A2
:10299000406AFFF72AFA10BD10B501460968406A7F
:1029A000096889060DD4002252210A5201688A68FA
:1029B00080239A438A6000680168402211430160C5
:1029C00010BDFFF759FA10BD10B5406AFFF755FA70
:1029D00010BD10B501680A6840239A430A60014699
:1029E00060314A7A322A05D001224A72FFF744FA4E
:1029F000002010BD2222F8E770B5014640310346A1
:102A000060338A8B5C7A222C04D05C7A322C01D021
:102A1000022070BD012584682D03AC4202D10469F7
:102A2000002C0DD00468A48C1440426D551C4565E3
:102A300014704A8B521E1204120C4A8309D01EE0F5
:102A40000568446DAD8C15402580426D921C426531
:102A5000EFE701680A682024A2430A60597A322904
:102A60000FD001680A68E400A2430A6001688A681E
:102A7000520852008A6001215972FFF7B5F900200F
:102A800070BD1221F8E70000F8B504462369A2687A
:102A9000E6691A43636910213343002026681A430C
:102AA00033680546364F3B401343336023685A680A
:102AB00003263603B243E66832435A60236AA269AA
:102AC00026681A43B3680B273F02BB431343B36026
:102AD0002C4A126B9207920F06D0012A08D0022AC4
:102AE00008D0032A07D101E0002104E0022102E01E
:102AF000042100E008210122E369D203934220D19E
:102B000000290CD002290DD0042911D0082914D095
:102B10000125010909010007400F08432DE0FEF7D8
:102B200097FB07E018486168FDF7DAFA80B2F0E732
:102B3000FEF79EFB40006168F6E701200004616833
:102B4000F2E7002908D0022909D004290DD008296C
:102B50000FD001252846F8BDFEF77AFB07E00B48A9
:102B60006168FDF7BDFA80B207E0FEF781FB61689E
:102B7000F7E710466168FDF7B3FA2168C860E9E736
:102B8000F369FFFF001002400024F40000127A00F5
:102B9000014660314A7A122A04D0497A322901D09A
:102BA00002207047014640314A8A002A12D0012390
:102BB00082681B039A4202D10269002A15D0C26CB6
:102BC000531CC364006812780285488A401E4882FC
:102BD0000020704701680A6880239A430A600068F1
:102BE0000168402211430160F2E7C26C0368128859
:102BF000D205D20D1A85C26C921CC264E5E70000B2
:102C000010B50B48FEF7BAFF09480068C169C9430F
:102C1000C9060BD4102101620648006840683221C1
:102C2000081A0549087005490120087010BD000008
:102C30005801002000020020280000202900002068
:102C400070B5254CE078002801D0401EE070234884
:102C50000178012930D10021017021480A4601255F
:102C60000421837805E0465C4D2E00D90025891C9F
:102C7000C9B28B42F7D8002104E0465CB218491C67
:102C8000D2B2C9B28B42F8D8017841290CD1407830
:102C90004B2809D1002A07D1012D05D1FFF7EEF805
:102CA000FFF78AF93220E0700E48FEF755FF322216
:102CB0000B490C48FFF756F8E07819280AD2094862
:102CC000FEF7C0FFE078002804D100F009FA0820E0
:102CD000FDF710FB70BD00000A0000202900002055
:102CE000D20400205801002070B5FFF777FB164989
:102CF000412008704B20487014480022C489134DAD
:102D00006000001D88708C30C3B2CA701046323526
:102D10000DE002464600623276183271D2182B1846
:102D200060339B7873719A18401CD3B2C0B284424E
:102D3000EFD8FF200130C01AC87004488A780249D1
:102D4000B430FFF753F870BDA0040020A4000020A9
:102D5000F8B500F09BF90F4E0F483488C588FDF791
:102D60005FFF0E4801220021826042C00091694647
:102D70000838FDF7BDFE2246002331460120FDF74D
:102D800011FF2A460023B11C0120FDF70BFFFDF7C0
:102D9000FFFEF8BD003C0008A40000201005002044
:102DA000F8B500F073F90F480F4E05897488FDF7E8
:102DB00037FF0E4801220021826042C0009169461F
:102DC0000838FDF795FE2A46002331460120FDF71D
:102DD000E9FE22460023B11C0120FDF7E3FEFDF7CA
:102DE000D7FEF8BDA4000020003C0008100500201C
:102DF00030B47446641E2578641CAB4200D21D4674
:102E0000635D5B00E31830BC184702E008C8121F7E
:102E100008C1002AFAD170477047002001E001C1C3
:102E2000121F002AFBD17047F8B51E48817803298C
:102E300001D9002100E0491C81701B4C1B4E618BA5
:102E40003288FF272D371A4D914214D280780028FE
:102E500011D11848007800280DD1238A208C283BF6
:102E6000984208DA501AB84205DD298808B2491C90
:102E7000298000F039FA618B3088814208D9081A1C
:102E8000B84205DD2888401F288000B200F02CFAE7
:102E900008480178002901D0491E01702888608502
:102EA000F8BD00003C000020A40000203A000020F3
:102EB000380000202B00002010B50D4801780B00D1
:102EC000FFF796FF061304070A0D101300F044F9EC
:102ED00010BD00F01BF910BD00F0A8F810BDFFF701
:102EE000A3FF10BD00F0E6F810BD0021017010BD79
:102EF0002C000020F8B5494D4621288B0446484354
:102F00006421FDF7EDF8E98B884201D8A14205D98B
:102F100000F0E6F801204002FDF7ECF9288A298C40
:102F2000FF240134143881420ADD3D4801880AB289
:102F3000491E0180104600F0D7F92046FDF7DAF966
:102F4000288A298C2838814202DD2046FDF7D2F9F3
:102F5000344F00263878344C042843D129887D2208
:102F6000688BD200891A884205DA4020FDF7C2F941
:102F70003878042836D1698A7D22688B52018918F5
:102F8000884217D2208A401C80B22082297FC9073C
:102F900002D0618A491C6182C8280ED9608A6428DF
:102FA0000BD9A6826682268200F09AF82020FDF7CF
:102FB000A1F902E0A68266822682698A1922688BBC
:102FC0005201891A88420DDAA08A401C80B2A08280
:102FD000C82807D9A6826682268200F081F82020C0
:102FE000FDF788F9E88CE98A884206D20120E07072
:102FF00000F076F81020FDF77DF9E078012805D182
:10300000E88AE98CC830814201D9E670F8BD102009
:10301000FDF770F900F064F8F8BD0000A40000208E
:10302000380000202C0000203C00002010B5124980
:103030000878002801D0401E08701048428B408A52
:10304000824210D20E4C218808B2491C218000F027
:103050004BF920880B49884204D900F041F8202020
:10306000FDF748F910BD08780028FBD1064908781B
:10307000401C087010BD00003C000020A40000208F
:1030800038000020B60300002C00002010B500F02E
:1030900067F9054900200870044908800449088040
:1030A0008020FDF727F910BD2C00002038000020FB
:1030B0003600002010B507480078002809D000F03D
:1030C0004FF9054900200870044908808020FDF769
:1030D00011F910BD2A0000202C000020380000202B
:1030E00010B500F03DF90649002008700549088038
:1030F0007D200549000108808020FDF7FBF810BD08
:103100002C000020380000203600002010B50020E0
:1031100000F032F90C480D4900780871203909791E
:1031200088420BD2012809D909490878401C087047
:1031300000F0FCF807493C20087010BDFFF7D0FFF5
:103140002020FDF7D7F810BD2D000020C40000207E
:103150002C0000203C00002010B50F4800880028FB
:1031600019D10E480E49808B084214D1012000F07D
:1031700003F900F0DBF800204B21C900401C80B2AD
:103180008842FBD300F0ECF806490878401C087030
:1031900005490020087010BD36000020A400002062
:1031A0003D0200002C0000202D000020FDF7FCFE59
:1031B000FFF77CF9FEF7A2FFFEF780FFFEF72CFF7A
:1031C000FEF7EAFFFFF730F8FEF7FCFFFFF792F893
:1031D000124C11482086FFF7D9F8FFF731F9054660
:1031E000FFF728F929462D39142909D8002807D0D6
:1031F00041047D22490C9201914201D8258103E0CE
:1032000036202081FF20F530E0800548FDF788FE5C
:1032100000F040FAFCE7000010170000A4000020B6
:1032200090000020F8B52C482C4E00882A493080A8
:1032300000272B4C4D8A002838D0854236D9E188AA
:10324000814219D07D21E080090148432946FCF7DD
:1032500047FF80B22081C82802D2C820208104E024
:10326000E121C900884200D9218121897D20000106
:10327000401A6081A181E081A089002801D0401E10
:10328000A081E089002807D0A18900290BD1401E28
:103290000004000CE08103D16089E0812089A081D5
:1032A000A089002801D0358000E03780318860781F
:1032B0000B46034301220B48002B08D00378002B58
:1032C00004D16D1E8D4201DA02706770F8BD0521D0
:1032D00001706270F8BD0000A40000203A000020D8
:1032E0003C0000202C00002010B50D498B8A834241
:1032F00001DA1420085EFF219131884200DA084685
:10330000084A1488A34200D2138013888B4200D24B
:103310001180054942000B68DA620968C86310BD74
:10332000A4000020380000202804002010B5FF2051
:103330000949EB300880FFF7D7FF08210748FEF75F
:10334000B3FB0020401CC0B26428FBD30821034813
:10335000FEF7FAF910BD0000380000202804002014
:1033600010B508210348FEF703FA08210148FEF7CB
:10337000BDFB10BD2804002004494A140028086839
:1033800001D0104300E09043086070470004014002
:1033900070B5154D04001CD000211448FEF784FBC5
:1033A000012202212846FDF72DFD2046C021484379
:1033B0000A21FCF795FE0E4991229200884201D91C
:1033C000084602E0904200D2104608490968486366
:1033D00070BD002202212846FDF714FD002103489C
:1033E000FEF784FB70BD0000001400486404002058
:1033F0006C070000FEB501206D49002608803746A5
:10340000304681006B4A401C53586B4AC0B2545836
:103410008A181B19156A1469126B64191B199B18F9
:10342000644A02285350ECD36348002582698168BE
:10343000836B8918826AD21889188903090C009154
:10344000C269C1688918C26AC06B10180818800365
:10345000000C0190594A00995948914202D2012129
:10346000017000E0057057480078052801D1FFF78A
:1034700021FE504C083C2078312802D2401C20709C
:1034800000E025702078504A400001991152C8325E
:1034900001991152643A00991152464A121F5188FB
:1034A000118000985080814203D9081A02E065809B
:1034B00013E0401A3228FADA6088401C608080B23B
:1034C0000F280AD90120FEF7C1FF6420FFF760FF33
:1034D00060887D2109018842E9D83B490020C83134
:1034E00042008B5A401C9E19374BC0B264339A5A23
:1034F000D7193228F4D332213046FCF7F1FD86B2D9
:103500003248322106803846FCF7EAFD304980B265
:1035100008800090607832280FD1264F6570C8214E
:103520003868FCF7DDFD2B490880C8217868FCF776
:10353000D7FD294908803D607D606078401C60703F
:10354000264CD22E01D2258410E0E0880121C90347
:103550008842218904D940047143400C081A01E0D3
:10356000714308186421FCF7D1FD2084A0890099DB
:103570004843618940187D21C900FCF7C7FD81B22D
:10358000E183208C6425C82800D25F25484364214C
:10359000FCF7BCFD80B268436421FCF7A1FD6083A9
:1035A0000D480088E0840B4800886084FEBD000060
:1035B0000405002020000020E8030020260200006F
:1035C0002A0000202C0000203802002030000020BB
:1035D0002E0000203400002032000020A400002033
:1035E00010B5084901204880FFF784FCFFF71AFE58
:1035F000FFF762FC04480188002901D0491E0180C0
:1036000010BD0000040500203600002010B5084958
:103610002820888007488178002904D00021817003
:10362000FFF762FB10BD01218170FFF709FB10BDA0
:10363000040500200A00002010B503496420C8805A
:103640000248FDF743FC10BD040500209000002057
:10365000044903480881044900208883704700001A
:10366000B80B000004050020A400002010B5074C92
:10367000074900204300CA5A521EA24200D2CA5231
:10368000401CC0B20528F5D310BD0000FEFF0000AD
:103690000405002000200E4D0E4C06464100401C43
:1036A000C0B26E520528F9D30A4F3F1D267020780C
:1036B0004100695A002905D0401CC0B2207005287D
:1036C000F5D3F3E70006800D38588047EEE7000099
:1036D0000405002054000020000000000102030443
:1036E000010203040607080908370008000000204B
:1036F0006C0000000A2E0008743700086C000020DF
:10370000B40800001A2E00080000000000127A0021
:103710000000000000640000000000000000000045
:103720000000000000000000000000000000000099
:103730000000000000000000000000000000000089
:103740000000000000000000000000000000000079
:103750000000000000000000000000000000000069
:10376000F5330008E13500080D3600083936000849
:0437700051360008C6
:04000005080000B13E
:00000001FF
