:020000040800F2
:1000000048090020C5000008CD000008CF00000806
:1000100000000000000000000000000000000000E0
:10002000000000000000000000000000D1000008F7
:100030000000000000000000D3000008CD250008EB
:10004000D700000800000000D7000008D700000813
:10005000D7000008D7000008D7000008D702000822
:100060000000000091020008A1020008D70000086B
:10007000D7000008D7000008D700000800000000E3
:10008000D70000080000000000000000D7000008B2
:1000900000000000D7000008D7000008D7000008C3
:1000A00000000000D700000800000000652D0008D7
:1000B0000348854600F050F80048004745330008E3
:1000C000480900200448804704480047FEE7FEE74F
:1000D000FEE7FEE7FEE7FEE791260008B100000814
:1000E00030B50B46014600202022012409E00D46D0
:1000F000D5409D4205D31D469540491B2546954058
:1001000040191546521E002DF1DC30BD70B500249B
:100110002546002801DA01244042002901DA0125A0
:100120004942FFF7DDFFAC4200D04042002C00D036
:10013000494270BD10B5202A04DB0846203AD04061
:10014000002110BD0B46D340D0402024A21A91407C
:100150000843194610BD0000064C0125064E05E077
:10016000E36807CC2B430C3C98471034B442F7D3D8
:10017000FFF7A2FFB4390008D439000810B50146D2
:10018000406A426C50231A420AD1416C0122520249
:10019000114341640168CA681205920F05D020E03E
:1001A000C06B026B0846904710BD026A002A18D146
:1001B0000A68120715D58A6853070122002B09DB4C
:1001C0004B680C24A3434B60416C130299431143C9
:1001D000416406E0416C202319434164816C114362
:1001E000816400F0D7F910BD10B5406A416C40221F
:1001F00011434164816C04221143816400F0CCF905
:1002000010BD10B5406A00F0C6F910BDF8B504463F
:1002100000200090206881688907890F012905D195
:100220000168C9072CD1C168090429D48168154A1D
:10023000102611400125002915D1816829438160CC
:10024000124811490068FFF74BFF00E0401E009084
:100250000028FBD100F032FE07460CE000F02EFE35
:10026000C01B022807D9606C30436064A06C28432F
:10027000A0640120F8BD20680068C043C007EDD12C
:100280000020F8BD1700008040420F00040000204D
:1002900010B5024800F0ECFA10BD0000C0030020C9
:1002A00010B5034800F0E4FA024800F0E1FA10BD8E
:1002B000D80100201002002010B504686360436874
:1002C000102B036803D099600068C26010BD9A606B
:1002D0000068C16010BD10B50120400200F038FD7B
:1002E0000120400300F034FD0120800300F030FDC8
:1002F00010BD000002498A8A02438A8270470000CA
:10030000BC000020FEE7000006490020C861064846
:100310000169042211430161016940221143016115
:10032000704700008800002000200240064A00219B
:10033000D16106490A6902231A430A6148610869C2
:1003400040221043086170478800002000200240CE
:1003500010B5054B0022DA61044A136901242343D6
:100360001361018010BD00008800002000200240C1
:100370000949C868C206094803D5C26902231A435D
:10038000C261CA68520703D5C26901231A43C26118
:100390001420C86070470000002002408800002040
:1003A00070B5054600F08AFD0646104C0AE0681C50
:1003B00008D0002D04D000F081FD801BA84201D997
:1003C000032070BDE068C007F1D1E068800601D568
:1003D0002020E060E068C00602D4E068400703D552
:1003E000FFF7C6FF012070BD002070BD0020024055
:1003F000F8B505460446403528780026012808D07F
:1004000001202870206881688907890F012908D197
:1004100001E00220F8BD0168C9072AD1C1680904BA
:1004200027D4616CFF22013291430222114361649F
:10043000816892071143816000F040FD07460EE09D
:1004400000F03CFDC01B022809D9606C02218843E2
:10045000102108436064002028700120F8BD206846
:1004600080680028ECDB606C80088000401C6064C1
:1004700004E0606C2021084360640126002028709D
:100480003046F8BDF8B50025044640340095227882
:10049000012A39D00122227003689E68760767D44A
:1004A000384F4E68BE424DD09E6A0F78BA40164310
:1004B0009E620123826B1B079A421FD0012A1DD026
:1004C000022A1BD0032A19D0042A17D0052A15D0D6
:1004D000062A13D0072A11D002688B68566976075E
:1004E000760FB3420AD05369DB08DB005361006822
:1004F00042690B7A5B075B0F1A4342610A68102A54
:1005000004D0112A02D038E00220F8BD1E488368CA
:10051000102A07D00122920513438360086810282F
:1005200003D02AE00122D205F6E7194817490068EE
:10053000FFF7D6FD0A21484300E0401E0090002846
:10054000FBD11AE0986A0E78B2409043986209682D
:10055000102901D0112910D10B488268102904D02C
:10056000012189058A43826007E00121C905F9E775
:10057000416C20221143416401250020207028464F
:10058000F8BD0000011000000027014040420F00AC
:10059000040000207047704770470000F8B5002540
:1005A0000446002803D0606C002802D008E0012037
:1005B000F8BD0020A06440210855204600F0A8F8AE
:1005C000606C1022104270D12068816849076CD499
:1005D000616C13019943022319436164816889079F
:1005E000890F012905D10168C9070FD1C168090424
:1005F0000CD4C1681826B143A6683143C160206895
:100600000169666889008908314301612068C16811
:100610003D4E3140C160A069E1698003C9030843D0
:10062000216A4E033043666B012E02D00126360349
:1006300000E000263043E66830432669022E08D0E9
:1006400000263043266B76003043666A012E02D0C6
:100650000BE00426F5E7002928D0616C2026314301
:100660006164A16C01263143A164A16A0E46FF3E7C
:10067000C23E02D0E66A314308432168CE68064391
:10068000CE600126A16B3607B14213D0012911D0EB
:1006900002290FD003290DD004290BD0052909D038
:1006A000062907D0072905D010E028E00121090418
:1006B0000843DAE721684E69F608F6004E612168C2
:1006C0004E69278F7F077F0F3E434E612168C968BF
:1006D0000E4E3140814207D10020A064606C80083A
:1006E0008000401C606408E0606C984310436064C4
:1006F000A06C01210843A06401252846F8BD606C68
:1007000010436064F8E700001902FEFFE7FF3F8333
:10071000F0B505460068174987B0884228D11648C9
:100720008169471539438161806900263840059009
:10073000A320009003200190092069460296C0067C
:1007400000F012FB0D480E4C41C4A76080202660CB
:1007500060600001E0602020666120610848083C7C
:1007600000F074F9002801D0FFF7CCFDEC6365625E
:1007700007B0F0BD00240140001002400800024014
:10078000C0030020F7B504460068002580684007D4
:100790003DD426464036307801280AD001273770EC
:1007A000E069012807D02046FFF730FD050002D0A0
:1007B0002EE00220FEBD606C16490840FF21013189
:1007C000084360640020A0643070E16B12488862C6
:1007D000E16B1248C862E16B1148086321681C2074
:1007E0000860206841681022114341602068C16898
:1007F0003943C1602168E06B4031029B019A00F0EF
:100800004FF92068816804221143816000E00225CD
:100810002846FEBDFEF1FFFF7D010008030200082F
:10082000E9010008F8B50446006801684908490074
:10083000016000F043FB00272546064620350EE008
:1008400000F03CFB811B7D20C000814207D9606B1A
:10085000202108436063032068702F70F8BD206872
:100860000068C007ECD1012068702F700020F8BD2F
:10087000F8B5044674480168734A734E724F0832E3
:100880002068D3141C363037904201D1082210E082
:10089000B04201D180220CE0B84201D11A4608E0F2
:1008A000694A4432904202D10122D20301E001227E
:1008B000D20425461140203500292ED00168C943B5
:1008C00009072AD401680822914301605E49206823
:1008D0000831884201D1082010E0B04201D18020C7
:1008E0000CE0B84201D1184608E05749443188422B
:1008F00002D10120C00301E00120C0045249486038
:10090000606B012108436063042068700020287038
:10091000216B002901D0204688474B4802684A498C
:10092000206808310B15884201D1042110E0B04243
:1009300001D140210CE0B84201D1194608E04249FA
:100940004431884202D10121890301E00121890457
:100950000A422BD00168C943490727D40168890698
:1009600003D4026804218A430260374920680831B1
:10097000884201D1042010E0B04201D140200CE0B7
:10098000B84201D1184608E02F494431884202D1CB
:100990000120800301E0012080042B4948601120E0
:1009A0006870E16A002901D020468847264802681D
:1009B000254920680831884201D1022311E0B04264
:1009C00001D120230DE0B84202D101235B0208E0EF
:1009D0001D4B4433984202D101235B0301E0012304
:1009E0005B041A422ED00268D24392072AD40268CE
:1009F000920603D4026802239A4302602068884268
:100A000001D1022011E0B04201D120200DE0B84216
:100A100002D10120400208E00B494431884202D152
:100A20000120400301E00120400407494860606B59
:100A300060630120687000202870A16A002901D03D
:100A400020468847F8BD000000000240F0B50028AD
:100A500006D0014620314A780024002A02D002E064
:100A60000120F0BD0C7002224A7005682B680B4A09
:100A700086681340426807693243C6683E43324382
:100A80004669324386693243C66932431A432A6053
:100A90004463012048700020F0BD00000FC0FFFF3C
:100AA000F8B5044620300578012D1ED001250570CB
:100AB0000226467020680768AF4307602046FFF7AC
:100AC000FBFB206801683143016020680168042253
:100AD0001143016020680168082211430160206809
:100AE0000168294301600020F8BD0220F8BD000024
:100AF000F8B5054623480F46017E012601290BD093
:100B0000012101762868204C012807D02046FFF7F4
:100B100047FC002813D030E00220F8BD2046FFF744
:100B20003FFC002829D1FFF7EFFB2046FFF738FCF8
:100B30000646164801690422914301611DE0002028
:100B4000C04338606C6812E02046FFF7EFFB0E48A8
:100B5000FFF726FC06460D48026902218A4302611E
:100B6000002E01D03C6008E0012080022418A86813
:100B7000810268680818A042E6D802480021017680
:100B80003046F8BD8800002050C30000002002401D
:100B90000348016980221143016100207047000071
:100BA00000200240F0B51FB407461A480024017E19
:100BB00015461E46012907D0012101761648FFF788
:100BC000EFFB002803D020E0022005B0F0BD012F8C
:100BD00002D0022F00D00427220128463146FFF719
:100BE000A9FA81B2019862001018FFF7B1FB0A4818
:100BF000FFF7D6FB09490A69520852000A6100282A
:100C000003D1641CE4B2BC42E6D3024900220A7656
:100C1000DBE700008800002050C3000000200240F5
:100C200005480169090605D5044941600449416048
:100C300000207047012070470020024023016745D3
:100C4000AB89EFCDF8B50126C11FB603FF39FA39DC
:100C50001DD03649374F0D783549FF2291323B88F8
:100C60000C68B04221D1002D15D05B1F98B238809E
:100C7000904200D23A8038884200E2620968C86334
:100C80002D490A2008700120FFF734FBF8BD02F05F
:100C9000EFFA0420F8E7294803885B1F9BB2038022
:100CA000934200D202800088E6E701267603B04234
:100CB000ECD1012D09D022480178491CC9B201703C
:100CC000C829E3D9C8210170F8BD1E4805881E480F
:100CD0002E461E3EB34202DD0678002E0AD00122C7
:100CE00002703A881E35AA4202D20378012B0DD039
:100CF0000021E8E75B1E9BB23B80934200D23A8022
:100D00003A885300E3620B68DA63EAE7521C92B256
:100D10000E483A8080891E30904200D23880388850
:100D20000B684200DA620968C863F8BD420000201F
:100D3000480400204E0000203F0000205200002008
:100D4000410000205000002008000020BC000020CE
:100D500010B504494A69024202D04861FFF772FFA8
:100D600010BD000000040140F8B500238DE001240F
:100D70009C40A44622407DD04C68022C01D0122C0D
:100D80000CD1DC08A40027183C6A5D07ED0E0F2685
:100D9000AE40B4430E69AE4026433E6205685E0035
:100DA0000324B4400F79A543BF07BF0FB7402F43BB
:100DB00007604D68012D05D0022D03D0112D01D003
:100DC000122D0ED18568CF68A543B7402F438760A9
:100DD00047686546AF430D79ED06ED0F9D403D43F5
:100DE0004560C568A5438C68B4402C43C4604C681A
:100DF000E40049D5284CA56901263543A561A469BD
:100E00009D0834400094254CAD002F19BC689D0707
:100E10002E0F0F25B540AC430925ED06A84201D1A0
:100E200000250FE01E4DA84201D101250AE01D4D0D
:100E3000A84201D1022505E01B4DA84201D103259E
:100E400000E00525B5402543BD60184C25684E6877
:100E50009543F60300D51543256065684E689543B4
:100E6000B60300D515436560A5684E689543F60244
:100E700002D500E008E01543A560E5684E6895439B
:100E8000B60200D51543E5605B1C0A681446DC40D9
:100E900000D06CE7F8BD00000010024000000140E7
:100EA0000004004800080048000C0048000401400D
:100EB000002A01D081617047816270470148006853
:100EC000704700000000002070B504000CD02068BE
:100ED000C168C943C90709D1C168C943890705D495
:100EE000C068C043400701D4012070BD607C002869
:100EF00003D12074204600F03DF802206074216880
:100F00001A480860206841686268C908C90011432E
:100F1000416020688168A268090B09031143816060
:100F20001348E168814203D121680969814218D0E0
:100F3000FFF7C4FF7D260546F60007E0FFF7BEFF7A
:100F4000401BB04202D90320607470BD2068C068A5
:100F50000028F3D120680169E268090B09031143F5
:100F6000016101206074002070BD00005555000033
:100F7000FF0F000070470000F8B50446007C012810
:100F800008D00126267402206074FFF797FF0546FB
:100F900000270CE00220F8BDFFF790FF411B7D20E9
:100FA000C000814203D9032060742774F8BD206813
:100FB000C068C0438007EFD52168034808606674A5
:100FC00027740020F8BD0000AAAA0000F8B5044666
:100FD000007C012812D00126267402206074164974
:100FE000E068884202D121681448086021681448EA
:100FF0000860FFF763FF054600270CE00220F8BDFC
:10100000FFF75CFF411B7D20C000814203D9032014
:1010100060742774F8BD2068C168C943C90707D147
:10102000C168C943890703D4C068C0434007E7D5F6
:10103000667427740020F8BDFF0F0000AAAA000004
:10104000CCCC000002480168491C016070470000D8
:101050000000002010B5064801681022114301600D
:10106000002000F007F800F017F8002010BD000085
:101070000020024010B5044600F02CF97D21C90083
:10108000FFF72EF800F058FB00222146501E00F01A
:1010900033F8002010BD000008B50C48816901221A
:1010A0001143816180691040002200901146501F59
:1010B00000F022F800221146901E00F01DF80022D8
:1010C0001146501E00F018F808BD00000010024044
:1010D000C106C90E01208840014908607047000020
:1010E00080E100E0C106C90E012088400149086086
:1010F0007047000000E100E010B501F0E3F910BD19
:10110000F8B5054600682C4CC00340D5E1692004C1
:101110000143E161E169294E014000913068A11568
:1011200008433060FFF7CAFE074604E0FFF7C6FE3B
:10113000C01B642821D83068C005F7D5206A032673
:101140003602696830403140884220D0206A226AE5
:10115000B043012109040A432262226A8A432262BF
:10116000206280070ED5FFF7A9FE074607E0FFF7CC
:10117000A5FEC11B1248814201D90320F8BD206A97
:101180008007F4D5206A6968B04308432062287854
:10119000C00705D0206BA968800880000843206341
:1011A0002878800605D5206B10218843E96808431C
:1011B00020630020F8BD00000010024000700040D5
:1011C00088130000F8B505463F480E460068C00782
:1011D000C00FB0420AD23C48016849084900314377
:1011E00001600068C007C00FB0425CD12878374C5E
:1011F000800705D56068F0218843A96808436060CE
:101200002878C0073FD06868012813D021680228D9
:1012100013D08907002946DA6168890889000143EB
:101220006160FFF74BFE6968074601290DD002296E
:1012300017D024E021688903ECE78901EAE7FFF78A
:101240003DFEC11B2248814217D860680007800F0D
:101250000128F4D117E0FFF731FEC11B1C48814281
:101260000BD860680007800F0228F4D10BE0FFF76D
:1012700025FEC11B1648814201D90320F8BD6068D4
:101280000007800FF3D110480168C907C90FB142A8
:101290000BD9016849084900314301600068C00763
:1012A000C00FB04201D00120F8BD2878400706D514
:1012B0006068072109028843E968084360600020EC
:1012C000FFF7D8FE0020F8BD0020024000100240C9
:1012D0008813000010B500F021F805494968054A57
:1012E0000906090F515CC8400349086010BD0000A1
:1012F00000100240A43900080400002010B5FFF7D8
:10130000E9FF04494968044A4905490F515CC8404E
:1013100010BD000000100240A439000810B512A34F
:101320000FCB88B06C460FC413A30FCB0FC4164964
:101330004A680C20134603401448042B0FD0082B96
:101340000DD193021B0F6C46E45CC96A04AB09071C
:10135000090F595CD20304D5FEF7C2FE604308B002
:1013600010BD0B486043FAE70203040506070809AD
:101370000A0B0C0D0E0F10100102030405060708DE
:10138000090A0B0C0D0E0F100010024000127A001B
:1013900000093D00F8B504460078DD4DC0075CD07B
:1013A00068680007800F012807D068680007800F71
:1013B000022809D16868C00306D5286880034CD587
:1013C000606800287BD048E0286801263604B043D6
:1013D00028602868B700B8432860FFF76FFD0090C9
:1013E00005E0FFF76BFD0099401A642868D828686B
:1013F0008003F6D4606801280AD0002801D00528AF
:1014000008D029682846B14329602968B94307E014
:10141000284603E02968284639432960016831439A
:101420000160606800280CD0FFF748FD064604E024
:10143000FFF744FD801B6428D8D828688003F7D5BF
:101440000BE0FFF73BFD064604E0FFF737FD801B8E
:101450006428CBD828688003F7D420780127800738
:1014600000283DDA68680007800F07D06868000729
:10147000800F022809D16868C00306D42868800755
:1014800015D5E06801281AD111E0E0680028286825
:1014900017D038432860FFF711FD064604E0FFF738
:1014A0000DFD801B0228A1D828688007F7D5286881
:1014B000F82188432169C9000843286010E025E12C
:1014C000CCE0400840002860FFF7F8FC064604E046
:1014D000FFF7F4FC801B022888D828688007F7D41F
:1014E0002078000721D5206A0028686A0ED038438A
:1014F0006862FFF7E3FC064604E0FFF7DFFC801BB1
:10150000022899D8686A8007F7D50EE040084000A5
:101510006862FFF7D3FC064604E0FFF7CFFC801BB0
:10152000022889D8686A8007F7D420780426400703
:10153000002866DAE969B0060143E961E96901401A
:10154000744800910168821511430160FFF7B6FCF1
:10155000009005E0FFF7B2FC0099401A64287DD89E
:101560006C480068C005F5D5286A4008400028622C
:10157000286AB0432862FFF7A1FC009006E0FFF75D
:101580009DFC0099411A6448814267D8286A800707
:10159000F5D4A06801280BD0002801D0052809D077
:1015A000296A2846490849002962296AB14307E0A7
:1015B000284603E0296A284631432962016A3943F3
:1015C0000162A06800280ED0FFF778FC009006E0CA
:1015D000FFF774FC0099411A4F4881423ED8286AAF
:1015E0008007F5D50DE0FFF769FC009006E0FFF7F6
:1015F00065FC0099411A484881422FD8286A800723
:10160000F5D42078C00635D5606901280CD0401D7E
:10161000686B24D030436863686B4008400068639F
:10162000FFF74CFC064622E0686B30436863686B4A
:1016300038436863FFF742FC064604E0FFF73EFCD0
:10164000801B02285BD8686B8007F7D5686BF82190
:101650008843A169C900084368630BE04FE0B043C9
:101660006863F3E7FFF72AFC801B022847D8686B02
:101670008007F7D4606A002846D069680907890F97
:10168000022943D0012636060228286805D0B04337
:101690002860FFF713FC044633E0B0432860FFF7EF
:1016A0000DFC074604E0FFF709FCC01B022826D802
:1016B00028688001F7D4E86A216B0009000108431B
:1016C000E862A16AE06A084369683D221204914316
:1016D00008436860286830432860FFF7EFFB044642
:1016E00004E0FFF7EBFB001B022808D82868800104
:1016F000F7D509E0FFF7E2FB001B022801D9032020
:10170000F8BD28688001F5D40020F8BD0120F8BD9F
:1017100000100240007000408813000004220449B9
:101720000428086902D09043086170471043FBE722
:1017300000E000E070470000094910B5401E8842F3
:1017400001D9012010BD074C60610321081F00F082
:10175000B9FE0020A06107202061002010BD00001C
:10176000FFFFFF0000E000E010B5FFF7E3FF10BD52
:1017700070B502462032137E012B15D0012313765B
:101780000224547630C94E682C430D6800683543F6
:101790002C438D682C43CD6809692C430C43446469
:1017A00053760020107670BD022070BD70B50246E1
:1017B0002032137E012B1BD0012313760224547692
:1017C000046865687026B5436560046865680E68DE
:1017D000354365600468A5688026B543A560006848
:1017E000846849680C43846053760020107670BD8D
:1017F000022070BD10B504460068042200F0BBFF53
:101800002068416C0122D2031143416420680168C1
:10181000012211430160002010BD000070B5044694
:101820000068002200F0A7FF2068036A0C490D4AF7
:101830000B4207D1036A134204D1436C0125ED0327
:10184000AB4343642068036A0B4206D1016A11422C
:1018500003D10168490849000160002070BD000003
:10186000111100004404000070B5040005D02546A5
:101870002035687E002802D006E0012070BD0020DF
:101880002876204600F00AF802206876211D20689C
:1018900000F02CFF01206876002070BD00B5144ACE
:1018A0000168144887B0914216D18269C1140A4375
:1018B000826180690840059040200090022001214B
:1018C0000291019000210490039109206946C0060D
:1018D000FFF74AFA07B000BD074A9142FAD1C26940
:1018E00089150A43C261C06908400590F2E700000B
:1018F000002C01400010024000200040F8B50546D1
:1019000004462035287E012817D001272F76022093
:101910006876226890687726FF23B0431B029843BD
:1019200090600868502837D00EDC202857D006DC9D
:1019300000284ED0102840D14EE00220F8BD3028BB
:1019400050D0402839D13CE060282DD0702817D0E5
:1019500001221203801A0ED090422ED1CB684A6821
:101960008968206800F012FF2068816801229203D4
:101970001143816021E020688168C908C900F8E747
:10198000CB684A688968206800F000FF2168886891
:10199000B0433043886010E0CA684968206800F0AE
:1019A000EBFF5021206806E0CA684968206800F013
:1019B000F4FF6021206800F0F4FE6F7600202876A6
:1019C000F8BDCA684968206800F0D6FF4021206849
:1019D000F1E700212068EEE710212068EBE72021E5
:1019E0002068E8E730212068E5E70000F0B50068EE
:1019F0001349092700250224FF0685B088420FD12C
:101A000001260094019469460E48029603950494B9
:101A1000FFF7AAF960026946039551C1049408E0F2
:101A20000949884209D11020694631C10420039533
:101A3000049069463846FFF797F905B0F0BD0000FD
:101A4000002C01400004004800200040F8B5064684
:101A500004462036307E0D4601280DD00120307618
:101A6000022070760427002A08D0042A16D0082AFB
:101A70002AD00C2A4DD137E00220F8BD206800F0B2
:101A800099FE20688169082211438161206881697B
:101A9000B9438161206881692A6912E0206800F0F9
:101AA000C5FE206882690121C9020A43826120685B
:101AB00081690122920291438161206881692A69CA
:101AC00012021143816124E0206800F0E9FE2068E1
:101AD000C26908210A43C2612068C169B943C16172
:101AE0002068C1692A6912E0206800F015FF2068AB
:101AF000C1690122D2021143C1612068C26901217A
:101B000089028A43C2612068C1692A6912021143AD
:101B1000C1610120707600203076F8BD70B50400F8
:101B200005D025462035687E002802D006E0012039
:101B300070BD00202876204600F00AF80220687662
:101B4000211D206800F0D2FD01206876002070BDC4
:101B50007047000010B504460068012200F000FE46
:101B60000A482168814205D00948814202D00948CB
:101B7000814204D1486C0122D2031043486420689A
:101B80000168012211430160002010BD002C0140BA
:101B9000004401400048014030B50446006800227E
:101BA00000F0DEFD144A134821689310814205D0ED
:101BB0001248814202D0124881420AD1086A10427A
:101BC00007D1086A184204D1486C0125ED03A843E7
:101BD00048642068016A114206D1016A194203D1A2
:101BE0000168490849000160012020346076002026
:101BF00030BD0000002C01401111000000440140E4
:101C00000048014010B504460068816840229143B5
:101C10008160606E002801D0FEF704FE0120603470
:101C20006072002010BD704770B502680446D0692C
:101C30000121C30720466030002B07D01368DB0565
:101C400004D51162E26E0A43E26641722268D369EA
:101C500002259E070423002E07DA9668F60704D0B3
:101C60001562E26E1A43E26641722268D66976070F
:101C700007D59668F60704D01362E26E2A43E2663F
:101C800041722268D36908251B07002B07DA936885
:101C9000DB0704D01562E26E2A43E2664172E06E11
:101CA000002802D02046FFF7BEFF2068C1698906E0
:101CB00009D50068800606D5204600F04FFF206851
:101CC0008169294381612068C169090605D50068D9
:101CD000000602D5204601F00DF82068C1694906CA
:101CE00005D50068400602D5204600F024FF70BDEF
:101CF00070B5040005D025466035687A002802D00A
:101D000006E0012070BD00202872204600F026F871
:101D10000220687220680168490849000160204675
:101D200000F064FF0128EDD0606A002802D0204650
:101D300000F046FE206841680122D20291434160D2
:101D4000206881680822914381602068016801222F
:101D500011430160204600F098FE70BDF0B50646C4
:101D60000068274987B0884248D126488269012106
:101D700089030A4382618069084005900C20009025
:101D80000220019001210320039002910491092077
:101D90006946C006FEF7E8FF1B481C4D002411C52C
:101DA0002C60AC60EC6080272C616F606C61174820
:101DB000083DFEF74BFE002801D0FEF7A3FA75663A
:101DC0006E62124D1048383D143828601020291DCD
:101DD00091C12C616C61AC612846EC61FEF736FE66
:101DE000002801D0FEF78EFA3566002211461B202E
:101DF0006E62FFF781F91B20FFF774F907B0F0BDA1
:101E00000038014000100240300002401002002063
:101E1000F8B5054604466035687A012802D0687A2C
:101E200012282FD1002929D0002A27D0287A01286A
:101E300028D0012028725820616502530026E666EA
:101E4000687A12281CD022206872636E0E4898624D
:101E5000636E0E48D862636E0D4818631346276898
:101E60000A4639462431606EFEF71AFE2068816802
:101E70004022114381602E720020F8BD0120F8BD80
:101E80003220E1E70220F8BDBD2A0008F32A00084D
:101E90009B2A000870477047F8B505460446603530
:101EA000687A012802D0687A222833D100292DD0FF
:101EB000002A2BD0287A01282CD001202872204615
:101EC0004030E164028242820026E666687A222877
:101ED0001ED012206872236E0F489862236E0F483E
:101EE000D862236E0E481863276813463A46283294
:101EF000206EFEF7D5FD21684020086220688168C9
:101F00008022114381602E720020F8BD0120F8BDAF
:101F10003220DFE70220F8BDFD2A00082D2B000843
:101F20009B2A000870477047F0B581480421814B17
:101F3000827805E04418455C6478891C5C55C9B218
:101F40008A42F7D800210A464254491CC9B23229B4
:101F5000FAD3784878492030C27C837C1202D218A8
:101F600092B28A809446427D037D1202D21895B2C5
:101F7000CD80C27D837D1202D21894B20C81427E44
:101F8000037E1202D21893B24B81C27E867E120269
:101F9000921992B28A81467C077C3602F619B6B253
:101FA000CE81498B8E4207D0634F310704D17E83A7
:101FB00039780126314339705F4966460F8ABC453E
:101FC00008D037073F0F012F04D10E820F78022669
:101FD00037430F704E8AB54208D02E07360F022EB7
:101FE00004D14D820D7804273D430D708D8AAC429B
:101FF00008D025072D0F032D04D18C820C780825DD
:102000002C430C70CC8AA34208D01C07240F042C4C
:1020100004D1CB820B78102423430B700B8B9A4294
:1020200008D013071B0F052B04D10A830A7820233D
:102030001A430A700A783F2A04D0CB78012B18D1B2
:10204000002A16D00122CA703F220A704A8B130957
:102050003A4A13800B8A1B0953804B8A1B099380D1
:102060008B8A1B09D380CB8A1B091381098B090931
:102070005181C17882782F4C090251182A3C218065
:10208000417902790902511861808079002800D0D5
:102090002071284B0125403398782D03002801D06A
:1020A000E08002E02846FEF725F958790102187908
:1020B00040180004000C01D0208102E02846FEF701
:1020C00019F9D8799979000208180004000C01D098
:1020D000608102E02846FEF70DF9587A197A00026D
:1020E00008180004000C01D0A08102E02846FEF789
:1020F00001F9D87A997A000208180004000C01D07E
:10210000E08102E02846FEF7F5F8587B197B0002D3
:1021100008180004000C01D0208202E02846FEF7D7
:10212000E9F8E088022801D20220E080F0BD00003A
:10213000F2040020E60000200C000020240500200E
:1021400010B5124801783F2903D10021017000F039
:10215000B1FE0F4CA0788007800F09D0012804D071
:10216000022804D003280AD004E02D2000E04320F8
:1021700001F0F8F9A078400603D5012002E06420C0
:10218000F6E7002000F014FA10BD00000C0000205B
:10219000BC0000203EB526492648002412C0046039
:1021A00044600125046185604461C4618561856284
:1021B000C56204214462C1600838FEF7EFF90028C7
:1021C00001D0FEF79FF8012000030094019007243E
:1021D000694618480294FEF755F9002801D0FEF729
:1021E00091F8694613480095FEF74CF9002801D094
:1021F000FEF788F80520009069460E48FEF742F980
:10220000002801D0FEF77EF869460A480094FEF7E0
:1022100039F9002801D0FEF775F80648FEF7E8F80E
:102220000449142284310348FEF7ACFA3EBD000095
:10223000002401407403002008B50E4841690122C2
:10224000114341614069104000220090114609206D
:10225000FEF752FF0920FEF745FF0920FEF738FF81
:10226000002211460A20FEF747FF0A20FEF73AFF38
:1022700008BD00000010024070B5234886B04269D6
:10228000012189050A43426142690A400592426977
:1022900049110A43426142690A4005924269490074
:1022A0000A4342614069194D08400590002203210C
:1022B0002846FEF7FDFD0021032001240291039131
:1022C0000090019469462846FEF74EFD60020926FB
:1022D0000F4DF60600906946019502943046FEF7D0
:1022E00043FD032040030090694601950294304667
:1022F000FEF73AFD002211460720FEF7FDFE0720FB
:10230000FEF7F0FE06B070BD001002400014004859
:102310000000111010B50848064901600021416015
:102320000649C1608160FEF7CFFD002801D0FDF7AE
:10233000E9FF10BD00300040A8000020FF0F0000A2
:1023400010B51649164888B0002412C00F21046049
:10235000C901846041600838FFF786FA002801D07F
:10236000FDF7D0FF0E48FFF7D9FB002801D0FDF79D
:10237000C9FF602000900F2080010190029400228C
:10238000694604940648FFF761FB002801D0FDF779
:10239000B9FF0348FFF72AFB08B010BD002000403A
:1023A0008404002070B53048304D94B0002411C52D
:1023B0002C601920AC604001EC6068602B48083D3F
:1023C000FFF752FA002801D0FDF79CFF01263603E3
:1023D0000EA926480E96FFF791FA002801D0FDF7C6
:1023E00091FF2248FFF79AFB002801D0FDF78AFFF2
:1023F000129412A91D481394FFF7D8F9002801D0B0
:10240000FDF780FF732003900120009440030194A6
:10241000059004960294694606941448FFF7A8F9BB
:10242000002801D0FDF76EFF60200790FF2091305B
:10243000089002200990082002460A900B940C9400
:1024400007A90D940948FFF701FB002801D0FDF70B
:1024500059FF0648FFF7CAFA28680168802211432D
:10246000016014B070BD0000002C01404804002041
:1024700010B5134C114820604B2000026060002012
:10248000A060E0602061A0610C21E06161612062D8
:10249000702161620121A0634903E163C9012164E4
:1024A00060642046FFF724FC002801D0FDF72AFFD6
:1024B0002068016810221143016010BD00380140FE
:1024C000680100208307FF22DB0E9A408907090E6E
:1024D000994000280BDA0007000F083883080848E5
:1024E0009B001818C36993430B43C361704783086B
:1024F00004489B001B1818689043084318607047F5
:1025000000ED00E000E400E07D210D48C9000181FC
:102510000C4941819121C90081811021C1800A4962
:10252000C1814900018200210848054A018008460E
:102530002A321154401CC0B27F28FAD370470000E1
:10254000BC000020B80B0000140500005200002061
:1025500014498A8A0846130A8A30C3708270CA8A6C
:10256000130A43710271104A1288130AC3718271EF
:102570004A8C130A43740274CA8B130A437302739E
:102580004A8B130A437202720A7F8272CA8C0275E6
:102590000A8D130AC3758275098C0A0AC273817386
:1025A00070470000BC0000204600002000887047F3
:1025B00010B5054B012805D0002201211846FEF771
:1025C00077FC10BD0122F8E70014004810B50D4853
:1025D0007D224188D200914202D2491C41800AE00A
:1025E000002141800848094B028C521C92B202849F
:1025F0009A4200D10184FEF725FDFFF7B5F801F0FE
:102600009BF910BD08000020BC000020FFFF000067
:1026100070B596B001251A20059500901020049001
:10262000069005200024C004039502260B9009960D
:1026300008950A940C946846FEF7ACFE002800D07A
:10264000FEE707200D900F9401210E9610940DA81F
:10265000FEF7B8FD002800D0FEE711A811951394ED
:10266000FEF74EFD002800D0FEE7FEF733FE7D2189
:10267000C900FDF735FDFFF75FF80420FFF74EF8BE
:1026800000221146501EFEF737FD16B070BD000047
:10269000134801680122114301604168114A114049
:1026A00041600168104A11400160016801229204F2
:1026B0009143016041683F22120491434160C16A25
:1026C00009090901C162016BFF22143291430163C0
:1026D000416B490849004163002181607047000057
:1026E000001002400CB8FF08FFFFF6FE70B502684C
:1026F000164B174D984201D0A84204D114467026BB
:102700004A68B4432243134C134E984208D0A8425F
:1027100006D0124DA84203D0A04201D0B04204D14D
:1027200003252D02AA43CD682A4302608A68C2624B
:102730000A688262984203D0A04201D0B04201D11F
:10274000096901630121416170BD0000002C014055
:1027500000040040004401400048014000200040C7
:1027600010B50123046A8B409C430462036A8A40CB
:102770001343036210BD10B50423046A8B409C43CD
:102780000462036A8A401343036210BD30B5846853
:10279000FF252D021B021343AC430B4323438360ED
:1027A00030BD826870239A430A4307210A4382603E
:1027B00070470000F0B5026A520852000262056AD2
:1027C000436882697024A24392080C689200144303
:1027D000022295438A68134E2A43114DA84204D021
:1027E000B04202D0104FB84206D10827BA43CF6892
:1027F0001743042297433A46A84204D0B04202D07D
:10280000094DA84206D103252D02AB434D691D4356
:102810008B692B4343608461496841630262F0BD68
:10282000002C0140004401400048014070B5026A9C
:1028300010239A430262046A4368826973252D0259
:10284000AA430D682D021543202294438A68120181
:102850002243104CA04208D11446CA688026B443D3
:10286000120122434024A24305E00B4CA04202D0B7
:102870000A4CA04208D10324A402A3434C69A4003B
:102880001C438B699B0023434360856149688163D6
:10289000026270BD002C014000440140004801402C
:1028A00070B5026AFF2301339A430262046A4368E7
:1028B000C2697025AA4392080D689200154301224F
:1028C000520294438A6812022243104CA04207D15C
:1028D000C414A243CC68240222430615B24305E087
:1028E0000B4CA04202D00B4CA04208D1032424037D
:1028F000A3434C6924011C438B691B0123434360A0
:10290000C5614968C163026270BD0000002C0140CE
:10291000004401400048014030B5026A01231B0316
:102920009A430262056A4268C36973242402A3437E
:102930000C6824021C4301235B039D438B681B032B
:102940002B430A4DA84205D0094DA84202D0094D9B
:10295000A84205D10125AD03AA434D69AD012A4323
:102960004260C46149680164036230BD002C0140CB
:10297000004401400048014030B5036A046A64081D
:10298000640004628469F025AC43120122430A24E6
:10299000A3430B438261036230BD30B5036A102448
:1029A000A34303628469036A0F252D031203AC431A
:1029B0002243A024A343090119438261016230BD6F
:1029C00010B5818CC90707D001684A6801235B04F0
:1029D0009A43836A1A434A60818C890707D5016844
:1029E0004A6801231B049A43C36A1A434A60818CD4
:1029F000490707D501684A6801239B049A43036B82
:102A00001A434A60818C090707D501684A68012387
:102A1000DB039A43436B1A434A60818CC90607D58E
:102A20000268916801231B039943836B19439160EA
:102A3000818C890607D501688A6801235B039A4364
:102A4000C36B1A438A60818C490612D503685A68A1
:102A500001210905046C8A4322435A60026C8A42B0
:102A600007D10268516803235B059943436C1943FE
:102A70005160818C090607D501684A680123DB048F
:102A8000806C9A4302434A6010BD0021C166012256
:102A90006030427201720846704710B5406A0022E9
:102AA000014640314A834A82012269210A54C16E9B
:102AB00010221143C166FFF7B6F810BD10B50146EC
:102AC0000968406A096889060ED400225A210A5210
:102AD00001688A6840239A438A60014660314A7AD5
:102AE000322A04D001224A72FFF7D4F910BD122213
:102AF000F9E710B5406AFFF7CEF910BD10B50146F1
:102B00000968406A096889060DD4002252210A52D8
:102B100001688A6880239A438A60006801684022BD
:102B20001143016010BDFFF7FDF910BD10B5406AFB
:102B3000FFF7F9F910BD10B501680A6840239A4300
:102B40000A60014660314A7A322A05D001224A726F
:102B5000FFF7E8F9002010BD2222F8E770B5014622
:102B60004031034660338A8B5C7A222C04D05C7A35
:102B7000322C01D0022070BD012584682D03AC42A7
:102B800002D10469002C0DD00468A48C1440426D5D
:102B9000551C456514704A8B521E1204120C4A8350
:102BA00009D01EE00568446DAD8C15402580426D4E
:102BB000921C4265EFE701680A682024A2430A607C
:102BC000597A32290FD001680A68E400A2430A60EA
:102BD00001688A68520852008A6001215972FFF721
:102BE00059F9002070BD1221F8E70000F8B504463D
:102BF0002369A268E6691A43636910213343002000
:102C000026681A4333680546364F3B40134333600A
:102C100023685A6803263603B243E66832435A6093
:102C2000236AA26926681A43B3680B273F02BB4395
:102C30001343B3602C4A126B9207920F06D0012AFD
:102C400008D0022A08D0032A07D101E0002104E0BD
:102C5000022102E0042100E008210122E369D203FD
:102C6000934220D100290CD002290DD0042911D083
:102C7000082914D00125010909010007400F084364
:102C80002DE0FEF73BFB07E018486168FDF728FAE6
:102C900080B2F0E7FEF742FB40006168F6E70120F2
:102CA00000046168F2E7002908D0022909D004294C
:102CB0000DD008290FD001252846F8BDFEF71EFBD0
:102CC00007E00B486168FDF70BFA80B207E0FEF7FA
:102CD00025FB6168F7E710466168FDF701FA216896
:102CE000C860E9E7F369FFFF001002400024F40028
:102CF00000127A00014660314A7A122A04D0497AD9
:102D0000322901D002207047014640314A8A002A08
:102D100012D0012382681B039A4202D10269002A61
:102D200015D0C26C531CC364006812780285488AAF
:102D3000401E48820020704701680A6880239A4339
:102D40000A6000680168402211430160F2E7C26C2A
:102D500003681288D205D20D1A85C26C921CC26417
:102D6000E5E7000010B50B48FEF75EFF0948006874
:102D7000C169C943C9060BD4102101620648006825
:102D800040683221081A0549087005490120087079
:102D900010BD000068010020100200203C0000204F
:102DA0003D00002070B5254CA078002801D0401EC1
:102DB000A07023480178012930D1002101702148F9
:102DC0000A4601250421837805E0465C4D2E00D992
:102DD0000025891CC9B28B42F7D8002104E0465C6B
:102DE000B218491CD2B2C9B28B42F8D80178412935
:102DF0000CD140784B2809D1002A07D1012D05D1EB
:102E0000FFF792F8FFF79CF93220A0700E48FEF70A
:102E1000F9FE32220B490C48FEF7FAFFA078192878
:102E20000AD20948FEF764FFA078002804D100F018
:102E30001FFA0820FDF75EFA70BD00000C000020AC
:102E40003D000020F20400206801002070B5FFF76B
:102E50007FFB1649412008704B204870144800221F
:102E6000C488134D6000001D88708C30C3B2CA70D6
:102E700010462A350DE0024646006232761832715D
:102E8000D2182B1860339B7873719A18401CD3B2F8
:102E9000C0B28442EFD8FF200130C01AC870044885
:102EA0008A780249AC30FEF7F7FF70BDC0040020FD
:102EB000BC000020F8B500F0B1F9FDF7B1FE0F48F5
:102EC000012200210E4D826022C00091694608381F
:102ED000FDF70EFE0B4E00246100705A49190001E7
:102EE000001982B200230120FDF75CFE641CE4B2ED
:102EF000062CF1D3FDF74CFEF8BD00003C05002088
:102F0000003C00082405002030B47446641E257877
:102F1000641CAB4200D21D46635D5B00E31830BC0D
:102F2000184702E008C8121F08C1002AFAD17047EA
:102F30007047002001E001C1121F002AFBD1704739
:102F4000F8B5384881780A2901D9002100E0491CE8
:102F50008170354D35496A8A0988354F354E364C72
:102F60008A4228D28078002825D13078002822D1C2
:102F70002B89288B283B98421DDAFF208A1A2D3096
:102F8000824218DD204601883B78C81C491C002B72
:102F90002A4B80B289B203D09A420BDD20800AE02E
:102FA0009A4201DD208000E02180208800B200F0FC
:102FB00085FA00E021801D48698A008881420AD98B
:102FC000091AFF202D30814205DD3878002820883D
:102FD0001ED0401F20803078002801D0401E307065
:102FE000208819214901884218D9A989814200D233
:102FF0002180134920880A88824202D0114A108019
:1030000008800120387000F0A1FA20886884F8BD9B
:10301000401F208000B200F051FADCE70020387039
:10302000F1E7000056000020BC0000205400002002
:10303000420000203F00002052000020B80B00009A
:10304000500000204E00002010B50D4801780B0004
:10305000FFF75AFF061304070A0D101300F044F996
:1030600010BD00F01BF910BD00F0A8F810BDFFF76F
:1030700067FF10BD00F0E6F810BD0021017010BD23
:1030800040000020F8B5494D4621288A04464843AF
:103090006421FDF725F8E98A884201D8A14205D9C3
:1030A00000F0E6F801204002FDF724F92889298B79
:1030B000FF2401340A3881420ADD3D4801880AB202
:1030C000491E0180104600F0F9F92046FDF712F97B
:1030D0002889298B1E38814202DD2046FDF70AF936
:1030E000344F00263878344C042843D129887D2277
:1030F000688AD200891A884205DA4020FDF7FAF87A
:103100003878042836D169897D22688A5201891865
:10311000884217D2208A401C80B22082297DC907AC
:1031200002D0618A491C6182C8280ED9608A64284D
:103130000BD9A6826682268200F09AF82020FDF73D
:10314000D9F802E0A6826682268269891922688AF5
:103150005201891A88420DDAA08A401C80B2A082EE
:10316000C82807D9A6826682268200F081F820202E
:10317000FDF7C0F8E88BE989884206D20120E070AB
:1031800000F076F81020FDF7B5F8E078012805D1B9
:10319000E889E98BC830814201D9E670F8BD10207A
:1031A000FDF7A8F800F064F8F8BD0000BC000020AE
:1031B00052000020400000205600002010B51249A7
:1031C0000878002801D0401E08701048428A4089C3
:1031D000824210D20E4C218808B2491C218000F096
:1031E0006DF920880B49884204D900F041F820206D
:1031F000FDF780F810BD08780028FBD10649087853
:10320000401C087010BD000056000020BC000020CB
:1032100052000020B60300004000002010B500F06E
:1032200089F905490020087004490880044908808C
:103230008020FDF75FF810BD400000205200002004
:103240004C00002010B507480078002809D000F095
:1032500071F9054900200870044908808020FDF7B5
:1032600049F810BD3E000020400000205200002020
:1032700010B500F05FF90649002008700549088084
:103280007D200549000108808020FDF733F810BD3E
:1032900040000020520000204C00002010B500200B
:1032A00000F054F90C480D490078087709798842F4
:1032B0000BD2012809D90A490878401C087000F08F
:1032C0001FF908493C20087010BDFFF7D1FF2020EE
:1032D000FDF710F810BD000041000020BC000020E8
:1032E000400000205600002010B51048008800283B
:1032F0001BD10F480F49808A084216D10E4800247E
:103300000470012000F022F900F0FAF800204B21AF
:10331000C900401C80B28842FBD300F00BF907497A
:103320000878401C08700648047010BD4C0000204E
:10333000BC0000203D0200004200002040000020B0
:10334000410000200EB5FDF785FEFFF761F9FEF79D
:1033500093FFFEF771FFFEF71DFFFEF7DBFFFFF7A0
:1033600021F8FEF7EDFFFFF783F81D491B4808859C
:10337000FFF7CAF8002634466D461A486700381829
:10338000FFF714F9E8530007000FA04201D1761CA3
:10339000F6B2641CE4B2062CEFD31348062E13D009
:1033A00000210180FF2117314180490081800F49B0
:1033B000C1805121090101810D4941810D48FDF76D
:1033C00005FE00F0CDFAFCE700214A00AB5A491C8B
:1033D0001B09C9B283520629F7D3EFE76A1200002E
:1033E000BC000020003C0008240500209E030000D3
:1033F00083060000A8000020F8B52C482C4E008859
:103400002A49308000272B4C4D89002838D085422E
:1034100036D9E188814219D07D21E08009014843F5
:103420002946FCF75DFE80B22081C82802D2C82060
:10343000208104E0E121C900884200D9218121894D
:103440007D200001401A6081A181E081A0890028CF
:1034500001D0401EA081E089002807D0A189002961
:103460000BD1401E0004000CE08103D16089E08193
:103470002089A081A089002801D0358000E0378014
:10348000318860780B46034301220B48002B08D09B
:103490000378002B04D16D1E8D4201DA0270677033
:1034A000F8BD052101706270F8BD0000BC0000206D
:1034B00054000020560000204000002010B50D49A7
:1034C0008B89834201DA0C20085EFF21913188420A
:1034D00000DA0846084A1488A34200D213801388F1
:1034E0008B4200D21180054942000B68DA620968FC
:1034F000C86310BDBC00002052000020480400201A
:1035000010B5FF200949EB300880FFF7D7FF0821ED
:103510000748FEF71FFB0020401CC0B26428FBD305
:1035200008210348FEF766F910BD00005200002094
:103530004804002010B508210348FEF76FF9082160
:103540000148FEF729FB10BD4804002004494A1435
:103550000028086801D0104300E0904308607047DD
:103560000004014070B5154D04001CD00021144822
:10357000FEF7F0FA012202212846FDF799FC2046C9
:10358000C02148430A21FCF7ABFD0E49912292006D
:10359000884201D9084602E0904200D2104608490C
:1035A0000968486370BD002202212846FDF780FCAF
:1035B00000210348FEF7F0FA70BD00000014004837
:1035C000840400206C070000F0B50120A9498FB0E9
:1035D000002508802C462846A74982008B58A74919
:1035E000401C8E5851189B190F6A0E69C0B2F6190B
:1035F0009B190E6B096C9B195B189F4902288B5015
:10360000EAD39E4EB169B068B26B4018B16A8918AE
:103610004018B16C40180521FCF762FD964980B254
:103620000C3948800C90B18968460180B18B41808B
:10363000B18D8180B18FC180F16C0181002069461C
:10364000002204231F1A0FE05600B4468B5B761845
:1036500008967688B34205D99E466346CE52089EA8
:1036600073467380521CD2B29742EDDA401CC0B24E
:103670000428E5D3804E88880C3EB080804A0C999F
:1036800080480027914202D20121017000E00770BA
:103690007D480078052801D1FFF7D4FD3078312826
:1036A00002D2401C307000E037703078774AB18821
:1036B00040001152C83211527188643A11526E4A58
:1036C000121F508810805180884203D9401A02E0AE
:1036D000F78013E0081A3228FADAF088401CF080EC
:1036E00080B20F280AD90120FEF762FF6420FFF79D
:1036F00039FFF0887D2109018842E9D8634B002019
:10370000C83341005A5A401C5519604AC0B264324D
:10371000515A0C193228F4D332212846FCF7E0FC28
:1037200085B25B48322105802046FCF7D9FC594917
:1037300080B208800790707832280FD14E4C777095
:10374000FA212068FCF7CCFC53490880FA21606814
:10375000FCF7C6FC51490880276067607078514CBF
:10376000401C70704E484688AE4209D98088962227
:10377000811B701B5043FCF7C9FC9621081A20835B
:10378000AE420BD846488088A84207D9811BA81BA7
:1037900096225043FCF7BAFC96302083404EB08806
:1037A000A8420BD8F188A94208D9091A281AC822B8
:1037B0005043FCF7ABFCFF302D302083F088A8424B
:1037C0000BD83189A94208D9091A281AC8225043AE
:1037D000FCF79CFCFF30F530208331480689AE426F
:1037E0000CD84089A84209D9811BA81BC822504384
:1037F000FCF78CFCAF2189004018208328484089C1
:10380000A84209D8811B281AC8225043FCF77EFC25
:10381000E121890040182083D22D01D2278302E0C4
:10382000208BC82808D2218B480008180A21FCF7F1
:1038300057FC2830C5B200E064259B210798C900D9
:1038400048437D21C900FCF74BFC15490988401805
:1038500081B2E182208B484368431349FCF756FC50
:1038600060820E480088E0830B48008860830FB0B8
:10387000F0BD00003005002034000020F8030020D7
:10388000260200003E0000204000002048020020E8
:1038900046000020440000204A000020480000208C
:1038A00024050020BC0000201027000010B50849A6
:1038B00001204880FFF7E6FBFFF79EFDFFF7C4FB02
:1038C00004480188002901D0491E018010BD000074
:1038D000300500204C00002010B5084928208880C1
:1038E00007484178002904D000214170FFF7AEFA63
:1038F00010BD01214170FFF755FA10BD30050020C1
:103900000C00002010B503496420C8800248FDF770
:1039100033FB10BD30050020A800002004490348F7
:10392000088104490020888270470000B80B00001D
:1039300030050020BC00002010B5074C07490020CE
:103940004300CA5A521EA24200D2CA52401CC0B200
:103950000528F5D310BD0000FEFF00003005002053
:1039600000200E4D0E4C06464100401CC0B26E5267
:103970000528F9D30A4F3F1D267020784100695A67
:10398000002905D0401CC0B220700528F5D3F3E70C
:103990000006800D38588047EEE700003005002013
:1039A0006C00002000000000010203040102030477
:1039B00006070809D4390008000000208400000030
:1039C000222F0008583A000884000020C408000094
:1039D000322F00080000000000127A0000000000F2
:1039E0000000640000000000000000000000000073
:1039F00000000000000000000000000000000000C7
:103A000000000000000000000000000000000000B6
:103A100000000000000000000000000000000000A6
:103A20000000000000000000000000000000000096
:103A30000000000000000000000000000000000086
:103A400000000000C9350008AD380008D93800086A
:083A5000053900081D390008CA
:04000005080000B13E
:00000001FF
