:020000040800F2
:10000000880A002001010008ED260008C922000826
:10001000E9260008C9020008D543000800000000D6
:100020000000000000000000000000009127000810
:10003000690300080000000029270008F5270008D0
:100040001B0100081B0100081B0100081B01000820
:100050001B0100081B0100081B0100081B01000810
:100060001B0100081B0100086D030008CD020008F9
:10007000DD020008ED020008FD0200080D03000883
:100080001D0300082D0300081B0100081B010008C8
:100090001B0100081B0100081B0100088103000868
:1000A0001B0100081B0100081B0100081B010008C0
:1000B0001B0100081B0100081B0100081B010008B0
:1000C0001B0100081B0100081B0100081B010008A0
:1000D0001B010008513D0008913D0008D13D00087A
:1000E0001B0100081B0100081B010008DFF80CD0F1
:1000F00000F02EF8004800476D470008880A0020ED
:100100000648804706480047FEE7FEE7FEE7FEE7B1
:10011000FEE7FEE7FEE7FEE7FEE7FEE7AD280008A4
:10012000ED00000830B50B460146002020220124D6
:1001300009E021FA02F59D4205D303FA02F5491BB5
:1001400004FA02F52844151EA2F10102F1DC30BDCB
:10015000064C074D06E0E06840F0010394E8070014
:1001600098471034AC42F6D3FFF7C4FF1C4F000889
:100170003C4F000870B5044600252068806800F0F8
:100180000100F0B12068806820F0010021688860DB
:1001900000F06AFF05460EE000F066FF401B0228F3
:1001A00009D9A06A40F01000A062E06A40F00100A6
:1001B000E062012070BD2068806800F00100002826
:1001C000EAD10020F6E770B505466C6AA06A00F037
:1001D0005000E0B9A06A40F40070A0622068806816
:1001E00000F46020B0F5602F0DD1E06858B9A06A26
:1001F00020F48070A062A06A00F4805018B9A06A50
:1002000040F00100A062204600F0F6F903E0206A09
:10021000016B2846884770BD70B505466C6AA06AB8
:1002200040F04000A062E06A40F00400E062204636
:1002300000F0E4F970BD70B50446656A284600F028
:10024000DCF970BD38B50446002500200090206818
:10025000806800F0010080BB2068806840F00100E9
:1002600021688860164800681649B0FBF1F00090DC
:1002700002E00098401E009000980028F9D100F09C
:10028000F3FE054613E000F0EFFE401B02280ED9F6
:10029000A06A40F01000A062E06A40F00100E06255
:1002A00000BF002084F8240000BF012038BD206872
:1002B000806800F001000028E5D00020F6E700008B
:1002C0000000002040420F0000BFFEE710B50248CA
:1002D00000F0C6FB10BD0000E803002010B5024886
:1002E00000F0BEFB10BD00004006002010B5024823
:1002F00000F0B6FB10BD0000FC05002010B5024860
:1003000000F0AEFB10BD00003005002010B5024823
:1003100000F0A6FB10BD0000EC04002010B5024860
:1003200000F09EFB10BD00007405002010B50248CF
:1003300000F096FB10BD0000B805002030B590F825
:1003400040500124AC40C56B6C6004686360446835
:10035000102C04D10468A2600468E16003E0046822
:10036000A1600468E26030BD7047000010B5102045
:1003700000F0CCFC01200149087010BD25000020D0
:1003800010B5202000F0C2FC01200149487010BDCA
:1003900025000020F8B5044600260020009000BF8C
:1003A00094F82400012801D10220F8BD012084F82E
:1003B000240000BF2046FFF7DDFE0646002E62D176
:1003C000A06A20F4885040F00200A062022000F0F1
:1003D0002BFF30490968B1FBF0F04000009002E0CB
:1003E0000098401E009000980028F9D12046FFF7A1
:1003F00029FF2068806840F008002168886000F0CC
:1004000033FE054611E000F02FFE401B0A280CD9F0
:10041000A06A20F0020040F01000A06200BF00209F
:1004200084F8240000BF0120BFE72068806800F046
:1004300008000028E7D12068806840F004002168A7
:10044000886000F011FE054611E000F00DFE401B33
:100450000A280CD9A06A20F0020040F01000A06227
:1004600000BF002084F8240000BF01209DE7206821
:10047000806800F004000028E7D1A06A20F00200A4
:1004800040F00100A06200BF002084F8240000BFFB
:1004900030468AE70000002038B5024600230020DD
:1004A000009000BF92F82400012801D1022038BD3D
:1004B000012082F8240000BF4868072812D2106883
:1004C000406B0C79641E04EB84051F24AC40A043F0
:1004D0000D796D1E05EB85050C68AC402043146852
:1004E000606327E048680D2812D21068006B0C7911
:1004F000E41F04EB84051F24AC40A0430D79ED1FDD
:1005000005EB85050C68AC4020431468206311E0BE
:100510001068C06A0C790D3C04EB84051F24AC40C4
:10052000A0430D790D3D05EB85050C68AC402043DB
:100530001468E06208680A2812D31068C0680C7852
:100540000A3C04EB44050724AC40A0430D780A3D67
:1005500005EB45058C68AC4020431468E0600FE073
:10056000106800690C7804EB44050724AC40A043F4
:100570000D7805EB45058C68AC402043146820617C
:100580000868102802D00868112827D1174C106875
:10059000A0421ED11068806800F40000F0B9106815
:1005A000806840F400001468A0600868102815D125
:1005B0000F4800680F4CB0FBF4F000EB80004000E7
:1005C000009002E00098401E009000980028F9D1A9
:1005D00004E0906A40F020009062012300BF0020F8
:1005E00082F8240000BF184661E7000000240140A3
:1005F0000000002040420F00704770477047000025
:100600002DE9F0410446002700250026A84614B92C
:100610000120BDE8F081A06810B1606900B100BFA1
:10062000A06A30B90020E06284F82400204600F07F
:1006300089F82046FFF79EFD0746A06A00F01000EB
:10064000002873D1002F71D1A06A20F4885040F0A7
:100650000200A062E16960680843E16840EA410085
:100660000643A068B0F5807F02D0A068012802D1BF
:100670004FF4807000E0002005436069012811D12B
:10068000E06838B9A069401E4FF4006141EA40308B
:10069000054307E0A06A40F02000A062E06A40F055
:1006A0000100E0622068406820F469402843216826
:1006B000486020688068214908403043216888608C
:1006C000A068B0F5807F02D0A068012802D14FF465
:1006D000807000E00020B0F5807F03D1208A401EAA
:1006E0004FEA00582068C06A20F4700040EA080011
:1006F0002168C8622068806811490840B04208D16A
:100700000020E062A06A20F0020040F00100A06238
:1007100011E0A06A20F0020040F01000A062E06A40
:1007200040F00100E062012705E0FFE7A06A40F029
:100730001000A062012738466BE70000FDF7E1FFDB
:10074000FE0E1FFF10B586B004462049206888427F
:100750003AD100BF1E48806940F400701C4988618E
:100760000846806900F40070019000BF00BFF320CC
:1007700002900320039002A9164800F0D5FA032046
:100780000290039002A9144800F0CEFA13481449CD
:100790000860002048600021114881608021C1600C
:1007A0008900016189004161202181610021C161CD
:1007B00000F024FA18B1BE210AA003F00DFE00BF1C
:1007C00007482062446200BF06B010BD002401400B
:1007D0000010024000080140000C014008000240E7
:1007E000E80300202E2E2F5372632F6164632E6363
:1007F000000000002DE9F04104460D461646002792
:1008000057492068884203D056492068884205D15C
:100810005348001D006800F4702000E0002000280C
:100820007ED100BF94F82400012802D10220BDE847
:10083000F081012084F8240000BF2046FFF702FD6C
:100840000746002F6DD1A06A40F60161884340F44D
:100850008070A06243492068884209D14048001D49
:10086000006800F4702008B9012002E0002000E0D8
:10087000012078B1A06A20F48010A062206840684E
:1008800000F4806000B3A06A20F4005040F480506F
:10089000A06219E0A06A40F48010A062304920688C
:1008A000884203D02F492068884205D12C48001D7A
:1008B000006800F4806000E0002028B1A06A20F405
:1008C000005040F48050A062A06A00F4805020B133
:1008D000E06A20F00600E06201E00020E06200BF74
:1008E000002084F8240000BF1F48216A88621F4846
:1008F000216AC8621E48216A08636FF002002168FD
:1009000008602068806840F48070216888602268F0
:1009100002F14C0133462A46206A00F0A7F901E0B3
:100920001AE014E02068806800F46020B0F5602FC1
:1009300006D12068806840F4A000216888600CE03F
:100940002068806840F480102168886005E000BF5E
:10095000002084F8240000E00127384667E7000003
:100960000024014000280140C701000837020008A8
:1009700019020008014600200A68126822F00E02DF
:100980000B681A600A68126822F001020B681A608C
:1009900091F8403001229A40CB6B5A60012281F8D5
:1009A000212000BF002281F8202000BF70470000F6
:1009B00070B50446002594F82100022803D00420D5
:1009C000A063012548E02068006820F00E0021683F
:1009D00008602068006820F00100216808601F4955
:1009E0002068884201D1012026E01C49143120688A
:1009F000884201D110201FE0184928312068884220
:100A000001D1801518E015493C312068884201D198
:100A1000801411E0114950312068884202D14FF40E
:100A2000803009E00D4964312068884202D14FF4DA
:100A3000801001E04FF080700849083948600120BB
:100A400084F8210000BF002084F8200000BF606B04
:100A500010B12046616B8847284670BD08000240EF
:100A600070B50446E06B05682068066894F840108D
:100A7000042088402840002846D006F004000028C2
:100A800042D02068006800F0200028B92068006883
:100A900020F004002168086057492068884201D18D
:100AA000042027E0544914312068884201D14020B5
:100AB00020E0514928312068884201D1001519E011
:100AC0004D493C312068884202D14FF4804011E00A
:100AD000494950312068884202D14FF4802009E012
:100AE000454964312068884202D14FF4800001E01A
:100AF0004FF08060404908394860E06A00287AD0A9
:100B00002046E16A884776E094F840100220884049
:100B10002840A0B306F0020088B32068006800F007
:100B2000200040B92068006820F00A0021680860B1
:100B3000012084F8210030492068884201D1022038
:100B400028E02D4914312068884201D1202021E07D
:100B5000294928312068884201D140151AE02649E8
:100B60003C312068884202D14FF4005012E0224903
:100B700050312068884203D14FF400300AE017E07A
:100B80001D4964312068884202D14FF4001001E011
:100B90004FF0007018490839486000BF002084F801
:100BA000200000BFA06A30B32046A16A884722E037
:100BB00094F84010082088402840E0B106F0080072
:100BC000C8B12068006820F00E002168086094F821
:100BD000401001208840E16B48600120A06384F848
:100BE000210000BF002084F8200000BF206B10B15E
:100BF0002046216B884770BD080002400146002254
:100C000009B901207047184B0868C01A1423B0FBBB
:100C1000F3F08000086414480838C863022081F8A3
:100C200021000868026843F6F0708243D1E90103AD
:100C30001843CB6818430B6918434B6918438B69F9
:100C40001843CB6918430243086802600020886299
:100C5000C862086348638863012081F8210000208E
:100C600081F8200000BFCDE7080002402DE9F041E7
:100C700004460D4616461F464FF0000800BF94F884
:100C80002000012802D10220BDE8F081012084F873
:100C9000200000BF94F8210001282CD1022084F804
:100CA00021000020A0632068006820F00100216876
:100CB00008603B46324629462046FFF73FFBE06A84
:100CC00030B12068006840F00E00216808600BE039
:100CD0002068006820F0040021680860206800682F
:100CE00040F00A00216808602068006840F00100B8
:100CF0002168086006E000BF002084F8200000BFE3
:100D00004FF002084046BFE77047000010B50446A8
:100D100004480068204020B1024804602046FFF7E4
:100D2000F3FF10BD140401402DE9F84703460024E9
:100D3000002000258446002700226EE14FF00108C4
:100D400008FA02F4D1F8008008EA0400A0427DD13C
:100D5000DFF8D0A2D1F80480A8EB0A09D0453AD038
:100D600014DCB8F1030F50D009DCB8F1000F31D01A
:100D7000B8F1010F1CD0B8F1020F49D120E0B8F151
:100D8000110F18D0B8F1120F42D11EE0B9F5881F2B
:100D900025D006DCB9F5803F20D0B9F5801F37D1CA
:100DA0001AE0B9F5001F18D0B9F5041F30D117E0CB
:100DB000D1F80CC02DE0D1F80C8008F1040C28E02B
:100DC000D1F80C8008F1080C23E0D1F80C8008F170
:100DD0000C0C1EE000BF00BF00BF00BF00BF00BF83
:100DE000D1F80880B8F1000F02D14FF0040C0BE0ED
:100DF000D1F80880B8F1010F03D14FF0080C1C6145
:100E000002E04FF0080C5C6103E04FF0000C00E0E2
:100E100000BF00BFFF2801D8984601E003F1040895
:100E20004646FF2802D84FEA820803E0A2F10808EC
:100E30004FEA88084746D6F800804FF00F0909FAB4
:100E400007F928EA09080CFA07F900E088E048EAFF
:100E50000908C6F80080D1F8048008F08058B8F17D
:100E6000805F7DD100BFDFF8C081D8F8188048F0DE
:100E70000108DFF8B491C9F81880C846D8F818807E
:100E800008F00108CDF8008000BF00BF4FEAB93874
:100E90004FEA920958F829504FEA82784FEA1879B8
:100EA0004FF00F0808FA09F825EA0805DFF87C81F9
:100EB000434502D14FF0000816E0DFF87481434546
:100EC00002D14FF001080FE0DFF86881434502D1FD
:100ED0004FF0020808E0DFF86081434502D14FF08F
:100EE000030801E04FF004084FEA82794FEA1979CC
:100EF00008FA09F848EA0505DFF840814FEA920947
:100F000048F82950D1F8048008F48038B8F5803FBB
:100F10000AD1DFF82C81D8F8008048EA0008DFF811
:100F20002091C9F8008009E0DFF81481D8F800802A
:100F300028EA0008DFF80891C9F80080D1F8048099
:100F400008F40038B8F5003F10D1DFF8F48008F15C
:100F50000408D8F8008048EA0008DFF8E49000E0D0
:100F60005AE009F10409C9F800800DE0DFF8D080EB
:100F700008F10408D8F8008028EA0008DFF8C090DB
:100F800009F10409C9F80080D1F8048008F4801838
:100F9000B8F5801F0ED1DFF8A88008F10808D8F84E
:100FA000008048EA0008DFF8989009F10809C9F8BC
:100FB00000800DE0DFF8888008F10808D8F800808C
:100FC00028EA0008DFF8789009F10809C9F80080DC
:100FD000D1F8048008F40018B8F5001F0ED1DFF82E
:100FE000608008F10C08D8F8008048EA0008DFF8B3
:100FF000509009F10C09C9F800800DE0DFF840803D
:1010000008F10C08D8F8008028EA0008DFF83090D2
:1010100009F10C09C9F80080521C102AFFF48EAEA9
:10102000BDE8F887000011100010024000080140E0
:10103000000C014000100140001401400800014074
:1010400000040140024693680B400BB1012000E010
:1010500000207047C2684A40C26070470AB101610F
:1010600001E00B040361704701480068704700000D
:101070008C00002002480068401C0149086070474D
:101080008C00002010B50848006840F010000649A8
:101090000860032000F0B4F8002000F007F800F02A
:1010A00019F8002010BD00000020024070B5044671
:1010B000074800684FF47A71B0FBF1F5284600F05C
:1010C00054FD00222146501E00F05BF8002070BD48
:1010D0000000002008B500BF2148806940F00100F1
:1010E0001F4988610846806900F00100009000BF38
:1010F00000BF032000F084F8002211466FF00B00BF
:1011000000F03FF8002211466FF00A0000F039F8B5
:10111000002211466FF0090000F033F8002211465A
:10112000501F00F02EF800221146101F00F029F881
:1011300000221146901E00F024F800221146501E95
:1011400000F01FF800BF0748406820F0E060054944
:1011500048600846406840F00070486000BF08BD25
:10116000001002400000014000BF00F01F020121FA
:1011700091404209920002F1E022C2F8001100BF42
:1011800070472DE9F05F80460D461646002701F0B6
:10119000AFFA074639462A46334601F00700C0F148
:1011A000070ABAF1040F02D94FF0040A01E0C0F1B6
:1011B000070AD14600F1040ABAF1070F02D24FF034
:1011C000000A01E0A0F1030AD4464FF0010A0AFA2E
:1011D00009FAAAF1010A0AEA020A0AFA0CFA4FF01D
:1011E000010B0BFA0CFBABF1010B0BEA030B4AEA08
:1011F0000B042146404601F083FABDE8F09F000051
:1012000000BF00F00702064B19684FF6FF031940B4
:10121000044B0B4343EA0221014B196000BF7047A6
:101220000CED00E00000FA052DE9F04385B006461C
:101230003DA30FCB01AC0FC43FA0006800904FF05E
:101240000008002500270024A146012E30D0022EE0
:1012500058D0102E61D139484468006800F0807081
:1012600000B301A8C4F38341475C04F4803070B13B
:1012700032484068C0F340401DF8008004F48030DC
:1012800040B12F48B0FBF8F000FB07F502E02D4815
:1012900007FB00F52948406800F48000B0F5800F96
:1012A00001D1A94603E068000321B0FBF1F935E064
:1012B0002248046A04F44070B0F5807F05D104F040
:1012C000020010B14FF400491BE004F44070B0F587
:1012D000007F07D11948406A00F0020010B149F6BA
:1012E00040490EE004F44070B0F5407F07D1134848
:1012F000006800F4003010B14FF2244901E04FF0D3
:1013000000090BE000F0A0F90C494968C1F38131F4
:10131000491C4900B0FBF1F900E000BF00BF48469E
:1013200005B0BDE8F08300000203040506070809C4
:101330000A0B0C0D0E0F10100102000000100240ED
:1013400000127A0000093D00F8B504460026002589
:10135000207800F0010000286BD000274348C069C6
:1013600000F0805070B900BF4048C06940F0805024
:101370003E49C8610846C06900F08050009000BF37
:1013800000BF01273A48006800F48070B0B93848BF
:10139000006840F4807036490860FFF765FE064635
:1013A00006E0FFF761FE801B642801D90320F8BD29
:1013B0002F48006800F480700028F2D02B48006AA3
:1013C00000F440752DB3A08800F44070A84220D0EE
:1013D0002648006A20F44075012026490860002054
:1013E00008602248056205F0010090B1FFF73CFE5D
:1013F000064608E0FFF738FE801B41F2883188423C
:1014000001D90320D3E71948006A00F00200002840
:10141000F0D01648006A20F4407061680843134910
:101420000862012F04D10846C06920F08050C861CD
:1014300000BF207800F00200022807D10B48406866
:1014400020F44040A168084308494860207800F033
:101450001000102807D10548406820F48000E1689A
:101460000843024948600020A1E700000010024044
:10147000007000404004424270B504460D4600260C
:101480006248006800F00700A8420ED25F4800687A
:1014900020F0070028435D4908600846006800F016
:1014A0000700A84201D0012070BD207800F00200A2
:1014B000022807D15648406820F0F000A168084390
:1014C00053494860207800F0010000285DD0606832
:1014D000012806D14E48006800F4003090B9012080
:1014E000E2E76068022806D14948006800F0007011
:1014F00040B90120D8E74648006800F0020008B96A
:101500000120D1E74248406820F0030061680843A9
:101510003F494860FFF7A8FD06466068012810D1E2
:1015200008E0FFF7A1FD801B41F28831884201D914
:101530000320B9E73648406800F00C000428F0D1D9
:1015400023E06068022810D108E0FFF78DFD801BC2
:1015500041F28831884201D90320A5E72C48406830
:1015600000F00C000828F0D10FE008E0FFF77CFD48
:10157000801B41F28831884201D9032094E7244836
:10158000406800F00C000028F0D12048006800F00E
:101590000700A8420ED91D48006820F00700284324
:1015A0001A4908600846006800F00700A84201D008
:1015B000012079E7207800F00400042807D11448BE
:1015C000406820F4E060E1680843114948602078F1
:1015D00000F00800082808D10D48406820F4605049
:1015E000216940EAC1000A49486000F03DF8084915
:1015F0004968C1F30311074A515CC84006490860B5
:101600000020FFF753FD00204EE7000000200240BD
:1016100000100240AC4C00080000002001480068A7
:10162000704700000000002000B5FFF7F7FF0449F5
:101630004968C1F30221034A515CC84000BD000063
:1016400000100240BC4C000800B5FFF7E7FF04495A
:101650004968C1F3C221034A515CC84000BD000083
:1016600000100240BC4C0008F0B585B00FF2700CC1
:101670009CE8E01001A8A0E8E0101DA52D680095E9
:10168000002100240022002300201A4D696801F087
:101690000C05FDB1042D02D0082D1AD101E0164829
:1016A0001AE001ADC1F38346AB5D01F480355DB155
:1016B000104D6D68C5F340451DF805400E4DB5FB56
:1016C000F4F505FB03F202E00C4D03FB05F21046B6
:1016D00002E000BF084800BF00BF05B0F0BD000039
:1016E00002030405060708090A0B0C0D0E0F101063
:1016F000010200000010024000127A0000093D00C3
:10170000F8B504460025207800F00100002878D0C4
:10171000F848406800F00C0004280CD0F5484068F8
:1017200000F00C00082811D1F248406800F4803025
:10173000B0F5803F0AD1EF48006800F4003000287F
:101740005FD0606800285CD10120F8BD00BF6068F0
:10175000B0F5803F06D1E748006840F48030E549A5
:10176000086028E0606858B9E248006820F48030DA
:10177000E04908600846006820F4802008601AE00C
:101780006068B0F5A02F0BD1DA48006840F48020E3
:10179000D84908600846006840F4803008600AE0D4
:1017A000D448006820F48030D249086008460068B8
:1017B00020F48020086000BF606888B1FFF754FC07
:1017C000054606E0FFF750FC401B642801D90320C2
:1017D000BBE7C848006800F400300028F2D010E0F1
:1017E000FFF742FC054606E0FFF73EFC401B64287D
:1017F00001D90320A9E7BF48006800F400300028A1
:10180000F2D1207800F00200022857D1B948406890
:1018100000F00C0050B1B748406800F00C000828F8
:1018200018D1B448406800F4803098B9B1480068D5
:1018300000F0020020B12069012801D0012084E7D6
:10184000AC48006820F0F800616940EAC100A9498D
:10185000086033E02069E8B10120A7490860FFF77C
:1018600003FC054606E0FFF7FFFB401B022801D9F9
:1018700003206AE79F48006800F002000028F2D0C9
:101880009C48006820F0F800616940EAC10099496D
:10189000086013E0002098490860FFF7E5FB054663
:1018A00006E0FFF7E1FB401B022801D903204CE7CB
:1018B0009048006800F002000028F2D1207800F083
:1018C000080008282DD1A069B8B101208B49086013
:1018D000FFF7CAFB054606E0FFF7C6FB401B0228E0
:1018E00001D9032031E78348406A00F00200002854
:1018F000F2D0012000F01AFF13E000207F490860B9
:10190000FFF7B2FB054606E0FFF7AEFB401B0228DF
:1019100001D9032019E77748406A00F00200002847
:10192000F2D1207800F00400042873D10026714819
:10193000C06900F0805070B900BF6E48C06940F0C7
:1019400080506C49C8610846C06900F08050009022
:1019500000BF00BF01266A48006800F48070B0B97B
:101960006748006840F4807065490860FFF77CFBB9
:10197000054606E0FFF778FB401B642801D90320E9
:10198000E3E65F48006800F480700028F2D000BFF2
:10199000E068012806D15748006A40F00100554927
:1019A000086227E0E06858B95248006A20F0010058
:1019B000504908620846006A20F00400086219E0F5
:1019C000E06805280BD14B48006A40F00400494903
:1019D00008620846006A40F0010008620AE04548D3
:1019E000006A20F00100434908620846006A20F0BE
:1019F0000400086200BFE068A0B1FFF735FB0546B0
:101A000009E0FFF731FB401B41F28831884202D9DF
:101A100003209AE622E03748006A00F0020000281E
:101A2000EFD012E0FFF720FB054608E0FFF71CFBB4
:101A3000401B41F28831884201D9032085E62D48B8
:101A4000006A00F002000028F0D1012E05D12948DB
:101A5000C06920F080502749C86100BFE069C8B361
:101A60002448406800F00C00082860D0E069022893
:101A700048D1002020490866FFF7F6FA054606E03F
:101A8000FFF7F2FA401B022801D903205DE619484E
:101A9000006800F000700028F2D1206AB0F5803FA5
:101AA00007D11448406820F40030A1680843114968
:101AB0004860D4E9080108430E49496821F47411CB
:101AC00008430C49486001200B490866FFF7CCFA2F
:101AD000054607E02DE0FFF7C7FA401B022801D9B1
:101AE000032032E60348006800F000700028F2D0BE
:101AF0001FE0000000100240000042428004424209
:101B00000070004000200C490866FFF7ADFA05465A
:101B100006E0FFF7A9FA401B022801D9032014E6CA
:101B20000648006800F000700028F2D101E00120B2
:101B30000BE6002009E600000000424200100240CF
:101B4000042808D14FF0E021096941F004014FF069
:101B5000E022116107E04FF0E021096921F0040162
:101B60004FF0E02211617047704770B5044625467A
:101B7000681EB0F1807F01D301200FE0681E4FF096
:101B8000E02148610F214FF0FF3000F0B9FD002047
:101B90004FF0E021886107200861002070BD10B57A
:101BA000FFF7E2FF10BD70B50446002520684069CC
:101BB000C0F3C01594F8390021280ED16DB120680A
:101BC000406920F0800021684861206B10B1206BD3
:101BD000FEF7D0FE204601F00FFF20684069C0F3F9
:101BE000801594F83A0022280ED16DB12068406922
:101BF00020F0400021684861606B10B1606BFEF717
:101C0000B9FE204601F0D8FE002070BD70470000EC
:101C10002DE9F0470446206805682068C6682068FA
:101C200047694FF00008C14605F00F08B8F1000FF2
:101C30000AD105F0200038B106F0200020B120467E
:101C400001F0E4FEBDE8F087B8F1000F6DD007F0B9
:101C5000010018B906F49070002866D005F0010064
:101C600030B106F4807018B1E06B40F00100E06321
:101C700005F0040030B107F0010018B1E06B40F04E
:101C80000200E06305F0020030B107F0010018B176
:101C9000E06B40F00400E06305F0080030B107F0AD
:101CA000010018B1E06B40F00800E063E06B68B33E
:101CB00005F0200028B106F0200010B1204601F008
:101CC000A5FE20684069C0F38019E06B00F00800B1
:101CD00010B9B9F1000F22D0204601F06DFE206846
:101CE000406900F04000B0B12068406920F0400039
:101CF00021684861606B50B11748616B4863606B45
:101D0000FEF756FE10B1606B416B88470CE0204631
:101D1000FFF77CFF08E02046FFF778FF04E020464D
:101D2000FFF774FF0020E0638CE705F0800030B11E
:101D300006F0800018B1204601F0A0FF82E705F010
:101D4000400030B106F0400018B1204601F044FEDA
:101D500078E700BF76E70000BD38000810B50446FC
:101D60000CB9012010BDA06900B100E000BF94F8DB
:101D7000390028B9002084F83800204600F028F8FF
:101D8000242084F839002068C06820F400502168BD
:101D9000C860204601F08EFE2068006920F4904063
:101DA000216808612068406920F02A0021684861A4
:101DB0002068C06840F400502168C8600020E063DB
:101DC000202084F8390084F83A000020CAE7000097
:101DD00010B586B004469B492068884261D100BF97
:101DE0009948806940F48040974988610846806935
:101DF00000F48040019000BF00BF4815029002200F
:101E000003900320059002A99048FEF78DFF4FF440
:101E10008060029000200390049002A98B48FEF796
:101E200083FF8B488B490860002048600021894867
:101E300081608021C1600021016141618161C161D6
:101E4000FEF7DCFE18B19C2183A002F0C5FA00BFAA
:101E500080486063446200BF7D481438824908604E
:101E6000102048600021804881608021C1600021ED
:101E7000016141618161C161FEF7C0FE18B1AC2111
:101E800075A002F0A9FA00BF77482063446200BF42
:101E9000002211462520FFF774F92520FFF764F989
:101EA000CDE072492068884261D100BF6648C069B0
:101EB00040F400306449C8610846C06900F400304D
:101EC000019000BF00BF0420029002200390032075
:101ED000059002A95D48FEF727FF08200290002028
:101EE0000390049002A95948FEF71EFF5848143089
:101EF0005F4908600020486000215D4881608021C2
:101F0000C1600021016141618161C161FEF776FE1E
:101F100018B1DA2150A002F05FFA00BF54486063A4
:101F2000446200BF4A482830524908601020486087
:101F30000021504881608021C16000210161416120
:101F40008161C161FEF75AFE18B1EA2142A002F098
:101F500043FA00BF47482063446200BF0022114695
:101F60002620FFF70EF92620FFF7FEF867E042492A
:101F70002068884263D100BF3348C06940F48020A4
:101F80003149C8610846C06900F48020019000BF53
:101F900000BF08150290022003900320059002A9BB
:101FA0003648FEF7C1FE4FF4006002900020039017
:101FB000049002A93148FEF7B7FE25482838304979
:101FC00008600020486000212D4881608021C160A8
:101FD0000021016141618161C161FEF70FFE20B105
:101FE0004FF48C711CA002F0F7F900BF2448606325
:101FF000446200BF16483C382249086010204860FF
:102000000021204881608021C1600021016141617F
:102010008161C161FEF7F2FD20B14FF494710EA011
:1020200002F0DAF900BF17482063446200BF0022C3
:1020300011462720FFF7A5F82720FFF795F806B0EF
:1020400010BD0000003801400010024000080140AF
:1020500058000240EC0400202E2E2F5372632F757F
:10206000736172742E63000030050020004400404C
:1020700074050020B805002000480040000C014015
:10208000FC0500204006002077B581B004461546C7
:1020900094F83A00202850D1029800B115B90120D7
:1020A00004B070BD00BF94F83800012801D10220AF
:1020B000F6E7012084F8380000BF0298A062A585E9
:1020C0000020E063222084F83A001D48616B88629A
:1020D0001C48616BC8621C48616B08630020616B1F
:1020E000486302AE32682368191D2B46606BFEF709
:1020F000BDFD00BF002000902068006800902068AF
:102100004068009000BF00BF00BF002084F8380086
:1021100000BF2068C06840F480702168C8602068F3
:10212000406940F00100216848612068406940F042
:102130004000216848610020B2E70220B0E70000BB
:102140002139000867390008D13800087047704706
:102150002DE9F84304460D4616461F464FF0000988
:1021600094F8390020285CD105B116B90120BDE8EA
:10217000F88300BF94F83800012801D10220F6E767
:10218000012084F8380000BF0020E063212084F89B
:102190003900FEF769FF8146A684E6842BE0E08CD7
:1021A000401EE084A068B0F5805F16D14B46002247
:1021B00080212046009701F095FD08B10320D6E765
:1021C000A846B8F80000C0F30800216848602069FC
:1021D00008B9AD1C0FE06D1C0DE04B4600228021BC
:1021E0002046009701F07EFD08B10320BFE715F8F7
:1021F000010B21684860E08C0028D0D14B460022BA
:1022000040212046009701F06DFD08B10320AEE7A4
:10221000202084F8390000BF002084F8380000BF77
:10222000A5E70220A3E70000F7B50446154694F899
:10223000390020283DD1019800B10DB90120FEBD23
:1022400000BF94F83800012801D10220F7E70120EF
:1022500084F8380000BF01982062A584E58400203E
:10226000E063212084F839001348216B8862134809
:10227000216BC8621248216B08630020216B486300
:1022800001AE23681A1D31682B46206BFEF7EEFC69
:102290006FF040002168086000BF002084F838001B
:1022A00000BF2068406940F080002168486100203C
:1022B000C5E70220C3E7000075390008AB39000804
:1022C000D13800087047704700BFFEE70EB542489E
:1022D000424908608115414881600121C1600021A7
:1022E00041614FF46021C16100203C4948600821F0
:1022F0003A480161FEF784F918B1452138A002F08F
:102300006BF800200090012001900290694633484C
:10231000FEF7C2F818B14F2131A002F05DF801209C
:1023200000900220019069462C48FEF7B5F818B1DC
:1023300058212BA002F050F80420009003200190B7
:1023400069462648FEF7A8F818B1612124A002F0DA
:1023500043F8052000900420019069461F48FEF7CD
:102360009BF818B16A211EA002F036F806200090F2
:102370000520019069461948FEF78EF818B17321BF
:1023800017A002F029F80720009006200190694666
:102390001248FEF781F818B17C2111A002F01CF858
:1023A000082000900720019069460C48FEF774F859
:1023B00018B185210AA002F00FF80920009008202A
:1023C000019069460548FEF767F818B18E2104A010
:1023D00002F002F80EBD000000240140B803002006
:1023E0002E2E2F5372632F6164632E630000000052
:1023F00008B500BF2248406940F00100204948610B
:102400000846406900F00100009000BF00BF0022B4
:1024100011460B20FEF7B5FE0B20FEF7A5FE0022AD
:1024200011460C20FEF7ADFE0C20FEF79DFE0022AB
:1024300011460D20FEF7A5FE0D20FEF795FE0022A9
:1024400011460E20FEF79DFE0E20FEF78DFE0022A7
:1024500011460F20FEF795FE0F20FEF785FE0022A5
:1024600011461020FEF78DFE1020FEF77DFE0022A3
:1024700011461120FEF785FE1120FEF775FE08BDFE
:102480000010024000B585B000BF5748806940F099
:102490001000554988610846806900F010000090DE
:1024A00000BF00BF00BF0846806940F0200088617F
:1024B0000846806900F02000009000BF00BF00BF08
:1024C0000846806940F0040088610846806900F091
:1024D0000400009000BF00BF00BF0846806940F0C4
:1024E000080088610846806900F00800009000BF7D
:1024F00000BF00224FF460413C48FEF7AFFD0022D0
:1025000003213B48FEF7AAFD012211033948FEF7DB
:10251000A5FD00224FF400413648FEF79FFD012241
:102520004FF410613448FEF799FD00224FF48051BA
:102530003148FEF793FD4FF4604001900120029076
:102540000220049001A92948FEF7EEFB0320019028
:10255000012002900220049001A92548FEF7E4FB27
:102560004FF410400190012002900220049001A934
:102570002048FEF7D9FB46F2C800019000200290E7
:102580000220039001A91B48FEF7CEFB4FF4C85070
:102590000190012002900220049001A91648FEF744
:1025A000C3FB30200190154802900220039001A93E
:1025B0001048FEF7B9FB1248406840F4004010494B
:1025C0004860002211460A20FEF7DBFD0A20FEF7D4
:1025D000CBFD002211461720FEF7D3FD1720FEF792
:1025E000C3FD05B000BD0000001002400010014016
:1025F00000140140000C01400008014000001110CF
:102600000000014010B50C480C4908604FF4E1305F
:102610004860002109488160C16001610C2141616D
:1026200000218161C161FFF799FB18B14B2104A022
:1026300001F0D2FE10BD0000003801402C04002043
:102640002E2E2F5372632F75736172742E630000E8
:1026500010B50C480C4908604FF4964048600021C2
:1026600009488160C16001610C21416100218161E3
:10267000C161FFF773FB18B15E2104A001F0ACFE4D
:1026800010BD0000004400406C0400202E2E2F538B
:1026900072632F75736172742E63000010B50C485D
:1026A0000C4908604FF4E13048600021094881601E
:1026B000C16001610C21416100218161C161FFF7AD
:1026C0004DFB18B1712104A001F086FE10BD000081
:1026D00000480040AC0400202E2E2F5372632F754B
:1026E000736172742E63000000BFFEE77047000044
:1026F00002480068C0F30220704700000CED00E0C3
:1027000010B5002807DA0A07140E054A00F00F0377
:102710001B1FD45403E00A07130E024A135410BDC2
:1027200018ED00E000E400E07047000008B508493B
:102730000968C9084FF47A72B1FBF2F14143009184
:1027400000BF00BF00994A1E00920029F9D108BDC0
:102750000000002010B500224FF460410948FEF748
:102760007DFC002203210848FEF778FC01221103BA
:102770000648FEF773FC00224FF400410348FEF7C1
:102780006DFC10BD0010014000140140000C014020
:10279000704700002DE9F04104460D4641201349E1
:1027A00008704B2048700A2088700020C8702012E2
:1027B00008714D718C712812C87126200872092089
:1027C00048720027002605E00848805D3844C7B2FB
:1027D000701CC6B20A2EF7DB78420449C8700A2280
:1027E0000348FFF721FDBDE8F08100006D030020E4
:1027F0006C04002010B5FEF73DFCFFF7D0F902F0A5
:102800000BFA10BD10B594B00A200A9001200E906A
:1028100010200F90012010900220119000211291A1
:102820004FF4201113910AA8FEF76AFF18B1B021E6
:102830001AA001F0D1FD0F20059002200690002083
:1028400007904FF48060089000200990012105A8AE
:10285000FEF712FE18B1BE2110A001F0BDFD02204E
:1028600001904003039001A8FEF76EFD18B1C52149
:102870000AA001F0B1FDFEF7D1FE4FF47A71B0FB72
:10288000F1F42046FFF771F90420FFF759F900220F
:102890001146501EFEF775FC14B010BD2E2E2F539E
:1028A00072632F6D61696E2E63000000114800682D
:1028B00040F001000F490860084640680E49084092
:1028C0000C494860084600680C49084009490860FE
:1028D0000846006820F4802008600846406820F41C
:1028E000FE0048604FF41F008860C8030449086078
:1028F00070470000001002400000FFF8FFFFF6FEE6
:1029000008ED00E010B50E48808840F6C2218842EC
:102910000BDD0B48808840F60241884205DA05202D
:10292000084948701420C87004E000200549487028
:10293000042008700248818803A001F04FFD10BDFB
:1029400056010020290000200A0D203138765F61F1
:10295000643D20256400000010B50E48C08840F298
:10296000C37188420BDD0B48C08840F63F018842A6
:1029700005DA0620084948701920C87004E00020D4
:1029800005494870052008700248C18803A001F07D
:1029900025FD10BD56010020290000200A0D20331E
:1029A0002E33765F61643D202564000010B5FB483E
:1029B00000780D287AD2DFE800F0072B455F7A987F
:1029C000D9FCFAF9F8F7F6000020F5490860F54956
:1029D0000860F5490860F5490860F5490860F5495F
:1029E0000860F54908605620F449C8700122D103F7
:1029F000F348FEF733FB01221146F248FEF72EFBA7
:102A00000120E64908704FF42F70EF49088004E276
:102A100043F23540ED49088036204880EA48008876
:102A2000002804DDE8480088401EE7490880E648A1
:102A3000008830B90220D94908704FF42F70E2495C
:102A40000880EAE143F23320E04908804FF4FA704D
:102A50004880DD480088002804DDDB480088401EEF
:102A6000D9490880D848008828B90320CB49087084
:102A7000C820D5490880D0E142F22540D3490880DA
:102A80000F204880D0480088002804DDCE48008808
:102A9000401ECD490880CC48008830B90420BF4989
:102AA00008704FF42F70C8490880B6E1B4E15A208D
:102AB000C249C87042F22320C449088040F6B830A9
:102AC0004880C1480088002804DDBF480088401EB7
:102AD000BD490880BC48008830B90520AF4908705E
:102AE0004FF42F70B849088097E142F22320B7498C
:102AF000088040F6B8304880B54890F8620000F091
:102B0000A00038BBB348C08AA5490860B04890F817
:102B10006700A5490860AE4890F86600096800EBB8
:102B20000120A14908600846006800EBC00101EBE4
:102B300000104FF4FA71C1EB80003621B0FBF1F0C8
:102B4000994908600620954908704FF47A709E49AB
:102B500008800AE00020994948701220087000207F
:102B60008E490870C8209849088056E1572093493B
:102B7000C87042F223209549088044F25060488092
:102B800091480088002804DD8F480088401E8E4947
:102B900008808D48008828B9072080490870C8201F
:102BA0008949088039E12BE1DDE0C2E09EE03AE0AE
:102BB000FFE742F223208549088044F250604880B4
:102BC000834890F8620000F0A00030BB8148C08AC2
:102BD000744908607E4890F86700744908607C4832
:102BE00090F86600096800EB01207049086008460B
:102BF000006800EBC00101EB00104FF4FA71C1EB6B
:102C000080003621B0FBF1F0684908600820634974
:102C10000870C8206C49088004E0002067494870AB
:102C200012200870F9E042F2232068490880002051
:102C300048805C4800685A490968401A6421484342
:102C40005A490968584A1268891AB0FBF1F0594983
:102C5000086056480068096848435549086051486B
:102C6000006800EBC00101EB001051490968B1EBAD
:102C7000800F1AD84B48006800EBC00101EB001030
:102C80004B490968C1EB80004B4908600846006861
:102C9000B0F5FA5F02D94FF4FA5008604648006870
:102CA000E8B901204449086019E03E48006800EB9B
:102CB000C00101EB00103E490968A1EB80003E49CC
:102CC000086008460068B0F5FA5F02D94FF4FA5080
:102CD00008603948006840F400403749086009201E
:102CE0002E490870C8203849088096E042F2232017
:102CF000364908800020488033480088002804DDD9
:102D000031480088401E304908802F48008878B933
:102D10000A2022490870274801682FA001F05EFBB5
:102D20002548016831A001F059FBC82026490880D8
:102D300073E043F23540254908801E4800884880EA
:102D400021480088002804DD1F480088401E1E49D5
:102D500008801D48008828B90B2010490870C82039
:102D60001949088059E043F2332018490880124875
:102D70000088488014480088002804DD1248008834
:102D8000401E114908801048008828B90C200349CA
:102D90000870C8200C4908803FE000004A0000206D
:102DA0004C0000205000002054000020580000205B
:102DB0005C0000206000002064000020290000204A
:102DC0000010014000140140480000202E000020A7
:102DD000BC020020560100200A0D20637572726546
:102DE0006E745F666163743D202564000A0D206384
:102DF000757272656E745F626173653D2025640053
:102E00005F200749C87013204870002005490870EA
:102E1000C8200549088000E000BF00BF10BD0000C9
:102E2000290000204A0000204800002010B542F28E
:102E30002540234908800020488022480088002837
:102E400004DD20480088401E1E4908801E48007886
:102E5000412816D11C4840784B2812D11A48407995
:102E600000F0080020B919480078401C1749087084
:102E7000002404E0002014490855601CC4B2322C20
:102E8000F8DB10480088D0B9104800780A2805DD22
:102E90000A200F4948702D20C87004E000200C491A
:102EA000487009200870094801780AA001F096FAD4
:102EB0004FF42F700349088000200449087010BDAA
:102EC0002E0000203C000020240100203E000020B5
:102ED000290000200A0D20436F6D6D5F53756365F7
:102EE0007373436F756E7465723D20256400000036
:102EF00010B5142007490870002048706420C8707D
:102F000000224FF400410448FEF7A8F8FFF722FC26
:102F100010BD0000290000200010014010B522481B
:102F2000007810B101283BD118E0012211461F485A
:102F3000FEF794F80122D1031D48FEF78FF81D48D3
:102F40000078401C1B49087008460078142804DDEE
:102F50000020087001201449087022E080211648E2
:102F6000FEF770F8012810D140211348FEF76AF8E7
:102F700058B900200C4908700420104948700F20EF
:102F8000C8700FA001F02AFA09E000200649087075
:102F90000A494870032008700DA001F01FFA00E0F4
:102FA00000BF00BF10BD0000390000200014014028
:102FB0000010014038000020000C014029000020D2
:102FC0000A0D2048313856207061737421000000CA
:102FD0000A0D2048313856206661696C21000000D6
:102FE00010B50E48008940F2C37188420BDD0B48D2
:102FF000008940F63F01884205DA072008494870F9
:103000001E20C87004E000200549487006200870A2
:103010000248018903A001F0E1F910BD560100202A
:10302000290000200A0D2049332E33765F61643D6C
:103030002025640010B50024104890F86D4090F8E9
:103040006C0000EB042084B20D484089C830A042D7
:103050000ADD0B484089C838A04205DA0C2009492E
:1030600048703720C87004E00020064948700B20E3
:103070000870214604A001F0B1F910BDBC02002087
:1030800056010020290000200A0D2069676274742F
:10309000656D703D2025640010B50D48407870B115
:1030A00011200C4948705020C87042F223200A4970
:1030B00008800020488009A001F090F907E0002076
:1030C00004494870102008700AA001F087F910BD6B
:1030D00025000020290000202E0000200A0D204994
:1030E00047425448207465737420706173742021C2
:1030F000000000000A0D20494742544820746573BF
:1031000074206661696C20210000000010B512482F
:103110000078B8B155201149C87042F223201049F7
:103120000880002048800F480078042803D112202E
:103130000A49487002E01420084948700AA001F0CA
:103140004DF907E0002005494870112008700CA0D7
:1031500001F044F910BD00002500002029000020E6
:103160002E000020340000200A0D20494742544C14
:103170002074657374207061737420210000000056
:103180000A0D20494742544C2074657374206661CF
:10319000696C20210000000010B53248007810B1A1
:1031A00001285BD11AE0304890F8620000F0050079
:1031B00058B9012251032D48FDF750FF012029493C
:1031C000087064202A49087007E0002029494870E7
:1031D0000C20087000202349087040E02448007843
:1031E000002804DD22480078401E214908701E484E
:1031F00090F8620000F00500052817D11C480078FF
:10320000002813DD00224FF400511848FDF726FF77
:103210000020144908700D20164948703C20C870E1
:1032200064201349087014A001F0D8F81048007801
:1032300098B900224FF400510C48FDF70FFF002011
:103240000C4948700C200870002006490870642062
:10325000074908700FA001F0C1F800E000BF00BFEF
:1032600010BD000043000020BC02002000100140FF
:1032700042000020290000200A0D206F766572634D
:10328000757272656E7420746573742070617374E6
:10329000210000000A0D206F7665726375727265F9
:1032A0006E742074657374206661696C210000007F
:1032B00010B548480078052874D2DFE800F0030D07
:1032C0001D3B520000224FF400414348FDF7C6FE6B
:1032D0000120404908707BE040480088401C3F497D
:1032E000088008460088142805DD4FF42F700880F8
:1032F0000220384908706BE042F2232038490880E8
:103300000020488035480088002804DD33480088C4
:10331000401E324908803148008850B903202D49A9
:10332000087000202F49487008704FF42F702B4907
:1033300008804DE042F223202949088040F6B83049
:10334000488026480088002804DD24480088401E64
:10335000224908802148008810B904201D490870BE
:1033600036E0214890F86A0001281CDD1E4890F8DC
:103370006A000C2817DA00201849088015490870DF
:1033800010201A4948704B20C87042F2232014497B
:10339000088000204880144890F86A1014A001F0BA
:1033A0001DF813E013E0104890F86A1010A001F027
:1033B00015F800200D4948700F20087042F22320B4
:1033C00007490880002048800249087000E000BFDB
:1033D00000BF10BD46000020001001404400002046
:1033E0002E00002025000020BC0200202900002023
:1033F0000A0D206C6F616476616C75653D202564F3
:103400000000000014200149487070472900002086
:1034100010B54648007830B1012823D002283CD0AE
:1034200003287CD14FE0012211464148FDF716FEEA
:103430000122D1033F48FDF711FE012251033E480E
:10344000FDF70CFE3D480078401C3C4908700846DA
:103450000078142805DD0120344908700020374920
:10346000087061E035480078401C3449087000223B
:103470004FF480512F48FDF7F1FD304800780A28BD
:103480000ADD012211032B48FDF7E8FD0220274940
:10349000087000202949087046E028480078401C40
:1034A00026490870084600780A280BDD4FF4804151
:1034B0002048FDF7C7FD28B103201C4908700020F3
:1034C0001E49087030E04FF400511A48FDF7BAFD6C
:1034D000A8B91B480078012808D114201949487060
:1034E0006420C87018A000F079FF10E0032015498F
:1034F00048700A20C87014A000F070FF07E0002098
:10350000104948700220087014A000F067FF0020E6
:103510000649087000224FF40041064800E002E02E
:10352000FDF79CFD00E000BF00BF10BD370000208C
:1035300000140140000C0140001001403600002042
:1035400034000020290000200A0D2070726F67727D
:10355000616D207061737421000000000A0D2070FD
:10356000726F6772616D206661696C2100000000F6
:1035700010B5012211462D48FDF770FD00224FF4D1
:1035800000412B48FDF76AFD2A480078401C294974
:10359000087008460078142847DD00200870264887
:1035A000C08A28282CDA25480078012802D1022078
:1035B0002349487021480078022802D1032020497D
:1035C00048701E480078032802D112201C49487018
:1035D0001A480078042802D10220194948700020B6
:1035E000174908700520C87000224FF400411048A8
:1035F000FDF734FD002201210C48FDF72FFD0FE0FF
:1036000001200F490870002048700022012107485E
:10361000FDF724FD00224FF400410548FDF71EFD93
:103620000548C18A07A000F0D9FE10BD0014014072
:103630000010014035000020560100203400002019
:10364000290000200A0D2043757272656E743D20BA
:103650002564000010B500240C4890F8674090F8ED
:10366000660000EB042084B22CB90F200849487092
:103670004620C87004E00020054948700E200870FC
:10368000214604A000F0AAFE10BD0000BC020020EC
:10369000290000200A0D207374617469632063752A
:1036A0007272656E743D20256400000010B5002420
:1036B000134890F8654090F8640000EB042084B251
:1036C0001048808A2830A0420ADD0E48808A2838B7
:1036D000A04205DA0E200C4948704120C87004E071
:1036E0000020094948700D200870214607A000F00D
:1036F00075FE0448818A0BA000F070FE10BD00002A
:10370000BC02002056010020290000200A0D207371
:10371000746174696320766C6F746167653D202500
:10372000640000000A0D20766F6C746167653D20AF
:103730002564000010B50E48808940F2B6318842F9
:103740000BDD0B48808940F24C41884205DA0820A5
:10375000084948702320C87004E0002005494870DB
:10376000072008700248818903A000F037FE10BDD1
:1037700056010020290000200A0D2053757267654C
:103780005F61643D2025640010B501229103184853
:10379000FDF764FC17480078401C1649087008467D
:1037A00000781E2822DD002008701348C08940F2EE
:1037B000AA2188420ADD1048C089B0F56C7F05DC7B
:1037C00009200E4948702820C87004E000200B49E9
:1037D0004870082008700848C18909A000F0FEFD63
:1037E00000224FF480410248FDF738FC10BD000074
:1037F000001001403A00002056010020290000205E
:103800000A0D205472616E73666F726D65725F612E
:10381000643D20256400000010B542F2254019499E
:1038200008804FF6FF70488017480088002804DDA4
:1038300015480088401E1449088013480088F8B9CC
:1038400008211248FDF7FEFB40B90B2010494870D3
:103850003220C8700FA000F0C1FD07E000200C4925
:1038600048700A20087010A000F0B8FD42F2254010
:1038700004490880002048804FF4C870024908803D
:1038800010BD00002E00002040000020000C014070
:10389000290000200A0D2066616E20746573742073
:1038A00070617374210000000A0D2066616E20743F
:1038B000657374206661696C2100000070B505466F
:1038C0006C6A0020E085E0842046FEF79FF970BD19
:1038D00070B506460025746A20684069C0F3C015BB
:1038E00094F83900212805D125B10020E084204634
:1038F00000F082F820684069C0F3801594F83A001F
:10390000222805D125B10020E085204600F054F89A
:10391000E06B40F01000E0632046FEF777F970BDE1
:1039200070B505466C6A2868006800F02000B0B9E0
:103930000020E0852068C06820F480702168C8609D
:103940002068406920F001002168486120684069D2
:1039500020F0400021684861202084F83A00204689
:10396000FEF7F4FB70BD70B50446656A2846FEF7A5
:10397000EEFB70BD70B505466C6A2868006800F003
:10398000200070B90020E0842068406920F08000A9
:10399000216848612068C06840F040002168C86024
:1039A00002E02046FEF78EFC70BD70B50446656AE5
:1039B0002846FEF788FC70BD0168C96821F4907143
:1039C0000268D1600168496921F001010268516112
:1039D000202180F83A10704710B504462068C0686E
:1039E00020F040002168C860202084F8390020467B
:1039F000FEF768FC002010BD0168C96821F0C00115
:103A00000268D160202180F83910704770B50446F3
:103A100094F83A0022284AD1A068B0F5805F13D10B
:103A2000A56A206940B920684068C0F30800288072
:103A3000A06A801CA06219E020684068C0B228809B
:103A4000A06A401CA06211E0206938B92068406873
:103A5000C1B2A26A501CA062117007E020684068E1
:103A600000F07F01A26A501CA0621170E08D401E20
:103A700080B2E085C8B92068C06820F020002168C5
:103A8000C8602068C06820F480702168C860206821
:103A9000406920F0010021684861202084F83A0044
:103AA0002046FEF753FB002070BD0020FCE70220FB
:103AB000FAE700002DE9F04104460025206800697E
:103AC00020F44050E1680843216808612169A0683A
:103AD00008436169084305432068C06841F20C61EE
:103AE000884328432168C8602068406920F44070FA
:103AF000A1690843216848615F49206888425CD118
:103B0000FDF7A2FD00EBC00101EB00106168890028
:103B1000B0FBF1F6FDF798FD00EBC00101EB0010E2
:103B200061688900B0FBF1F06421B0FBF1F000EBBB
:103B3000C00101EB0010A6EB8000322101EB001068
:103B40006421B0FBF1F000F0F006FDF77DFD00EB25
:103B5000C00101EB001061688900B0FBF1F0642145
:103B6000B0FBF1F006EB0016FDF76EFD00EBC001B7
:103B700001EB001061688900B0FBF1F7FDF764FD0F
:103B800000EBC00101EB001061688900B0FBF1F0AF
:103B90006421B0FBF1F000EBC00101EB0010A7EBDA
:103BA0008000322101EB00106421B0FBF1F000F045
:103BB0000F003044216888605BE0FDF735FD00EBC5
:103BC000C00101EB001061688900B0FBF1F6FDF760
:103BD0002BFD00EBC00101EB001061688900B0FB18
:103BE000F1F06421B0FBF1F000EBC00101EB00103B
:103BF000A6EB8000322101EB00106421B0FBF1F054
:103C000000F0F006FDF710FD00EBC00101EB001025
:103C100061688900B0FBF1F06421B0FBF1F006EBC4
:103C20000016FDF701FD00EBC00101EB001061681B
:103C30008900B0FBF1F7FDF7F7FC00EBC00101EBE9
:103C4000001061688900B0FBF1F06421B0FBF1F075
:103C500000EBC00101EB0010A7EB8000322101EB6B
:103C600000106421B0FBF1F000F00F003044216837
:103C70008860BDE8F081000000380140014691F8FD
:103C8000390021282CD18868B0F5805F0FD10A6AED
:103C90001088C0F308000B685860086918B9086AF2
:103CA000801C086209E0086A401C086205E00B6A93
:103CB000581C086218780B685860C88C401E80B287
:103CC000C88458B90868C06820F080000B68D860C4
:103CD0000868C06840F040000B68D860002070475A
:103CE0000220FCE72DE9F04104460D4617469846B0
:103CF000069E21E0701CF8B12EB1FDF7B5F9A0EBDE
:103D00000800B04218D92068C06820F4D07021683B
:103D1000C8602068406920F00100216848612020C7
:103D200084F8390084F83A0000BF002084F8380095
:103D300000BF0320BDE8F081206800682840A84249
:103D400001D1012000E00020B842D3D00020F1E7EB
:103D500008B50D48FDF75CFF0B4800680068C0F32C
:103D6000001078B100BF002000900748006800688C
:103D70000090054800684068009000BF00BF012027
:103D80000249887008BD00002C0400202500002096
:103D900008B50D48FDF73CFF0B4800680068C0F30C
:103DA000001078B100BF002000900748006800684C
:103DB0000090054800684068009000BF00BF0120E7
:103DC0000249C87008BD00006C04002025000020D6
:103DD00010B50248FDF71CFF10BD0000AC04002028
:103DE00070B51748807848B31648FDF7DCFE002010
:103DF000134988700025002405E01348005D28441D
:103E0000C5B2601CC4B2062CF7DB0F48007841280D
:103E10000CD10D4840784B2808D13DB911200B49F1
:103E20008870094840790A49887002E00548FDF722
:103E300095FF062204490348FEF726F970BD0000ED
:103E4000250000202C040020720000202200002009
:103E50002900002010B50D48007818B901200B4941
:103E6000087002E00020094908700848007818B975
:103E70000749087800F046F804480078002803DD78
:103E80000349C87800F006F810BD00007B00002050
:103E90002900002070B50446002505E01648405D65
:103EA00016494855681CC5B20F2DF7DB642094FBFA
:103EB000F0F030301149C873642094FBF0F100FB3E
:103EC0001140C4B20A2094FBF0F030300B49087462
:103ED0000A2094FBF0F100FB1140C4B204F1300061
:103EE00006494874FF208874C87408751522044870
:103EF000FEF79AF970BD00007C00002077030020D7
:103F00002C04002070B50546152D70D2DFE805F0B1
:103F10000B1F33475B708498ACC0D4F2F0EFEEED2A
:103F2000ECEBEAE9E800002405E0D848005DD84958
:103F30000855601CC4B21B2CF7DBFF20D449C8769F
:103F4000087748771E22D348FEF76EF99BE10024DC
:103F500005E0D148005DCE490855601CC4B21B2C59
:103F6000F7DBFF20CA49C876087748771E22C94880
:103F7000FEF75AF987E1002405E0C848005DC4490E
:103F80000855601CC4B21B2CF7DBFF20C049C87663
:103F9000087748771E22BF48FEF746F973E10024F0
:103FA00005E0BF48005DBA490855601CC4B21B2C2F
:103FB000F7DBFF20B649C876087748771E22B54858
:103FC000FEF732F95FE1002405E0B648005DB04934
:103FD0000855601CC4B21B2CF7DBFF20AC49C87627
:103FE000087748771E22AB48FEF71EF94BE149E1FE
:103FF000002405E0AC48005DA5490855601CC4B22A
:104000001B2CF7DBFF20A249C876087748771E22D1
:10401000A048FEF709F936E1002405E0A348005D59
:104020009B490855601CC4B21B2CF7DBFF20984944
:10403000C876087748771E229648FEF7F5F822E101
:10404000002405E09A48005D91490855601CC4B2FF
:104050001B2CF7DBFF208E49C876087748771E2295
:104060008C48FEF7E1F80EE1002405E09148005D80
:1040700087490855601CC4B21B2CF7DBFF2084491C
:10408000C876087748771E228248FEF7CDF8FAE016
:10409000002405E08848005D7D490855601CC4B2D5
:1040A0001B2CF7DBFF207A49C876087748771E2259
:1040B0007848FEF7B9F8E6E0002405E07F48005DA7
:1040C00073490855601CC4B21C2CF7DBFF207049F3
:1040D0000877487788771F226E48FEF7A5F8D2E068
:1040E000BCE0A7E092E07DE068E053E03EE029E03C
:1040F00014E0FFE7002405E07148005D64490855BD
:10410000601CC4B21C2CF7DBFF206149087748779C
:1041100088771F225F48FEF787F8B4E0002405E0A7
:104120006848005D5A490855601CC4B21C2CF7DB76
:10413000FF2057490877487788771F225548FEF7B0
:1041400073F8A0E0002405E05F48005D5049085581
:10415000601CC4B21C2CF7DBFF204D490877487760
:1041600088771F224B48FEF75FF88CE0002405E0BB
:104170005648005D46490855601CC4B21C2CF7DB4C
:10418000FF2043490877487788771F224148FEF788
:104190004BF878E0002405E04D48005D3C490855A7
:1041A000601CC4B21C2CF7DBFF2039490877487724
:1041B00088771F223748FEF737F864E0002405E0CF
:1041C0004448005D32490855601CC4B21C2CF7DB22
:1041D000FF202F490877487788771F222D48FEF760
:1041E00023F850E0002405E03B48005D28490855CD
:1041F000601CC4B21C2CF7DBFF20254908774877E8
:1042000088771F222348FEF70FF83CE0002405E0E2
:104210003248005D1E490855601CC4B21C2CF7DBF7
:10422000FF201B490877487788771F221948FDF738
:10423000FBFF28E0002405E02948005D14490855EB
:10424000601CC4B21C2CF7DBFF20114908774877AB
:1042500088771F220F48FDF7E7FF14E0002405E0F0
:104260002048005D0A490855601CC4B21C2CF7DBCD
:10427000FF2007490877487788771F220548FDF710
:10428000D3FF00E000BF00BF70BD0000C44C0008B9
:10429000900300202C040020E04C0008FC4C000897
:1042A000184D0008344D0008504D00086C4D0008B2
:1042B000884D0008A44D0008C04D0008DC4D0008E2
:1042C000F94D0008164E0008334E0008504E000805
:1042D0006D4E00088A4E0008A74E0008C44E000824
:1042E000E14E0008FE4E000870B52B48007800280B
:1042F00004DD29480078401E274908702748C07807
:10430000002847D02648FDF74EFC00202349C870FE
:104310000025002405E02348005D2844C5B2601C48
:10432000C4B220488078A042F5DC1E4800784128BD
:1043300024D11C4840784B2820D1FDB94FF40061AE
:104340001948FCF787FE142013490870042407E07D
:104350001449601C085C095D144A5054A01CC4B286
:1043600010488078A042F3DC002405E00D48005D91
:104370000F490855601CC4B2322CF7DB06480078A0
:104380000A2802DA0648FDF7E9FC3222054904480A
:10439000FDF77AFE70BD00007A00002025000020A5
:1043A0006C0400203B03002000080140BC020020F8
:1043B0002401002010B50648008840B1044A518805
:1043C0001088FEF7E7F9002001490880488010BDF9
:1043D0002E00002000BFFEE700BFFEE70FB4054B34
:1043E00010B503A9044A029800F018F810BC5DF853
:1043F00014FB0000314600089000002002E008C8CD
:10440000121F08C1002AFAD170477047002001E04E
:1044100001C1121F002AFBD1704700002DE9FF4F98
:1044200089B09B460446002506E025280BD05A4655
:104430000B999047641C6D1C20780028F5D10DB0B5
:104440002846BDE8F08F0027B8460122474900E022
:10445000074314F8013F203B02FA03F00842F7D16A
:1044600020782E2819D114F8010F47F004072A28C4
:104470000ED06FF02F022078A0F1300109290CD85E
:1044800008EB880102EB410100EB0108641CF2E734
:104490000A98641C50F8048B0A9020780028CED02B
:1044A000642808D0692806D075281ED05A460B9972
:1044B00090476D1C58E00A994FF00A0901C90A910A
:1044C000002802DA40422D2102E0390504D52B21D3
:1044D0008DF82010012103E0F90704D02021F7E72F
:1044E0008A4608AE0DE00021FAE70A994FF00A0962
:1044F00001C90A91F7E74946FBF714FE303106F887
:10450000011D0028F7D1ADEB060000F12009780766
:1045100001D44FF00108C84502DDA8EB090000E016
:1045200000208046002706E008A85A46C05D0B9987
:1045300090476D1C7F1C5745F6DB04E030205A463F
:104540000B9990476D1CB8F10001A8F10108F5DC4A
:1045500005E016F8010B5A460B9990476D1CB9F10E
:104560000001A9F10109F4DC641C65E709280100D8
:1045700010B529488078A0B127488078274908706D
:1045800000202549887025480078001124490870CA
:104590002248007800F00F002249087000202249CC
:1045A00008701F48007800282EDD1E48007800287B
:1045B00014DD1C480078401E1A4908701A4800781B
:1045C00028B9012211031948FCF748FD22E0002216
:1045D0004FF480511548FCF741FD1BE0104800786E
:1045E000401E0F4908701048007818B901200E4984
:1045F000087002E000200C4908700848007800F0BC
:104600000F000849087005E000224FF48051074868
:10461000FCF724FD10BD0000220000206A000020ED
:104620006B0000206C0000206D000020000801409D
:1046300013B50C464FF6FF73012269460248FDF799
:1046400087FD00981CBD0000AC04002010B51F4879
:10465000407880B11D4840781D49087000201B49F2
:1046600048701B48007800F00F0019490870084690
:10467000007818490870164800780F2806D10022E3
:104680004FF400611448FCF7E9FC1DE01048007885
:1046900028B90122D1021048FCF7E0FC14E00D48D3
:1046A0000078002804DD0B480078401E0949087096
:1046B0000848007840B906480078064908704FF469
:1046C00000610548FCF7C6FC10BD00002200002078
:1046D00070000020710000200008014010B51F4844
:1046E000007880B11D4800781D49087000201B49E2
:1046F00008701B48007800F00F0019490870084640
:10470000007818490870164800780F2806D1002252
:104710004FF480711448FCF7A1FC1DE010480078AC
:1047200028B9012211021048FCF798FC14E00D484A
:104730000078002804DD0B480078401E0949087005
:104740000848007840B906480078064908704FF4D8
:1047500080710548FCF77EFC10BD0000220000209F
:104760006E0000206F00002000080140FCF78AFC6A
:10477000FEF748F8FDF786FEFDF73AFEFDF7A6FDC9
:104780001D48FBF707FE20221C491B48FCF732F8A6
:10479000FDF738FF1A480068C06840F0100018495B
:1047A0000968C860FDF754FF16480068C06840F00B
:1047B000100014490968C860FDF770FF1120124904
:1047C000887000201149487008708870C8700024F3
:1047D00007E0002501E0681C85B2FF2DFBDB601CB3
:1047E00084B2B4F57A7FF4DB09A0FFF7F7FD01E0AE
:1047F00000F02EFAFCE70000B8030020A40000201F
:104800002C0400206C04002022000020290000203D
:104810000A0D204D61696E626F6172642064696186
:10482000676E6F73652073797374656D207374613F
:1048300072746564212056302E320000F0B50125D7
:10484000744E358002201BE0734D55F82050734E96
:1048500056F820602E44714F00F1080557F8255096
:104860002E4400F1100557F825502E4400F118058C
:1048700057F825503544684E46F82050451CE8B29C
:104880000828E1DB654D2D68644E366A3544634E79
:10489000366C3544614E366E3544C5F38F05604E37
:1048A00035825E4D6D685D4E766A35445B4E766C42
:1048B00035445A4E766E3544C5F38F05584E758291
:1048C000564DAD69554EB66B3544544EB66D3544B4
:1048D000524EB66F3544C5F38F03524D2D78312DAE
:1048E00005DA504D2D786D1C4E4E357002E00025D6
:1048F0004C4E35704A4D2E8A4B4D4A4F3F7825F825
:104900001760474D6D8A494E464F3F7826F817503D
:10491000474D444E367825F81630002100220020FD
:104920000DE0424D35F8105029443F4D35F81050F8
:104930002A443F4D35F810502C44451CE8B232282B
:10494000EFDB3225B1FBF5F5354E75803225B2FB34
:10495000F5F535803225B4FBF5F5B581354D2D786B
:10496000322D2FD10025334E35702B4DAD68C82622
:10497000B5FBF6F52A4EB580274DED68C826B5FB88
:10498000F6F5274EF580244D2D69C826B5FBF6F5C2
:10499000234E3581204D6D69C826B5FBF6F5204EB6
:1049A00075811D4DED69C826B5FBF6F51C4EF581E8
:1049B000002005E00025184E46F82050451CE8B2BE
:1049C0000828F7DB1B4D2D786D1C1A4E3570144DE1
:1049D0002D8840F2FE5675434FF47A7695FBF6F536
:1049E0001E350F4EB58235466D8805EB850606EB04
:1049F000451505F66635642695FBF6F5084EF582F5
:104A00003546AD8AF68A7543642695FBF6F5044E65
:104A10003583F0BD940000209C020020A4000020FB
:104A20005601002068000020D40100207001002001
:104A3000380200206900002010B505204749488051
:104A400047488078002836D0002045490870C87053
:104A5000487008468078012802D1487041490870A2
:104A60003F488078022805D101203D494870022046
:104A70003C4908703A488078032805D1012038491C
:104A8000487003203749087035488078042805D1DC
:104A9000012033494870042032490870304880783A
:104AA000052805D114202E49487005202D4908708D
:104AB00000202B4988702A48407815284BD2DFE81F
:104AC00000F00B0E1114171A1D202326292C2F324B
:104AD00035383B3E41444700FDF73CFE3CE0FEF7E5
:104AE00047FD39E0FEF794FC36E0FEF717FA33E0B5
:104AF000FDF708FF30E0FDF72FFF2DE0FEF770FA1D
:104B00002AE0FEF717FE27E0FEF73EFE24E0FEF760
:104B10008DF921E0FEF780FE1EE0FEF78BFA1BE028
:104B2000FEF73AFB18E0FEF7C1FD15E0FEF792FD37
:104B300012E0FEF7BDFB0FE0FEF7AEFA0CE0FEF769
:104B4000E5FA09E0FDF732FF06E0FEF75BFC03E063
:104B5000FEF7CEF900E000BF00BF10BD94000020BA
:104B6000290000203400002040F2E930014988800B
:104B7000704700009400002010B532200B49C88017
:104B80000B48007818B901200949087002E000209C
:104B9000074908700648007808B9FFF70BFC04487D
:104BA0000078002801DDFFF79FFB10BD9400002076
:104BB0007800002010B565200B4908810B4800786B
:104BC00018B901200949087002E00020074908705F
:104BD0000648007808B9FFF73DF904480078002836
:104BE00001DDFFF7FDF810BD9400002079000020E2
:104BF00010B5612004494881FFF7BAFCFFF76EFD4C
:104C0000FFF724FD10BD000094000020672001493B
:104C10008881704794000020002014E00B4931F88F
:104C2000101000290DDD094931F810104FF6FF7200
:104C3000914206DA054931F81010491E034A22F85C
:104C40001010411CC8B20728E8DB70479400002010
:104C5000002405E00020124921F81400601CC4B2B1
:104C6000072CF7DB1AE000200E49087011E00C4811
:104C70000C49097830F8110030B90B49094A12780B
:104C800051F82200804708E006480078401C05499A
:104C90000870044800780728E9DB00BFE3E700005C
:104CA00094000020200000200400002000000000EC
:104CB00000000000010203040607080900000000CC
:104CC0000102030470726F636573732E74312E7466
:104CD00078743D6572726F722E74302E7478740021
:104CE00070726F636573732E74312E7478743D65C2
:104CF00072726F722E74312E7478740070726F63DA
:104D00006573732E74312E7478743D6572726F7290
:104D10002E74322E7478740070726F636573732E04
:104D200074312E7478743D6572726F722E74332EE6
:104D30007478740070726F636573732E74312E749F
:104D400078743D6572726F722E74342E74787400AC
:104D500070726F636573732E74312E7478743D6551
:104D600072726F722E74352E7478740070726F6365
:104D70006573732E74312E7478743D6572726F7220
:104D80002E74362E7478740070726F636573732E90
:104D900074312E7478743D6572726F722E74372E72
:104DA0007478740070726F636573732E74312E742F
:104DB00078743D6572726F722E74382E7478740038
:104DC00070726F636573732E74312E7478743D65E1
:104DD00072726F722E74392E7478740070726F63F1
:104DE0006573732E74312E7478743D6572726F72B0
:104DF0002E7431302E7478740070726F6365737323
:104E00002E74312E7478743D6572726F722E743107
:104E1000312E7478740070726F636573732E743101
:104E20002E7478743D6572726F722E7431322E74E6
:104E300078740070726F636573732E74312E74789A
:104E4000743D6572726F722E7431332E74787400F3
:104E500070726F636573732E74312E7478743D6550
:104E600072726F722E7431342E7478740070726F97
:104E7000636573732E74312E7478743D6572726F2E
:104E8000722E7431352E7478740070726F6365738E
:104E9000732E74312E7478743D6572726F722E7435
:104EA00031362E7478740070726F636573732E746C
:104EB000312E7478743D6572726F722E7431372E94
:104EC0007478740070726F636573732E74312E740E
:104ED00078743D6572726F722E7431382E747874E6
:104EE0000070726F636573732E74312E7478743D25
:104EF0006572726F722E7431392E7478740070720C
:104F00006F636573732E74312E7478743D6572729D
:104F10006F722E7432302E74787400003C4F00088B
:104F20000000002094000000FC430008D04F00085F
:104F300094000020F40900000C44000800A24A0478
:104F40003D480008394A0008694B0008794B0008C1
:104F5000B54B0008F14B00080D4C000800000000A4
:104F60000000000000000000000000000000000041
:104F70000000000000000000BC020000900164007E
:104F800000000000BC020000000000000000000063
:104F90000000000000000000000000000000000011
:104FA0000000000000000000000000000000000001
:104FB000000000000000140070726F636573732EB0
:104FC0006A302E76616C3D00000000000000000099
:04000005080000ED02
:00000001FF
