:020000040800F2
:1000000030090020C5000008CD000008CF0000081E
:1000100000000000000000000000000000000000E0
:10002000000000000000000000000000D1000008F7
:100030000000000000000000D3000008192500089F
:10004000D700000800000000D7000008D700000813
:10005000D7000008D7000008D7000008D702000822
:100060000000000091020008A1020008D70000086B
:10007000D7000008D7000008D700000800000000E3
:10008000D70000080000000000000000D7000008B2
:1000900000000000D7000008D7000008D7000008C3
:1000A00000000000D700000800000000B12C00088C
:1000B0000348854600F050F8004800471132000818
:1000C000300900200448804704480047FEE7FEE767
:1000D000FEE7FEE7FEE7FEE7DD250008B1000008C9
:1000E00030B50B46014600202022012409E00D46D0
:1000F000D5409D4205D31D469540491B2546954058
:1001000040191546521E002DF1DC30BD70B500249B
:100110002546002801DA01244042002901DA0125A0
:100120004942FFF7DDFFAC4200D04042002C00D036
:10013000494270BD10B5202A04DB0846203AD04061
:10014000002110BD0B46D340D0402024A21A91407C
:100150000843194610BD0000064C0125064E05E077
:10016000E36807CC2B430C3C98471034B442F7D3D8
:10017000FFF7A2FF3C3800085C38000810B50146C4
:10018000406A426C50231A420AD1416C0122520249
:10019000114341640168CA681205920F05D020E03E
:1001A000C06B026B0846904710BD026A002A18D146
:1001B0000A68120715D58A6853070122002B09DB4C
:1001C0004B680C24A3434B60416C130299431143C9
:1001D000416406E0416C202319434164816C114362
:1001E000816400F0D7F910BD10B5406A416C40221F
:1001F00011434164816C04221143816400F0CCF905
:1002000010BD10B5406A00F0C6F910BDF8B504463F
:1002100000200090206881688907890F012905D195
:100220000168C9072CD1C168090429D48168154A1D
:10023000102611400125002915D1816829438160CC
:10024000124811490068FFF74BFF00E0401E009084
:100250000028FBD100F0DCFD07460CE000F0D8FDE3
:10026000C01B022807D9606C30436064A06C28432F
:10027000A0640120F8BD20680068C043C007EDD12C
:100280000020F8BD1700008040420F00040000204D
:1002900010B5024800F0ECFA10BD0000B8030020D1
:1002A00010B5034800F0E4FA024800F0E1FA10BD8E
:1002B000D00100200802002010B504686360436884
:1002C000102B036803D099600068C26010BD9A606B
:1002D0000068C16010BD10B50120400200F0E2FCD2
:1002E0000120400300F0DEFC0120800300F0DAFC76
:1002F00010BD000002498A8A02438A8270470000CA
:10030000B4000020FEE7000006490020C86106484E
:100310000169042211430161016940221143016115
:10032000704700008000002000200240064A0021A3
:10033000D16106490A6902231A430A6148610869C2
:1003400040221043086170478000002000200240D6
:1003500010B5054B0022DA61044A136901242343D6
:100360001361018010BD00008000002000200240C9
:100370000949C868C206094803D5C26902231A435D
:10038000C261CA68520703D5C26901231A43C26118
:100390001420C86070470000002002408000002048
:1003A00070B5054600F034FD0646104C0AE0681CA6
:1003B00008D0002D04D000F02BFD801BA84201D9ED
:1003C000032070BDE068C007F1D1E068800601D568
:1003D0002020E060E068C00602D4E068400703D552
:1003E000FFF7C6FF012070BD002070BD0020024055
:1003F000F8B505460446403528780026012808D07F
:1004000001202870206881688907890F012908D197
:1004100001E00220F8BD0168C9072AD1C1680904BA
:1004200027D4616CFF22013291430222114361649F
:10043000816892071143816000F0EAFC07460EE0F4
:1004400000F0E6FCC01B022809D9606C0221884339
:10045000102108436064002028700120F8BD206846
:1004600080680028ECDB606C80088000401C6064C1
:1004700004E0606C2021084360640126002028709D
:100480003046F8BDF8B50025044640340095227882
:10049000012A39D00122227003689E68760767D44A
:1004A000384F4E68BE424DD09E6A0F78BA40164310
:1004B0009E620123826B1B079A421FD0012A1DD026
:1004C000022A1BD0032A19D0042A17D0052A15D0D6
:1004D000062A13D0072A11D002688B68566976075E
:1004E000760FB3420AD05369DB08DB005361006822
:1004F00042690B7A5B075B0F1A4342610A68102A54
:1005000004D0112A02D038E00220F8BD1E488368CA
:10051000102A07D00122920513438360086810282F
:1005200003D02AE00122D205F6E7194817490068EE
:10053000FFF7D6FD0A21484300E0401E0090002846
:10054000FBD11AE0986A0E78B2409043986209682D
:10055000102901D0112910D10B488268102904D02C
:10056000012189058A43826007E00121C905F9E775
:10057000416C20221143416401250020207028464F
:10058000F8BD0000011000000027014040420F00AC
:10059000040000207047704770470000F8B5002540
:1005A0000446002803D0606C002802D008E0012037
:1005B000F8BD0020A06440210855204600F0A8F8AE
:1005C000606C1022104270D12068816849076CD499
:1005D000616C13019943022319436164816889079F
:1005E000890F012905D10168C9070FD1C168090424
:1005F0000CD4C1681826B143A6683143C160206895
:100600000169666889008908314301612068C16811
:100610003D4E3140C160A069E1698003C9030843D0
:10062000216A4E033043666B012E02D00126360349
:1006300000E000263043E66830432669022E08D0E9
:1006400000263043266B76003043666A012E02D0C6
:100650000BE00426F5E7002928D0616C2026314301
:100660006164A16C01263143A164A16A0E46FF3E7C
:10067000C23E02D0E66A314308432168CE68064391
:10068000CE600126A16B3607B14213D0012911D0EB
:1006900002290FD003290DD004290BD0052909D038
:1006A000062907D0072905D010E028E00121090418
:1006B0000843DAE721684E69F608F6004E612168C2
:1006C0004E69278F7F077F0F3E434E612168C968BF
:1006D0000E4E3140814207D10020A064606C80083A
:1006E0008000401C606408E0606C984310436064C4
:1006F000A06C01210843A06401252846F8BD606C68
:1007000010436064F8E700001902FEFFE7FF3F8333
:10071000F0B505460068174987B0884228D11648C9
:100720008169471539438161806900263840059009
:10073000A320009003200190092069460296C0067C
:1007400000F0BCFA0D480E4C41C4A7608020266022
:1007500060600001E0602020666120610848083C7C
:1007600000F074F9002801D0FFF7CCFDEC6365625E
:1007700007B0F0BD00240140001002400800024014
:10078000B8030020F7B504460068002580684007DC
:100790003DD426464036307801280AD001273770EC
:1007A000E069012807D02046FFF730FD050002D0A0
:1007B0002EE00220FEBD606C16490840FF21013189
:1007C000084360640020A0643070E16B12488862C6
:1007D000E16B1248C862E16B1148086321681C2074
:1007E0000860206841681022114341602068C16898
:1007F0003943C1602168E06B4031029B019A00F0EF
:100800004FF92068816804221143816000E00225CD
:100810002846FEBDFEF1FFFF7D010008030200082F
:10082000E9010008F8B50446006801684908490074
:10083000016000F0EDFA00272546064620350EE05F
:1008400000F0E6FA811B7D20C000814207D9606B71
:10085000202108436063032068702F70F8BD206872
:100860000068C007ECD1012068702F700020F8BD2F
:10087000F8B5044674480168734A734E724F0832E3
:100880002068D3141C363037904201D1082210E082
:10089000B04201D180220CE0B84201D11A4608E0F2
:1008A000694A4432904202D10122D20301E001227E
:1008B000D20425461140203500292ED00168C943B5
:1008C00009072AD401680822914301605E49206823
:1008D0000831884201D1082010E0B04201D18020C7
:1008E0000CE0B84201D1184608E05749443188422B
:1008F00002D10120C00301E00120C0045249486038
:10090000606B012108436063042068700020287038
:10091000216B002901D0204688474B4802684A498C
:10092000206808310B15884201D1042110E0B04243
:1009300001D140210CE0B84201D1194608E04249FA
:100940004431884202D10121890301E00121890457
:100950000A422BD00168C943490727D40168890698
:1009600003D4026804218A430260374920680831B1
:10097000884201D1042010E0B04201D140200CE0B7
:10098000B84201D1184608E02F494431884202D1CB
:100990000120800301E0012080042B4948601120E0
:1009A0006870E16A002901D020468847264802681D
:1009B000254920680831884201D1022311E0B04264
:1009C00001D120230DE0B84202D101235B0208E0EF
:1009D0001D4B4433984202D101235B0301E0012304
:1009E0005B041A422ED00268D24392072AD40268CE
:1009F000920603D4026802239A4302602068884268
:100A000001D1022011E0B04201D120200DE0B84216
:100A100002D10120400208E00B494431884202D152
:100A20000120400301E00120400407494860606B59
:100A300060630120687000202870A16A002901D03D
:100A400020468847F8BD000000000240F0B50028AD
:100A500006D0014620314A780024002A02D002E064
:100A60000120F0BD0C7002224A7005682B680B4A09
:100A700086681340426807693243C6683E43324382
:100A80004669324386693243C66932431A432A6053
:100A90004463012048700020F0BD00000FC0FFFF3C
:100AA000F8B5044620300578012D1ED001250570CB
:100AB0000226467020680768AF4307602046FFF7AC
:100AC000FBFB206801683143016020680168042253
:100AD0001143016020680168082211430160206809
:100AE0000168294301600020F8BD0220F8BD000024
:100AF000F8B5054623480F46017E012601290BD093
:100B0000012101762868204C012807D02046FFF7F4
:100B100047FC002813D030E00220F8BD2046FFF744
:100B20003FFC002829D1FFF7EFFB2046FFF738FCF8
:100B30000646164801690422914301611DE0002028
:100B4000C04338606C6812E02046FFF7EFFB0E48A8
:100B5000FFF726FC06460D48026902218A4302611E
:100B6000002E01D03C6008E0012080022418A86813
:100B7000810268680818A042E6D802480021017680
:100B80003046F8BD8000002050C300000020024025
:100B90000348016980221143016100207047000071
:100BA00000200240F0B51FB407461A480024017E19
:100BB00015461E46012907D0012101761648FFF788
:100BC000EFFB002803D020E0022005B0F0BD012F8C
:100BD00002D0022F00D00427220128463146FFF719
:100BE000A9FA81B2019862001018FFF7B1FB0A4818
:100BF000FFF7D6FB09490A69520852000A6100282A
:100C000003D1641CE4B2BC42E6D3024900220A7656
:100C1000DBE700008000002050C3000000200240FD
:100C200005480169090605D5044941600449416048
:100C300000207047012070470020024023016745D3
:100C4000AB89EFCD01229203C31F10B55110FF3BBA
:100C5000FA3B0FD0904213D10120FFF74BFB0E4916
:100C60000888401F088000B202F08EFB0B490A2062
:100C7000087010BD02F066FA0420FFF73BFB10BDC0
:100C80008842FCD106480178491CC9B20170C829C4
:100C9000F5D9C821017010BD480000203B0000209C
:100CA0003D00002010B504494A69024202D0486163
:100CB000FFF7C8FF10BD000000040140F8B5002395
:100CC0008DE001249C40A44622407DD04C68022C3B
:100CD00001D0122C0CD1DC08A40027183C6A5D0757
:100CE000ED0E0F26AE40B4430E69AE4026433E6281
:100CF00005685E000324B4400F79A543BF07BF0F0A
:100D0000B7402F4307604D68012D05D0022D03D059
:100D1000112D01D0122D0ED18568CF68A543B740A3
:100D20002F43876047686546AF430D79ED06ED0FA9
:100D30009D403D434560C568A5438C68B4402C4345
:100D4000C4604C68E40049D5284CA56901263543A8
:100D5000A561A4699D0834400094254CAD002F196D
:100D6000BC689D072E0F0F25B540AC430925ED0645
:100D7000A84201D100250FE01E4DA84201D1012556
:100D80000AE01D4DA84201D1022505E01B4DA842F5
:100D900001D1032500E00525B5402543BD60184C71
:100DA00025684E689543F60300D5154325606568B0
:100DB0004E689543B60300D515436560A5684E6837
:100DC0009543F60202D500E008E01543A560E5680A
:100DD0004E689543B60200D51543E5605B1C0A6872
:100DE0001446DC4000D06CE7F8BD00000010024063
:100DF000000001400004004800080048000C0048C2
:100E000000040140002A01D081617047816270476F
:100E100001480068704700000000002070B5040021
:100E20000CD02068C168C943C90709D1C168C9434A
:100E3000890705D4C068C043400701D4012070BDB4
:100E4000607C002803D12074204600F03DF8022089
:100E5000607421681A480860206841686268C9089F
:100E6000C9001143416020688168A268090B090329
:100E7000114381601348E168814203D12168096907
:100E8000814218D0FFF7C4FF7D260546F60007E033
:100E9000FFF7BEFF401BB04202D90320607470BD53
:100EA0002068C0680028F3D120680169E268090B56
:100EB00009031143016101206074002070BD00002E
:100EC00055550000FF0F000070470000F8B50446BC
:100ED000007C012808D00126267402206074FFF7E8
:100EE00097FF054600270CE00220F8BDFFF790FFB2
:100EF000411B7D20C000814203D903206074277408
:100F0000F8BD2068C068C0438007EFD5216803485A
:100F10000860667427740020F8BD0000AAAA0000CB
:100F2000F8B50446007C012812D001262674022060
:100F300060741649E068884202D12168144808604C
:100F4000216814480860FFF763FF054600270CE09E
:100F50000220F8BDFFF75CFF411B7D20C0008142ED
:100F600003D9032060742774F8BD2068C168C943A1
:100F7000C90707D1C168C943890703D4C068C04302
:100F80004007E7D5667427740020F8BDFF0F000006
:100F9000AAAA0000CCCC000002480168491C0160EC
:100FA000704700000000002010B5064801681022BC
:100FB00011430160002000F007F800F017F800204E
:100FC00010BD00000020024010B5044600F02CF9CE
:100FD0007D21C900FFF784F800F058FB002221466C
:100FE000501E00F033F8002010BD000008B50C487A
:100FF00081690122114381618069104000220090C3
:101000001146501F00F022F800221146901E00F0F9
:101010001DF800221146501E00F018F808BD00000F
:1010200000100240C106C90E012088400149086035
:101030007047000080E100E0C106C90E0120884031
:10104000014908607047000000E100E010B501F0C0
:10105000E3F910BDF8B5054600682C4CC00340D537
:10106000E16920040143E161E169294E01400091F9
:101070003068A11508433060FFF7CAFE074604E058
:10108000FFF7C6FEC01B642821D83068C005F7D51D
:10109000206A03263602696830403140884220D0F9
:1010A000206A226AB043012109040A432262226AAB
:1010B0008A432262206280070ED5FFF7A9FE074609
:1010C00007E0FFF7A5FEC11B1248814201D90320AA
:1010D000F8BD206A8007F4D5206A6968B0430843E8
:1010E00020622878C00705D0206BA968800880009E
:1010F000084320632878800605D5206B102188439B
:10110000E968084320630020F8BD00000010024099
:101110000070004088130000F8B505463F480E46B1
:101120000068C007C00FB0420AD23C4801684908B5
:101130004900314301600068C007C00FB0425CD174
:101140002878374C800705D56068F0218843A96866
:10115000084360602878C0073FD06868012813D032
:101160002168022813D08907002946DA61688908B6
:10117000890001436160FFF74BFE6968074601295A
:101180000DD0022917D024E021688903ECE78901FA
:10119000EAE7FFF73DFEC11B2248814217D860688D
:1011A0000007800F0128F4D117E0FFF731FEC11BC3
:1011B0001C4881420BD860680007800F0228F4D1D8
:1011C0000BE0FFF725FEC11B1648814201D9032021
:1011D000F8BD60680007800FF3D110480168C907A7
:1011E000C90FB1420BD90168490849003143016078
:1011F0000068C007C00FB04201D00120F8BD2878B8
:10120000400706D56068072109028843E96808435A
:1012100060600020FFF7D8FE0020F8BD00200240EB
:10122000001002408813000010B500F021F80549B5
:101230004968054A0906090F515CC840034908601E
:1012400010BD0000001002402C38000804000020EF
:1012500010B5FFF7E9FF04494968044A4905490FF9
:10126000515CC84010BD0000001002402C3800083E
:1012700010B512A30FCB88B06C460FC413A30FCBCD
:101280000FC416494A680C20134603401448042B27
:101290000FD0082B0DD193021B0F6C46E45CC96A7A
:1012A00004AB0907090F595CD20304D5FEF718FFF8
:1012B000604308B010BD0B486043FAE70203040521
:1012C000060708090A0B0C0D0E0F1010010203048B
:1012D00005060708090A0B0C0D0E0F10001002403E
:1012E00000127A0000093D00F8B504460078DD4D93
:1012F000C0075CD068680007800F012807D06868C5
:101300000007800F022809D16868C00306D5286845
:1013100080034CD5606800287BD048E0286801260F
:101320003604B04328602868B700B8432860FFF748
:101330006FFD009005E0FFF76BFD0099401A6428EF
:1013400068D828688003F6D4606801280AD000288D
:1013500001D0052808D029682846B14329602968AA
:10136000B94307E0284603E0296828463943296045
:10137000016831430160606800280CD0FFF748FD28
:10138000064604E0FFF744FD801B6428D8D828688F
:101390008003F7D50BE0FFF73BFD064604E0FFF7BF
:1013A00037FD801B6428CBD828688003F7D42078C9
:1013B0000127800700283DDA68680007800F07D002
:1013C00068680007800F022809D16868C00306D446
:1013D0002868800715D5E06801281AD111E0E06877
:1013E0000028286817D038432860FFF711FD06460B
:1013F00004E0FFF70DFD801B0228A1D828688007B4
:10140000F7D52868F82188432169C9000843286076
:1014100010E025E1CCE0400840002860FFF7F8FC30
:10142000064604E0FFF7F4FC801B022888D82868F1
:101430008007F7D42078000721D5206A0028686A41
:101440000ED038436862FFF7E3FC064604E0FFF77E
:10145000DFFC801B022899D8686A8007F7D50EE068
:10146000400840006862FFF7D3FC064604E0FFF73F
:10147000CFFC801B022889D8686A8007F7D42078BF
:1014800004264007002866DAE969B0060143E961ED
:10149000E9690140744800910168821511430160B7
:1014A000FFF7B6FC009005E0FFF7B2FC0099401A88
:1014B00064287DD86C480068C005F5D5286A4008C6
:1014C00040002862286AB0432862FFF7A1FC009020
:1014D00006E0FFF79DFC0099411A6448814267D8F5
:1014E000286A8007F5D4A06801280BD0002801D015
:1014F000052809D0296A2846490849002962296A2D
:10150000B14307E0284603E0296A284631432962AF
:10151000016A39430162A06800280ED0FFF778FC09
:10152000009006E0FFF774FC0099411A4F48814291
:101530003ED8286A8007F5D50DE0FFF769FC0090DA
:1015400006E0FFF765FC0099411A484881422FD810
:10155000286A8007F5D42078C00635D5606901284F
:101560000CD0401D686B24D030436863686B400822
:1015700040006863FFF74CFC064622E0686B30438E
:101580006863686B38436863FFF742FC064604E013
:10159000FFF73EFC801B02285BD8686B8007F7D5FD
:1015A000686BF8218843A169C900084368630BE0B0
:1015B0004FE0B0436863F3E7FFF72AFC801B022883
:1015C00047D8686B8007F7D4606A002846D06968FE
:1015D0000907890F022943D0012636060228286808
:1015E00005D0B0432860FFF713FC044633E0B04356
:1015F0002860FFF70DFC074604E0FFF709FCC01B5D
:10160000022826D828688001F7D4E86A216B0009EF
:1016100000010843E862A16AE06A084369683D2264
:101620001204914308436860286830432860FFF73C
:10163000EFFB044604E0FFF7EBFB001B022808D891
:1016400028688001F7D509E0FFF7E2FB001B0228BC
:1016500001D90320F8BD28688001F5D40020F8BD29
:101660000120F8BD00100240007000408813000007
:10167000042204490428086902D090430861704795
:101680001043FBE700E000E070470000094910B597
:10169000401E884201D9012010BD074C6061032122
:1016A000081F00F0B9FE0020A06107202061002083
:1016B00010BD0000FFFFFF0000E000E010B5FFF7E5
:1016C000E3FF10BD70B502462032137E012B15D00A
:1016D000012313760224547630C94E682C430D68DA
:1016E000006835432C438D682C43CD6809692C4331
:1016F0000C43446453760020107670BD022070BD08
:1017000070B502462032137E012B1BD001231376C5
:1017100002245476046865687026B54365600468E1
:1017200065680E68354365600468A5688026B54322
:10173000A5600068846849680C4384605376002083
:10174000107670BD022070BD10B5044600680422FA
:1017500000F0B7FF2068416C0122D20311434164BD
:1017600020680168012211430160002010BD0000C3
:1017700070B504460068002200F0A3FF2068036AE9
:101780000C490D4A0B4207D1036A134204D1436C42
:101790000125ED03AB4343642068036A0B4206D185
:1017A000016A114203D10168490849000160002023
:1017B00070BD0000111100004404000070B5040069
:1017C00005D025462035687E002802D006E001209D
:1017D00070BD00202876204600F00AF802206876C6
:1017E000211D206800F028FF01206876002070BDD0
:1017F00000B5144A0168144887B0914216D1826935
:10180000C1140A438261806908400590402000901D
:1018100002200121029101900021049003910920EE
:101820006946C006FFF74AFA07B000BD074A914271
:10183000FAD1C26989150A43C261C069084005909E
:10184000F2E70000002C01400010024000200040A0
:10185000F8B5054604462035287E012817D0012713
:101860002F7602206876226890687726FF23B0439F
:101870001B02984390600868502837D00EDC20285F
:1018800057D006DC00284ED0102840D14EE0022070
:10189000F8BD302850D0402839D13CE060282DD008
:1018A000702817D001221203801A0ED090422ED138
:1018B000CB684A688968206800F00EFF206881685C
:1018C000012292031143816021E020688168C908E8
:1018D000C900F8E7CB684A688968206800F0FCFE18
:1018E00021688868B0433043886010E0CA6849685E
:1018F000206800F0E7FF5021206806E0CA684968C8
:10190000206800F0F0FF6021206800F0F0FE6F76A4
:1019100000202876F8BDCA684968206800F0D2FF28
:1019200040212068F1E700212068EEE710212068BF
:10193000EBE720212068E8E730212068E5E7000098
:10194000F0B500681349092700250224FF0685B079
:1019500088420FD101260094019469460E480296F0
:1019600003950494FFF7AAF960026946039551C1F3
:10197000049408E00949884209D11020694631C120
:1019800004200395049069463846FFF797F905B09F
:10199000F0BD0000002C0140000400480020004081
:1019A000F8B5064604462036307E0D4601280DD097
:1019B00001203076022070760427002A08D0042AFD
:1019C00016D0082A2AD00C2A4DD137E00220F8BDC3
:1019D000206800F095FE206881690822114381612A
:1019E00020688169B9438161206881692A6912E0B0
:1019F000206800F0C1FE206882690121C9020A4303
:101A0000826120688169012292029143816120688C
:101A100081692A6912021143816124E0206800F083
:101A2000E5FE2068C26908210A43C2612068C169D5
:101A3000B943C1612068C1692A6912E0206800F0D9
:101A400011FF2068C1690122D2021143C1612068DF
:101A5000C269012189028A43C2612068C1692A6979
:101A600012021143C1610120707600203076F8BD6A
:101A700070B5040005D025462035687E002802D0C8
:101A800006E0012070BD00202876204600F00AF80C
:101A900002206876211D206800F0CEFD01206876C6
:101AA000002070BD7047000010B504460068012298
:101AB00000F0FCFD0A482168814205D009488142B6
:101AC00002D00948814204D1486C0122D20310435C
:101AD000486420680168012211430160002010BDA4
:101AE000002C0140004401400048014030B504464C
:101AF0000068002200F0DAFD144A134821689310B0
:101B0000814205D01248814202D0124881420AD156
:101B1000086A104207D1086A184204D1486C0125AE
:101B2000ED03A84348642068016A114206D1016AA6
:101B3000194203D10168490849000160012020349D
:101B40006076002030BD0000002C01401111000023
:101B5000004401400048014010B504460068816817
:101B6000402291438160606E002801D0FEF75AFE4A
:101B7000012060346072002010BD704770B50268AB
:101B80000446D0690121C30720466030002B07D0EE
:101B90001368DB0504D51162E26E0A43E266417206
:101BA0002268D36902259E070423002E07DA96686F
:101BB000F60704D01562E26E1A43E26641722268AB
:101BC000D669760707D59668F60704D01362E26EE9
:101BD0002A43E26641722268D36908251B07002B5D
:101BE00007DA9368DB0704D01562E26E2A43E266E7
:101BF0004172E06E002802D02046FFF7BEFF206849
:101C0000C169890609D50068800606D5204600F01E
:101C10004BFF20688169294381612068C1690906F9
:101C200005D50068000602D5204601F009F82068B5
:101C3000C169490605D50068400602D5204600F076
:101C400020FF70BD70B5040005D025466035687A68
:101C5000002802D006E0012070BD00202872204636
:101C600000F026F8022068722068016849084900DF
:101C70000160204600F060FF0128EDD0606A002876
:101C800002D0204600F042FE206841680122D202C4
:101C900091434160206881680822914381602068F7
:101CA0000168012211430160204600F094FE70BDDE
:101CB000F0B506460068274987B0884248D12648D3
:101CC0008269012189030A43826180690840059085
:101CD0000C2000900220019001210320039002912A
:101CE000049109206946C006FEF7E8FF1B481C4D19
:101CF000002411C52C60AC60EC6080272C616F6003
:101D00006C611748083DFEF7A1FE002801D0FEF7E0
:101D1000F9FA75666E62124D1048383D1438286025
:101D20001020291D91C12C616C61AC612846EC61C9
:101D3000FEF78CFE002801D0FEF7E4FA356600229B
:101D400011461B206E62FFF781F91B20FFF774F923
:101D500007B0F0BD003801400010024030000240E2
:101D600008020020F8B5054604466035687A012867
:101D700002D0687A12282FD1002929D0002A27D032
:101D8000287A012828D00120287258206165025342
:101D90000026E666687A12281CD022206872636EDC
:101DA0000E489862636E0E48D862636E0D481863E1
:101DB000134627680A4639462431606EFEF770FEE6
:101DC000206881684022114381602E720020F8BD96
:101DD0000120F8BD3220E1E70220F8BD092A000801
:101DE0003F2A0008E729000870477047F8B5054604
:101DF00004466035687A012802D0687A222833D1F7
:101E000000292DD0002A2BD0287A01282CD001209F
:101E1000287220464030E164028242820026E66653
:101E2000687A22281ED012206872236E0F489862AA
:101E3000236E0F48D862236E0E4818632768134636
:101E40003A462832206EFEF72BFE216840200862B9
:101E5000206881688022114381602E720020F8BDC5
:101E60000120F8BD3220DFE70220F8BD492A000832
:101E7000792A0008E729000870477047F0B58148C3
:101E80000421814B827805E04418455C6478891C04
:101E90005C55C9B28A42F7D800210A464254491C0F
:101EA000C9B23229FAD3784878492030C27C837C81
:101EB0001202D21892B28A809446427D037D1202A9
:101EC000D21895B2CD80C27D837D1202D21894B211
:101ED0000C81427E037E1202D21893B24B81C27EE5
:101EE000867E1202921992B28A81467C077C360263
:101EF000F619B6B2CE81498B8E4207D0634F3107B7
:101F000004D17E8339780126314339705F496646B2
:101F10000F8ABC4508D037073F0F012F04D10E822E
:101F20000F78022637430F704E8AB54208D02E072D
:101F3000360F022E04D14D820D7804273D430D70DB
:101F40008D8AAC4208D025072D0F032D04D18C8239
:101F50000C7808252C430C70CC8AA34208D01C07AF
:101F6000240F042C04D1CB820B78102423430B7054
:101F70000B8B9A4208D013071B0F052B04D10A8341
:101F80000A7820231A430A700A783F2A04D0CB78B3
:101F9000012B18D1002A16D00122CA703F220A70E4
:101FA0004A8B13093A4A13800B8A1B0953804B8AC8
:101FB0001B0993808B8A1B09D380CB8A1B09138151
:101FC000098B09095181C17882782F4C0902511877
:101FD0002A3C218041790279090251186180807977
:101FE000002800D02071284B0125403398782D031C
:101FF000002801D0E08002E02846FEF77BF95879FE
:102000000102187940180004000C01D0208102E080
:102010002846FEF76FF9D87999790002081800046C
:10202000000C01D0608102E02846FEF763F9587A7F
:10203000197A000208180004000C01D0A08102E007
:102040002846FEF757F9D87A997A00020818000452
:10205000000C01D0E08102E02846FEF74BF9587BE6
:10206000197B000208180004000C01D0208202E055
:102070002846FEF73FF9E088022801D20220E080DE
:10208000F0BD0000DA040020DE0000200A0000207D
:102090000C05002010B5124801783F2903D100211A
:1020A000017000F0ADFE0F4CA0788007800F09D0C2
:1020B000012804D0022804D003280AD004E02D20EF
:1020C00000E0432001F0B4F9A078400603D50120D8
:1020D00002E06420F6E7002000F010FA10BD0000D6
:1020E0000A000020B40000203EB5264926480024FE
:1020F00012C0046044600125046185604461C461CC
:1021000085618562C56204214462C1600838FEF7BA
:1021100045FA002801D0FEF7F5F8012000030190F0
:1021200002200290009469461748FEF7ABF9002898
:1021300001D0FEF7E7F8694613480095FEF7A2F9CB
:10214000002801D0FEF7DEF80520009069460E4811
:10215000FEF798F9002801D0FEF7D4F80720009088
:1021600069460948FEF78EF9002801D0FEF7CAF843
:102170000548FEF73DF90449102284310248FEF774
:1021800001FB3EBD002401406C03002008B50E4851
:1021900041690122114341614069104000220090D1
:1021A00011460920FEF752FF0920FEF745FF0920DE
:1021B000FEF738FF002211460A20FEF747FF0A20EB
:1021C000FEF73AFF08BD00000010024070B523483A
:1021D00086B04269012189050A43426142690A4089
:1021E0000592426949110A43426142690A400592D7
:1021F000426949000A4342614069194D084005900F
:10220000002203212846FEF7FDFD002103200124C2
:10221000029103910090019469462846FEF74EFD15
:10222000600209260F4DF60600906946019502945A
:102230003046FEF743FD03204003009069460195B8
:1022400002943046FEF73AFD002211460720FEF7C1
:10225000FDFE0720FEF7F0FE06B070BD0010024044
:10226000001400480000111010B50848064901602C
:10227000002141600649C1608160FEF7CFFD002862
:1022800001D0FEF73FF810BD00300040A000002054
:10229000FF0F000010B51649164888B0002412C080
:1022A0000F210460C901846041600838FFF786FA95
:1022B000002801D0FEF726F80E48FFF7D9FB0028CA
:1022C00001D0FEF71FF8602000900F2080010190E0
:1022D00002940022694604940648FFF761FB002837
:1022E00001D0FEF70FF80348FFF72AFB08B010BD36
:1022F000002000406C04002070B53048304D94B090
:10230000002411C52C601920AC604001EC606860AD
:102310002B48083DFFF752FA002801D0FDF7F2FFE5
:10232000012636030EA926480E96FFF791FA0028DB
:1023300001D0FDF7E7FF2248FFF79AFB002801D004
:10234000FDF7E0FF129412A91D481394FFF7D8F986
:10235000002801D0FDF7D6FF7320039001200094E0
:10236000400301940590049602946946069414482B
:10237000FFF7A8F9002801D0FDF7C4FF60200790FF
:10238000FF209130089002200990082002460A9010
:102390000B940C9407A90D940948FFF701FB002842
:1023A00001D0FDF7AFFF0648FFF7CAFA28680168B9
:1023B00080221143016014B070BD0000002C014068
:1023C0003004002010B5134C114820604B2000024F
:1023D00060600020A060E0602061A0610C21E061ED
:1023E00061612062702161620121A0634903E163A0
:1023F000C901216460642046FFF724FC002801D055
:10240000FDF780FF2068016810221143016010BDB4
:1024100000380140600100208307FF22DB0E9A4054
:102420008907090E994000280BDA0007000F0838C9
:10243000830808489B001818C36993430B43C36182
:102440007047830804489B001B1818689043084392
:102450001860704700ED00E000E400E07D210D48C9
:10246000C90001810C4941819121C900818110215C
:10247000C1800A49C1814900018200210848054AFA
:10248000018008462A321154401CC0B27F28FAD37A
:1024900070470000B4000020B80B000014050000D5
:1024A0004800002013498A8A0846130A8A30C370FC
:1024B0008270CA8A130A437102710A8B130AC371AC
:1024C00082714A8C130A43740274CA8B130A4373D1
:1024D00002734A8B130A437202720A7F8272CA8C99
:1024E00002750A8D130AC3758275098C0A0AC273B4
:1024F00081737047B40000200088704710B5054B09
:10250000012805D0002201211846FEF77BFC10BDF2
:102510000122F8E70014004810B50D487D2201881B
:10252000D200914202D2491C01800AE000210180C0
:102530000848094B028C521C92B202849A4200D184
:102540000184FEF729FDFFF7B9F801F039F910BD54
:1025500008000020B4000020FFFF000070B596B016
:1025600001251A2005950090102004900690052062
:102570000024C004039502260B90099608950A943E
:102580000C946846FEF7B0FE002800D0FEE7072056
:102590000D900F9401210E9610940DA8FEF7BCFD2E
:1025A000002800D0FEE711A811951394FEF752FD04
:1025B000002800D0FEE7FEF737FE7D21C900FDF7B9
:1025C0008FFDFFF763F80420FFF752F80022114651
:1025D000501EFEF73BFD16B070BD000013480168A9
:1025E0000122114301604168114A114041600168B4
:1025F000104A114001600168012292049143016078
:1026000041683F22120491434160C16A09090901EE
:10261000C162016BFF22143291430163416B49088F
:1026200049004163002181607047000000100240B2
:102630000CB8FF08FFFFF6FE70B50268164B174D89
:10264000984201D0A84204D1144670264A68B44387
:102650002243134C134E984208D0A84206D0124D84
:10266000A84203D0A04201D0B04204D103252D02DC
:10267000AA43CD682A4302608A68C2620A688262FD
:10268000984203D0A04201D0B04201D10969016350
:102690000121416170BD0000002C01400004004098
:1026A00000440140004801400020004010B50123D3
:1026B000046A8B409C430462036A8A4013430362AA
:1026C00010BD10B50423046A8B409C430462036A66
:1026D0008A401343036210BD30B58468FF252D0284
:1026E0001B021343AC430B432343836030BD82681A
:1026F00070239A430A4307210A438260704700000F
:10270000F0B5026A520852000262056A43688269A3
:102710007024A24392080C6892001443022295434D
:102720008A68134E2A43114DA84204D0B04202D009
:10273000104FB84206D10827BA43CF681743042286
:1027400097433A46A84204D0B04202D0094DA8426D
:1027500006D103252D02AB434D691D438B692B43E5
:1027600043608461496841630262F0BD002C01400E
:10277000004401400048014070B5026A10239A43AA
:102780000262046A4368826973252D02AA430D68B8
:102790002D021543202294438A6812012243104CD3
:1027A000A04208D11446CA688026B44312012243CD
:1027B0004024A24305E00B4CA04202D00A4CA042A8
:1027C00008D10324A402A3434C69A4001C438B69D1
:1027D0009B0023434360856149688163026270BD49
:1027E000002C0140004401400048014070B5026ADD
:1027F000FF2301339A430262046A4368C269702569
:10280000AA4392080D689200154301225202944394
:102810008A6812022243104CA04207D1C414A2437A
:10282000CC68240222430615B24305E00B4CA042BB
:1028300002D00B4CA04208D103242403A3434C69CB
:1028400024011C438B691B0123434360C561496814
:10285000C163026270BD0000002C014000440140D1
:102860000048014030B5026A01231B039A4302620B
:10287000056A4268C36973242402A3430C682402D6
:102880001C4301235B039D438B681B032B430A4DB1
:10289000A84205D0094DA84202D0094DA84205D151
:1028A0000125AD03AA434D69AD012A434260C461CD
:1028B00049680164036230BD002C014000440140BE
:1028C0000048014030B5036A046A64086400046289
:1028D0008469F025AC43120122430A24A3430B432D
:1028E0008261036230BD30B5036A1024A3430362E2
:1028F0008469036A0F252D031203AC432243A024ED
:10290000A343090119438261016230BD10B5818C76
:10291000C90707D001684A6801235B049A43836AA8
:102920001A434A60818C890707D501684A680123E8
:102930001B049A43C36A1A434A60818C490707D52E
:1029400001684A6801239B049A43036B1A434A6057
:10295000818C090707D501684A680123DB039A4384
:10296000436B1A434A60818CC90607D50268916897
:1029700001231B039943836B19439160818C890662
:1029800007D501688A6801235B039A43C36B1A4326
:102990008A60818C490612D503685A6801210905AD
:1029A000046C8A4322435A60026C8A4207D102684F
:1029B000516803235B059943436C19435160818C33
:1029C000090607D501684A680123DB04806C9A4335
:1029D00002434A6010BD0021C1660122603042728C
:1029E00001720846704710B5406A00220146403126
:1029F0004A834A82012269210A54C16E102211437E
:102A0000C166FFF7BAF810BD10B501460968406A03
:102A1000096889060ED400225A210A5201688A6880
:102A200040239A438A60014660314A7A322A04D0B0
:102A300001224A72FFF7D8F910BD1222F9E710B54A
:102A4000406AFFF7D2F910BD10B501460968406A27
:102A5000096889060DD4002252210A5201688A6849
:102A600080239A438A600068016840221143016014
:102A700010BDFFF701FA10BD10B5406AFFF7FDF970
:102A800010BD10B501680A6840239A430A600146E8
:102A900060314A7A322A05D001224A72FFF7ECF9F6
:102AA000002010BD2222F8E770B5014640310346F0
:102AB00060338A8B5C7A222C04D05C7A322C01D071
:102AC000022070BD012584682D03AC4202D1046947
:102AD000002C0DD00468A48C1440426D551C456533
:102AE00014704A8B521E1204120C4A8309D01EE045
:102AF0000568446DAD8C15402580426D921C426581
:102B0000EFE701680A682024A2430A60597A322953
:102B10000FD001680A68E400A2430A6001688A686D
:102B2000520852008A6001215972FFF75DF90020B6
:102B300070BD1221F8E70000F8B504462369A268C9
:102B4000E6691A43636910213343002026681A435B
:102B500033680546364F3B401343336023685A6859
:102B600003263603B243E66832435A60236AA269F9
:102B700026681A43B3680B273F02BB431343B36075
:102B80002C4A126B9207920F06D0012A08D0022A13
:102B900008D0032A07D101E0002104E0022102E06D
:102BA000042100E008210122E369D203934220D1ED
:102BB00000290CD002290DD0042911D0082914D0E5
:102BC0000125010909010007400F08432DE0FEF728
:102BD0003FFB07E018486168FDF782FA80B2F0E732
:102BE000FEF746FB40006168F6E7012000046168DB
:102BF000F2E7002908D0022909D004290DD00829BC
:102C00000FD001252846F8BDFEF722FB07E00B4850
:102C10006168FDF765FA80B207E0FEF729FB61689D
:102C2000F7E710466168FDF75BFA2168C860E9E7DD
:102C3000F369FFFF001002400024F40000127A0044
:102C4000014660314A7A122A04D0497A322901D0E9
:102C500002207047014640314A8A002A12D00123DF
:102C600082681B039A4202D10269002A15D0C26C05
:102C7000531CC364006812780285488A401E48824B
:102C80000020704701680A6880239A430A60006840
:102C90000168402211430160F2E7C26C03681288A8
:102CA000D205D20D1A85C26C921CC264E5E7000001
:102CB00010B50B48FEF762FF09480068C169C943B7
:102CC000C9060BD410210162064800684068322111
:102CD000081A0549087005490120087010BD000058
:102CE0006001002008020020380000203900002088
:102CF00070B5254CA078002801D0401EA070234854
:102D00000178012930D10021017021480A460125AE
:102D10000421837805E0465C4D2E00D90025891CEE
:102D2000C9B28B42F7D8002104E0465CB218491CB6
:102D3000D2B2C9B28B42F8D8017841290CD140787F
:102D40004B2809D1002A07D1012D05D1FFF796F8AC
:102D5000FFF7A0F93220A0700E48FEF7FDFE3222E8
:102D60000B490C48FEF7FEFFA07819280AD2094843
:102D7000FEF768FFA078002804D100F0E3F90820EE
:102D8000FDF7B8FA70BD00000A00002039000020ED
:102D9000DA0400206001002070B5FFF783FB1649BC
:102DA000412008704B20487014480022C488134DFD
:102DB0006000001D88708C30C3B2CA7010462A357E
:102DC0000DE002464600623276183271D2182B1896
:102DD00060339B7873719A18401CD3B2C0B284429E
:102DE000EFD8FF200130C01AC87004488A78024921
:102DF000AC30FEF7FBFF70BDA8040020B40000203B
:102E0000F8B500F075F9FDF70BFF0F48012200211E
:102E10000E4D826022C0009169460838FDF768FEB9
:102E20000B4E00246100705A49190001001982B24A
:102E300000230120FDF7B6FE641CE4B2062CF1D39A
:102E4000FDF7A6FEF8BD000024050020003C0008A8
:102E50000C05002030B47446641E2578641CAB4217
:102E600000D21D46635D5B00E31830BC184702E0EA
:102E700008C8121F08C1002AFAD170477047002005
:102E800001E001C1121F002AFBD17047F8B51E48AE
:102E90008178032901D9002100E0491C81701B4C75
:102EA0001B4E618A3288FF272D371A4D914214D26A
:102EB0008078002811D11848007800280DD1238986
:102EC000208B283B984208DA501AB84205DD298841
:102ED00008B2491C298000F057FA618A3088814283
:102EE00008D9081AB84205DD2888401F288000B29A
:102EF00000F04AFA08480178002901D0491E017003
:102F000028886084F8BD00004C000020B400002038
:102F10004A000020480000203B00002010B50D486A
:102F200001780B00FFF796FF061304070A0D101334
:102F300000F044F910BD00F01BF910BD00F0A8F836
:102F400010BDFFF7A3FF10BD00F0E6F810BD002193
:102F5000017010BD3C000020F8B5494D4621288A7B
:102F6000044648436421FDF7BBF8E98A884201D84A
:102F7000A14205D900F0E6F801204002FDF7BAF9B8
:102F80002889298BFF2401340A3881420ADD3D4813
:102F900001880AB2491E0180104600F0F5F920466A
:102FA000FDF7A8F92889298B1E38814202DD2046C9
:102FB000FDF7A0F9344F00263878344C042843D16B
:102FC00029887D22688AD200891A884205DA402041
:102FD000FDF790F93878042836D169897D22688A0E
:102FE00052018918884217D2208A401C80B2208260
:102FF000297DC90702D0618A491C6182C8280ED97F
:10300000608A64280BD9A6826682268200F09AF82C
:103010002020FDF76FF902E0A68266822682698988
:103020001922688A5201891A88420DDAA08A401C46
:1030300080B2A082C82807D9A6826682268200F0C4
:1030400081F82020FDF756F9E88BE989884206D2FD
:103050000120E07000F076F81020FDF74BF9E078E1
:10306000012805D1E889E98BC830814201D9E67091
:10307000F8BD1020FDF73EF900F064F8F8BD00003F
:10308000B4000020480000203C0000204C0000203C
:1030900010B512490878002801D0401E0870104869
:1030A000428A4089824210D20E4C218808B2491CC3
:1030B000218000F069F920880B49884204D900F08A
:1030C00041F82020FDF716F910BD08780028FBD143
:1030D00006490878401C087010BD00004C00002014
:1030E000B400002048000020B60300003C0000208F
:1030F00010B500F085F905490020087004490880E2
:10310000044908808020FDF7F5F810BD3C00002040
:10311000480000204600002010B50748007800282D
:1031200009D000F06DF905490020087004490880B5
:103130008020FDF7DFF810BD3A0000203C000020A1
:103140004800002010B500F05BF906490020087027
:10315000054908807D200549000108808020FDF791
:10316000C9F810BD3C0000204800002046000020A7
:1031700010B5002000F050F90C480D490078087790
:10318000097988420BD2012809D90A490878401CDC
:10319000087000F01BF908493C20087010BDFFF7CB
:1031A000D1FF2020FDF7A6F810BD00003D00002053
:1031B000B40000203C0000204C00002010B50F4857
:1031C0000088002819D10E480E49808A084214D17F
:1031D000012000F021F900F0F9F800204B21C9008E
:1031E000401C80B28842FBD300F00AF906490878F7
:1031F000401C087005490020087010BD46000020E2
:10320000B40000203D0200003C0000203D000020F2
:103210000EB5FDF7C9FEFFF7A1F9FEF7D7FFFEF7E0
:10322000B5FFFEF761FFFFF71FF8FFF765F8FFF73F
:1032300031F8FFF7C7F81D491B480885FFF70EF95D
:10324000002634466D461A4867003818FFF754F9CF
:10325000E8530007000FA04201D1761CF6B2641CAF
:10326000E4B2062CEFD31348062E13D000210180C0
:10327000FF2117314180490081800F49C1805121D0
:10328000090101810D4941810D48FDF749FE00F01A
:10329000ABFAFCE700214A00AB5A491C1B09C9B232
:1032A00083520629F7D3EFE712170000B40000207D
:1032B000003C00080C0500209E030000830600006F
:1032C000A0000020F8B52C482C4E00882A493080F8
:1032D00000272B4C4D89002838D0854236D9E1880B
:1032E000814219D07D21E080090148432946FCF73D
:1032F000F7FE80B22081C82802D2C820208104E0D5
:10330000E121C900884200D9218121897D20000165
:10331000401A6081A181E081A089002801D0401E6F
:10332000A081E089002807D0A18900290BD1401E87
:103330000004000CE08103D16089E0812089A08134
:10334000A089002801D0358000E03780318860787E
:103350000B46034301220B48002B08D00378002BB7
:1033600004D16D1E8D4201DA02706770F8BD05212F
:1033700001706270F8BD0000B40000204A00002017
:103380004C0000203C00002010B50D498B89834281
:1033900001DA0C20085EFF219131884200DA0846EC
:1033A000084A1488A34200D2138013888B4200D2AB
:1033B0001180054942000B68DA620968C86310BDD4
:1033C000B4000020480000203004002010B5FF2089
:1033D0000949EB300880FFF7D7FF08210748FEF7BF
:1033E00063FB0020401CC0B26428FBD308210348C3
:1033F000FEF7AAF910BD00004800002030040020AC
:1034000010B508210348FEF7B3F908210148FEF77B
:103410006DFB10BD3004002004494A1400280868E0
:1034200001D0104300E09043086070470004014061
:1034300070B5154D04001CD000211448FEF734FB74
:10344000012202212846FDF7DDFC2046C021484329
:103450000A21FCF745FE0E4991229200884201D9CB
:10346000084602E0904200D21046084909684863C5
:1034700070BD002202212846FDF7C4FC002103484C
:10348000FEF734FB70BD0000001400486C040020FF
:103490006C070000F0B50120984987B0002408802F
:1034A000274620468100964A401C5358954AC0B290
:1034B00055588A185B19166A1569126BAD195B1994
:1034C0009B188F4A02285350ECD38E4800268269FD
:1034D0008168836B8918826AD21889188903090C5C
:1034E0000391C269C1688918C26AC06B10180818B4
:1034F0008003000C0190844A03998448914202D2CF
:103500000121017000E0067081480078052801D192
:10351000FFF702FE7A4D083D2878312802D2401C80
:10352000287000E02E7028787A4A400001991152E4
:10353000C83201991152643A03991152704A121F0C
:103540005188118003985080814203D9081A02E003
:103550006E8013E0401A3228FADA6888401C6880CE
:1035600080B20F280AD90120FEF7C8FF6420FFF7B8
:103570005FFF68887D2109018842E9D865490020FC
:10358000C83142008B5A401C1C19624BC0B26433D4
:103590009A5AD7193228F4D332212046FCF7A0FDDD
:1035A00084B25D48322104803846FCF799FD5B49BE
:1035B00080B208800590687832280FD1504F6E7025
:1035C000C8213868FCF78CFD55490880C821786807
:1035D000FCF786FD534908803E607E606878401C99
:1035E00068705148514D4788A74209D98088962272
:1035F000C11B381B5043FCF789FD9621081A28830C
:10360000A7420BD848488088A04207D9C11BE01BBD
:1036100096225043FCF77AFD96302883424FB888B3
:10362000A0420BD8F988A14208D9091A201AC82249
:103630005043FCF76BFDFF302D302883F888A04203
:103640000BD83989A14208D9091A201AC822504337
:10365000FCF75CFDFF30F530288333480789A7422B
:103660000CD84089A04209D9C11BE01BC822504395
:10367000FCF74CFDAF218900401828832A48408977
:10368000A04209D8C11B201AC8225043FCF73EFDB6
:10369000E121890040182883D22C01D22E8304E036
:1036A000288BC82801D9642004902C8B2046973899
:1036B000312801D858200490962C01D85520049028
:1036C0009B210598C90048437D21C900FCF708FDEE
:1036D00015490988401881B22046E9824843049977
:1036E00048431349FCF712FD68820E480088E883BE
:1036F0000B480088688307B0F0BD00001805002063
:1037000030000020F0030020260200003A000020D4
:103710003C00002040020020400000203E0000202D
:1037200044000020420000200C050020B4000020CE
:103730001027000010B5084901204880FFF70CFC55
:10374000FFF7C0FDFFF7EAFB04480188002901D01C
:10375000491E018010BD0000180500204600002011
:1037600010B508492820888007484178002904D0EE
:1037700000214170FFF710FB10BD01214170FFF7E0
:10378000B7FA10BD180500200A00002010B5034943
:103790006420C8800248FDF799FB10BD1805002081
:1037A000A0000020044903480881044900208882C1
:1037B00070470000B80B000018050020B40000207E
:1037C00010B5074C074900204300CA5A521EA242B6
:1037D00000D2CA52401CC0B20528F5D310BD00006B
:1037E000FEFF00001805002000200E4D0E4C06467E
:1037F0004100401CC0B26E520528F9D30A4F3F1D4C
:10380000267020784100695A002905D0401CC0B2BA
:1038100020700528F5D3F3E70006800D385880475F
:10382000EEE7000018050020640000200000000002
:103830000102030401020304060708095C380008BA
:10384000000000207C0000006E2E0008D838000820
:103850007C000020B40800007E2E0008000000005C
:1038600000127A0000000000640000000000000068
:103870000000000000000000000000000000000048
:103880000000000000000000000000000000000038
:103890000000000000000000000000000000000028
:1038A0000000000000000000000000000000000018
:1038B0000000000000000000000000000000000008
:1038C0000000000095340008353700086137000813
:0838D0008D370008A537000840
:04000005080000B13E
:00000001FF
