:020000040800F2
:10000000280A002001010008A1260008C9220008D2
:100010009D260008C9020008F13F0008000000000A
:100020000000000000000000000000000927000898
:100030006903000800000000DD2600086D270008A5
:100040001B0100081B0100081B0100081B01000820
:100050001B0100081B0100081B0100081B01000810
:100060001B0100081B0100086D030008CD020008F9
:10007000DD020008ED020008FD0200080D03000883
:100080001D0300082D0300081B0100081B010008C8
:100090001B0100081B0100081B0100088103000868
:1000A0001B0100081B0100081B0100081B010008C0
:1000B0001B0100081B0100081B0100081B010008B0
:1000C0001B0100081B0100081B0100081B010008A0
:1000D0001B0100086D390008AD390008ED39000832
:1000E0001B0100081B0100081B010008DFF80CD0F1
:1000F00000F02EF80048004785430008280A002039
:100100000648804706480047FEE7FEE7FEE7FEE7B1
:10011000FEE7FEE7FEE7FEE7FEE7FEE7252800082C
:10012000ED00000830B50B460146002020220124D6
:1001300009E021FA02F59D4205D303FA02F5491BB5
:1001400004FA02F52844151EA2F10102F1DC30BDCB
:10015000064C074D06E0E06840F0010394E8070014
:1001600098471034AC42F6D3FFF7C4FF184B000891
:10017000384B000870B5044600252068806800F000
:100180000100F0B12068806820F0010021688860DB
:1001900000F06AFF05460EE000F066FF401B0228F3
:1001A00009D9A06A40F01000A062E06A40F00100A6
:1001B000E062012070BD2068806800F00100002826
:1001C000EAD10020F6E770B505466C6AA06A00F037
:1001D0005000E0B9A06A40F40070A0622068806816
:1001E00000F46020B0F5602F0DD1E06858B9A06A26
:1001F00020F48070A062A06A00F4805018B9A06A50
:1002000040F00100A062204600F0F6F903E0206A09
:10021000016B2846884770BD70B505466C6AA06AB8
:1002200040F04000A062E06A40F00400E062204636
:1002300000F0E4F970BD70B50446656A284600F028
:10024000DCF970BD38B50446002500200090206818
:10025000806800F0010080BB2068806840F00100E9
:1002600021688860164800681649B0FBF1F00090DC
:1002700002E00098401E009000980028F9D100F09C
:10028000F3FE054613E000F0EFFE401B02280ED9F6
:10029000A06A40F01000A062E06A40F00100E06255
:1002A00000BF002084F8240000BF012038BD206872
:1002B000806800F001000028E5D00020F6E700008B
:1002C0000000002040420F0000BFFEE710B50248CA
:1002D00000F0C6FB10BD00008803002010B50248E6
:1002E00000F0BEFB10BD0000E005002010B5024884
:1002F00000F0B6FB10BD00009C05002010B50248C0
:1003000000F0AEFB10BD0000D004002010B5024884
:1003100000F0A6FB10BD00008C04002010B50248C0
:1003200000F09EFB10BD00001405002010B502482F
:1003300000F096FB10BD00005805002030B590F885
:1003400040500124AC40C56B6C6004686360446835
:10035000102C04D10468A2600468E16003E0046822
:10036000A1600468E26030BD7047000010B5102045
:1003700000F0CCFC01200149487010BD2500002090
:1003800010B5202000F0C2FC01200149087010BD0A
:1003900025000020F8B5044600260020009000BF8C
:1003A00094F82400012801D10220F8BD012084F82E
:1003B000240000BF2046FFF7DDFE0646002E62D176
:1003C000A06A20F4885040F00200A062022000F0F1
:1003D0002BFF30490968B1FBF0F04000009002E0CB
:1003E0000098401E009000980028F9D12046FFF7A1
:1003F00029FF2068806840F008002168886000F0CC
:1004000033FE054611E000F02FFE401B0A280CD9F0
:10041000A06A20F0020040F01000A06200BF00209F
:1004200084F8240000BF0120BFE72068806800F046
:1004300008000028E7D12068806840F004002168A7
:10044000886000F011FE054611E000F00DFE401B33
:100450000A280CD9A06A20F0020040F01000A06227
:1004600000BF002084F8240000BF01209DE7206821
:10047000806800F004000028E7D1A06A20F00200A4
:1004800040F00100A06200BF002084F8240000BFFB
:1004900030468AE70000002038B5024600230020DD
:1004A000009000BF92F82400012801D1022038BD3D
:1004B000012082F8240000BF4868072812D2106883
:1004C000406B0C79641E04EB84051F24AC40A043F0
:1004D0000D796D1E05EB85050C68AC402043146852
:1004E000606327E048680D2812D21068006B0C7911
:1004F000E41F04EB84051F24AC40A0430D79ED1FDD
:1005000005EB85050C68AC4020431468206311E0BE
:100510001068C06A0C790D3C04EB84051F24AC40C4
:10052000A0430D790D3D05EB85050C68AC402043DB
:100530001468E06208680A2812D31068C0680C7852
:100540000A3C04EB44050724AC40A0430D780A3D67
:1005500005EB45058C68AC4020431468E0600FE073
:10056000106800690C7804EB44050724AC40A043F4
:100570000D7805EB45058C68AC402043146820617C
:100580000868102802D00868112827D1174C106875
:10059000A0421ED11068806800F40000F0B9106815
:1005A000806840F400001468A0600868102815D125
:1005B0000F4800680F4CB0FBF4F000EB80004000E7
:1005C000009002E00098401E009000980028F9D1A9
:1005D00004E0906A40F020009062012300BF0020F8
:1005E00082F8240000BF184661E7000000240140A3
:1005F0000000002040420F00704770477047000025
:100600002DE9F0410446002700250026A84614B92C
:100610000120BDE8F081A06810B1606900B100BFA1
:10062000A06A30B90020E06284F82400204600F07F
:1006300089F82046FFF79EFD0746A06A00F01000EB
:10064000002873D1002F71D1A06A20F4885040F0A7
:100650000200A062E16960680843E16840EA410085
:100660000643A068B0F5807F02D0A068012802D1BF
:100670004FF4807000E0002005436069012811D12B
:10068000E06838B9A069401E4FF4006141EA40308B
:10069000054307E0A06A40F02000A062E06A40F055
:1006A0000100E0622068406820F469402843216826
:1006B000486020688068214908403043216888608C
:1006C000A068B0F5807F02D0A068012802D14FF465
:1006D000807000E00020B0F5807F03D1208A401EAA
:1006E0004FEA00582068C06A20F4700040EA080011
:1006F0002168C8622068806811490840B04208D16A
:100700000020E062A06A20F0020040F00100A06238
:1007100011E0A06A20F0020040F01000A062E06A40
:1007200040F00100E062012705E0FFE7A06A40F029
:100730001000A062012738466BE70000FDF7E1FFDB
:10074000FE0E1FFF10B586B004462049206888427F
:100750003AD100BF1E48806940F400701C4988618E
:100760000846806900F40070019000BF00BFF320CC
:1007700002900320039002A9164800F0D5FA032046
:100780000290039002A9144800F0CEFA13481449CD
:100790000860002048600021114881608021C1600C
:1007A0008900016189004161202181610021C161CD
:1007B00000F024FA18B1BE210AA003F01BFC00BF10
:1007C00007482062446200BF06B010BD002401400B
:1007D0000010024000080140000C014008000240E7
:1007E000880300202E2E2F5372632F6164632E63C3
:1007F000000000002DE9F04104460D461646002792
:1008000057492068884203D056492068884205D15C
:100810005348001D006800F4702000E0002000280C
:100820007ED100BF94F82400012802D10220BDE847
:10083000F081012084F8240000BF2046FFF702FD6C
:100840000746002F6DD1A06A40F60161884340F44D
:100850008070A06243492068884209D14048001D49
:10086000006800F4702008B9012002E0002000E0D8
:10087000012078B1A06A20F48010A062206840684E
:1008800000F4806000B3A06A20F4005040F480506F
:10089000A06219E0A06A40F48010A062304920688C
:1008A000884203D02F492068884205D12C48001D7A
:1008B000006800F4806000E0002028B1A06A20F405
:1008C000005040F48050A062A06A00F4805020B133
:1008D000E06A20F00600E06201E00020E06200BF74
:1008E000002084F8240000BF1F48216A88621F4846
:1008F000216AC8621E48216A08636FF002002168FD
:1009000008602068806840F48070216888602268F0
:1009100002F14C0133462A46206A00F0A7F901E0B3
:100920001AE014E02068806800F46020B0F5602FC1
:1009300006D12068806840F4A000216888600CE03F
:100940002068806840F480102168886005E000BF5E
:10095000002084F8240000E00127384667E7000003
:100960000024014000280140C701000837020008A8
:1009700019020008014600200A68126822F00E02DF
:100980000B681A600A68126822F001020B681A608C
:1009900091F8403001229A40CB6B5A60012281F8D5
:1009A000212000BF002281F8202000BF70470000F6
:1009B00070B50446002594F82100022803D00420D5
:1009C000A063012548E02068006820F00E0021683F
:1009D00008602068006820F00100216808601F4955
:1009E0002068884201D1012026E01C49143120688A
:1009F000884201D110201FE0184928312068884220
:100A000001D1801518E015493C312068884201D198
:100A1000801411E0114950312068884202D14FF40E
:100A2000803009E00D4964312068884202D14FF4DA
:100A3000801001E04FF080700849083948600120BB
:100A400084F8210000BF002084F8200000BF606B04
:100A500010B12046616B8847284670BD08000240EF
:100A600070B50446E06B05682068066894F840108D
:100A7000042088402840002846D006F004000028C2
:100A800042D02068006800F0200028B92068006883
:100A900020F004002168086057492068884201D18D
:100AA000042027E0544914312068884201D14020B5
:100AB00020E0514928312068884201D1001519E011
:100AC0004D493C312068884202D14FF4804011E00A
:100AD000494950312068884202D14FF4802009E012
:100AE000454964312068884202D14FF4800001E01A
:100AF0004FF08060404908394860E06A00287AD0A9
:100B00002046E16A884776E094F840100220884049
:100B10002840A0B306F0020088B32068006800F007
:100B2000200040B92068006820F00A0021680860B1
:100B3000012084F8210030492068884201D1022038
:100B400028E02D4914312068884201D1202021E07D
:100B5000294928312068884201D140151AE02649E8
:100B60003C312068884202D14FF4005012E0224903
:100B700050312068884203D14FF400300AE017E07A
:100B80001D4964312068884202D14FF4001001E011
:100B90004FF0007018490839486000BF002084F801
:100BA000200000BFA06A30B32046A16A884722E037
:100BB00094F84010082088402840E0B106F0080072
:100BC000C8B12068006820F00E002168086094F821
:100BD000401001208840E16B48600120A06384F848
:100BE000210000BF002084F8200000BF206B10B15E
:100BF0002046216B884770BD080002400146002254
:100C000009B901207047184B0868C01A1423B0FBBB
:100C1000F3F08000086414480838C863022081F8A3
:100C200021000868026843F6F0708243D1E90103AD
:100C30001843CB6818430B6918434B6918438B69F9
:100C40001843CB6918430243086802600020886299
:100C5000C862086348638863012081F8210000208E
:100C600081F8200000BFCDE7080002402DE9F041E7
:100C700004460D4616461F464FF0000800BF94F884
:100C80002000012802D10220BDE8F081012084F873
:100C9000200000BF94F8210001282CD1022084F804
:100CA00021000020A0632068006820F00100216876
:100CB00008603B46324629462046FFF73FFBE06A84
:100CC00030B12068006840F00E00216808600BE039
:100CD0002068006820F0040021680860206800682F
:100CE00040F00A00216808602068006840F00100B8
:100CF0002168086006E000BF002084F8200000BFE3
:100D00004FF002084046BFE77047000010B50446A8
:100D100004480068204020B1024804602046FFF7E4
:100D2000F3FF10BD140401402DE9F84703460024E9
:100D3000002000258446002700226EE14FF00108C4
:100D400008FA02F4D1F8008008EA0400A0427DD13C
:100D5000DFF8D0A2D1F80480A8EB0A09D0453AD038
:100D600014DCB8F1030F50D009DCB8F1000F31D01A
:100D7000B8F1010F1CD0B8F1020F49D120E0B8F151
:100D8000110F18D0B8F1120F42D11EE0B9F5881F2B
:100D900025D006DCB9F5803F20D0B9F5801F37D1CA
:100DA0001AE0B9F5001F18D0B9F5041F30D117E0CB
:100DB000D1F80CC02DE0D1F80C8008F1040C28E02B
:100DC000D1F80C8008F1080C23E0D1F80C8008F170
:100DD0000C0C1EE000BF00BF00BF00BF00BF00BF83
:100DE000D1F80880B8F1000F02D14FF0040C0BE0ED
:100DF000D1F80880B8F1010F03D14FF0080C1C6145
:100E000002E04FF0080C5C6103E04FF0000C00E0E2
:100E100000BF00BFFF2801D8984601E003F1040895
:100E20004646FF2802D84FEA820803E0A2F10808EC
:100E30004FEA88084746D6F800804FF00F0909FAB4
:100E400007F928EA09080CFA07F900E088E048EAFF
:100E50000908C6F80080D1F8048008F08058B8F17D
:100E6000805F7DD100BFDFF8C081D8F8188048F0DE
:100E70000108DFF8B491C9F81880C846D8F818807E
:100E800008F00108CDF8008000BF00BF4FEAB93874
:100E90004FEA920958F829504FEA82784FEA1879B8
:100EA0004FF00F0808FA09F825EA0805DFF87C81F9
:100EB000434502D14FF0000816E0DFF87481434546
:100EC00002D14FF001080FE0DFF86881434502D1FD
:100ED0004FF0020808E0DFF86081434502D14FF08F
:100EE000030801E04FF004084FEA82794FEA1979CC
:100EF00008FA09F848EA0505DFF840814FEA920947
:100F000048F82950D1F8048008F48038B8F5803FBB
:100F10000AD1DFF82C81D8F8008048EA0008DFF811
:100F20002091C9F8008009E0DFF81481D8F800802A
:100F300028EA0008DFF80891C9F80080D1F8048099
:100F400008F40038B8F5003F10D1DFF8F48008F15C
:100F50000408D8F8008048EA0008DFF8E49000E0D0
:100F60005AE009F10409C9F800800DE0DFF8D080EB
:100F700008F10408D8F8008028EA0008DFF8C090DB
:100F800009F10409C9F80080D1F8048008F4801838
:100F9000B8F5801F0ED1DFF8A88008F10808D8F84E
:100FA000008048EA0008DFF8989009F10809C9F8BC
:100FB00000800DE0DFF8888008F10808D8F800808C
:100FC00028EA0008DFF8789009F10809C9F80080DC
:100FD000D1F8048008F40018B8F5001F0ED1DFF82E
:100FE000608008F10C08D8F8008048EA0008DFF8B3
:100FF000509009F10C09C9F800800DE0DFF840803D
:1010000008F10C08D8F8008028EA0008DFF83090D2
:1010100009F10C09C9F80080521C102AFFF48EAEA9
:10102000BDE8F887000011100010024000080140E0
:10103000000C014000100140001401400800014074
:1010400000040140024693680B400BB1012000E010
:1010500000207047C2684A40C26070470AB101610F
:1010600001E00B040361704701480068704700000D
:101070009000002002480068401C01490860704749
:101080009000002010B50848006840F010000649A4
:101090000860032000F0B4F8002000F007F800F02A
:1010A00019F8002010BD00000020024070B5044671
:1010B000074800684FF47A71B0FBF1F5284600F05C
:1010C00054FD00222146501E00F05BF8002070BD48
:1010D0000000002008B500BF2148806940F00100F1
:1010E0001F4988610846806900F00100009000BF38
:1010F00000BF032000F084F8002211466FF00B00BF
:1011000000F03FF8002211466FF00A0000F039F8B5
:10111000002211466FF0090000F033F8002211465A
:10112000501F00F02EF800221146101F00F029F881
:1011300000221146901E00F024F800221146501E95
:1011400000F01FF800BF0748406820F0E060054944
:1011500048600846406840F00070486000BF08BD25
:10116000001002400000014000BF00F01F020121FA
:1011700091404209920002F1E022C2F8001100BF42
:1011800070472DE9F05F80460D461646002701F0B6
:1011900089FA074639462A46334601F00700C0F16E
:1011A000070ABAF1040F02D94FF0040A01E0C0F1B6
:1011B000070AD14600F1040ABAF1070F02D24FF034
:1011C000000A01E0A0F1030AD4464FF0010A0AFA2E
:1011D00009FAAAF1010A0AEA020A0AFA0CFA4FF01D
:1011E000010B0BFA0CFBABF1010B0BEA030B4AEA08
:1011F0000B042146404601F05DFABDE8F09F000077
:1012000000BF00F00702064B19684FF6FF031940B4
:10121000044B0B4343EA0221014B196000BF7047A6
:101220000CED00E00000FA052DE9F04385B006461C
:101230003DA30FCB01AC0FC43FA0006800904FF05E
:101240000008002500270024A146012E30D0022EE0
:1012500058D0102E61D139484468006800F0807081
:1012600000B301A8C4F38341475C04F4803070B13B
:1012700032484068C0F340401DF8008004F48030DC
:1012800040B12F48B0FBF8F000FB07F502E02D4815
:1012900007FB00F52948406800F48000B0F5800F96
:1012A00001D1A94603E068000321B0FBF1F935E064
:1012B0002248046A04F44070B0F5807F05D104F040
:1012C000020010B14FF400491BE004F44070B0F587
:1012D000007F07D11948406A00F0020010B149F6BA
:1012E00040490EE004F44070B0F5407F07D1134848
:1012F000006800F4003010B14FF2244901E04FF0D3
:1013000000090BE000F0A0F90C494968C1F38131F4
:10131000491C4900B0FBF1F900E000BF00BF48469E
:1013200005B0BDE8F08300000203040506070809C4
:101330000A0B0C0D0E0F10100102000000100240ED
:1013400000127A0000093D00F8B504460026002589
:10135000207800F0010000286BD000274348C069C6
:1013600000F0805070B900BF4048C06940F0805024
:101370003E49C8610846C06900F08050009000BF37
:1013800000BF01273A48006800F48070B0B93848BF
:10139000006840F4807036490860FFF765FE064635
:1013A00006E0FFF761FE801B642801D90320F8BD29
:1013B0002F48006800F480700028F2D02B48006AA3
:1013C00000F440752DB3A08800F44070A84220D0EE
:1013D0002648006A20F44075012026490860002054
:1013E00008602248056205F0010090B1FFF73CFE5D
:1013F000064608E0FFF738FE801B41F2883188423C
:1014000001D90320D3E71948006A00F00200002840
:10141000F0D01648006A20F4407061680843134910
:101420000862012F04D10846C06920F08050C861CD
:1014300000BF207800F00200022807D10B48406866
:1014400020F44040A168084308494860207800F033
:101450001000102807D10548406820F48000E1689A
:101460000843024948600020A1E700000010024044
:10147000007000404004424270B504460D4600260C
:101480006248006800F00700A8420ED25F4800687A
:1014900020F0070028435D4908600846006800F016
:1014A0000700A84201D0012070BD207800F00200A2
:1014B000022807D15648406820F0F000A168084390
:1014C00053494860207800F0010000285DD0606832
:1014D000012806D14E48006800F4003090B9012080
:1014E000E2E76068022806D14948006800F0007011
:1014F00040B90120D8E74648006800F0020008B96A
:101500000120D1E74248406820F0030061680843A9
:101510003F494860FFF7A8FD06466068012810D1E2
:1015200008E0FFF7A1FD801B41F28831884201D914
:101530000320B9E73648406800F00C000428F0D1D9
:1015400023E06068022810D108E0FFF78DFD801BC2
:1015500041F28831884201D90320A5E72C48406830
:1015600000F00C000828F0D10FE008E0FFF77CFD48
:10157000801B41F28831884201D9032094E7244836
:10158000406800F00C000028F0D12048006800F00E
:101590000700A8420ED91D48006820F00700284324
:1015A0001A4908600846006800F00700A84201D008
:1015B000012079E7207800F00400042807D11448BE
:1015C000406820F4E060E1680843114948602078F1
:1015D00000F00800082808D10D48406820F4605049
:1015E000216940EAC1000A49486000F03DF8084915
:1015F0004968C1F30311074A515CC84006490860B5
:101600000020FFF753FD00204EE7000000200240BD
:1016100000100240A84800080000002001480068AF
:10162000704700000000002000B5FFF7F7FF0449F5
:101630004968C1F30221034A515CC84000BD000063
:1016400000100240B848000800B5FFF7E7FF044962
:101650004968C1F3C221034A515CC84000BD000083
:1016600000100240B8480008F0B585B00FF2700CC9
:101670009CE8E01001A8A0E8E0101DA52D680095E9
:10168000002100240022002300201A4D696801F087
:101690000C05FDB1042D02D0082D1AD101E0164829
:1016A0001AE001ADC1F38346AB5D01F480355DB155
:1016B000104D6D68C5F340451DF805400E4DB5FB56
:1016C000F4F505FB03F202E00C4D03FB05F21046B6
:1016D00002E000BF084800BF00BF05B0F0BD000039
:1016E00002030405060708090A0B0C0D0E0F101063
:1016F000010200000010024000127A0000093D00C3
:10170000F8B504460025207800F00100002878D0C4
:10171000F848406800F00C0004280CD0F5484068F8
:1017200000F00C00082811D1F248406800F4803025
:10173000B0F5803F0AD1EF48006800F4003000287F
:101740005FD0606800285CD10120F8BD00BF6068F0
:10175000B0F5803F06D1E748006840F48030E549A5
:10176000086028E0606858B9E248006820F48030DA
:10177000E04908600846006820F4802008601AE00C
:101780006068B0F5A02F0BD1DA48006840F48020E3
:10179000D84908600846006840F4803008600AE0D4
:1017A000D448006820F48030D249086008460068B8
:1017B00020F48020086000BF606888B1FFF754FC07
:1017C000054606E0FFF750FC401B642801D90320C2
:1017D000BBE7C848006800F400300028F2D010E0F1
:1017E000FFF742FC054606E0FFF73EFC401B64287D
:1017F00001D90320A9E7BF48006800F400300028A1
:10180000F2D1207800F00200022857D1B948406890
:1018100000F00C0050B1B748406800F00C000828F8
:1018200018D1B448406800F4803098B9B1480068D5
:1018300000F0020020B12069012801D0012084E7D6
:10184000AC48006820F0F800616940EAC100A9498D
:10185000086033E02069E8B10120A7490860FFF77C
:1018600003FC054606E0FFF7FFFB401B022801D9F9
:1018700003206AE79F48006800F002000028F2D0C9
:101880009C48006820F0F800616940EAC10099496D
:10189000086013E0002098490860FFF7E5FB054663
:1018A00006E0FFF7E1FB401B022801D903204CE7CB
:1018B0009048006800F002000028F2D1207800F083
:1018C000080008282DD1A069B8B101208B49086013
:1018D000FFF7CAFB054606E0FFF7C6FB401B0228E0
:1018E00001D9032031E78348406A00F00200002854
:1018F000F2D0012000F0F4FE13E000207F490860E0
:10190000FFF7B2FB054606E0FFF7AEFB401B0228DF
:1019100001D9032019E77748406A00F00200002847
:10192000F2D1207800F00400042873D10026714819
:10193000C06900F0805070B900BF6E48C06940F0C7
:1019400080506C49C8610846C06900F08050009022
:1019500000BF00BF01266A48006800F48070B0B97B
:101960006748006840F4807065490860FFF77CFBB9
:10197000054606E0FFF778FB401B642801D90320E9
:10198000E3E65F48006800F480700028F2D000BFF2
:10199000E068012806D15748006A40F00100554927
:1019A000086227E0E06858B95248006A20F0010058
:1019B000504908620846006A20F00400086219E0F5
:1019C000E06805280BD14B48006A40F00400494903
:1019D00008620846006A40F0010008620AE04548D3
:1019E000006A20F00100434908620846006A20F0BE
:1019F0000400086200BFE068A0B1FFF735FB0546B0
:101A000009E0FFF731FB401B41F28831884202D9DF
:101A100003209AE622E03748006A00F0020000281E
:101A2000EFD012E0FFF720FB054608E0FFF71CFBB4
:101A3000401B41F28831884201D9032085E62D48B8
:101A4000006A00F002000028F0D1012E05D12948DB
:101A5000C06920F080502749C86100BFE069C8B361
:101A60002448406800F00C00082860D0E069022893
:101A700048D1002020490866FFF7F6FA054606E03F
:101A8000FFF7F2FA401B022801D903205DE619484E
:101A9000006800F000700028F2D1206AB0F5803FA5
:101AA00007D11448406820F40030A1680843114968
:101AB0004860D4E9080108430E49496821F47411CB
:101AC00008430C49486001200B490866FFF7CCFA2F
:101AD000054607E02DE0FFF7C7FA401B022801D9B1
:101AE000032032E60348006800F000700028F2D0BE
:101AF0001FE0000000100240000042428004424209
:101B00000070004000200C490866FFF7ADFA05465A
:101B100006E0FFF7A9FA401B022801D9032014E6CA
:101B20000648006800F000700028F2D101E00120B2
:101B30000BE6002009E600000000424200100240CF
:101B4000042808D14FF0E021096941F004014FF069
:101B5000E022116107E04FF0E021096921F0040162
:101B60004FF0E02211617047704770B5044625467A
:101B7000681EB0F1807F01D301200FE0681E4FF096
:101B8000E02148610F214FF0FF3000F093FD00206D
:101B90004FF0E021886107200861002070BD10B57A
:101BA000FFF7E2FF10BD70B50446002520684069CC
:101BB000C0F3C01594F8390021280ED16DB120680A
:101BC000406920F0800021684861206B10B1206BD3
:101BD000FEF7D0FE204601F01DFD20684069C0F3ED
:101BE000801594F83A0022280ED16DB12068406922
:101BF00020F0400021684861606B10B1606BFEF717
:101C0000B9FE204601F0E6FC002070BD70470000E0
:101C10002DE9F0470446206805682068C6682068FA
:101C200047694FF00008C14605F00F08B8F1000FF2
:101C30000AD105F0200038B106F0200020B120467E
:101C400001F0F2FCBDE8F087B8F1000F6DD007F0AD
:101C5000010018B906F49070002866D005F0010064
:101C600030B106F4807018B1E06B40F00100E06321
:101C700005F0040030B107F0010018B1E06B40F04E
:101C80000200E06305F0020030B107F0010018B176
:101C9000E06B40F00400E06305F0080030B107F0AD
:101CA000010018B1E06B40F00800E063E06B68B33E
:101CB00005F0200028B106F0200010B1204601F008
:101CC000B3FC20684069C0F38019E06B00F00800A5
:101CD00010B9B9F1000F22D0204601F07BFC20683A
:101CE000406900F04000B0B12068406920F0400039
:101CF00021684861606B50B11748616B4863606B45
:101D0000FEF756FE10B1606B416B88470CE0204631
:101D1000FFF77CFF08E02046FFF778FF04E020464D
:101D2000FFF774FF0020E0638CE705F0800030B11E
:101D300006F0800018B1204601F0AEFD82E705F004
:101D4000400030B106F0400018B1204601F052FCCE
:101D500078E700BF76E70000D934000810B50446E4
:101D60000CB9012010BDA06900B100E000BF94F8DB
:101D7000390028B9002084F83800204600F028F8FF
:101D8000242084F839002068C06820F400502168BD
:101D9000C860204601F09CFC2068006920F4904057
:101DA000216808612068406920F02A0021684861A4
:101DB0002068C06840F400502168C8600020E063DB
:101DC000202084F8390084F83A000020CAE7000097
:101DD00010B586B004469B492068884261D100BF97
:101DE0009948806940F48040974988610846806935
:101DF00000F48040019000BF00BF4815029002200F
:101E000003900320059002A99048FEF78DFF4FF440
:101E10008060029000200390049002A98B48FEF796
:101E200083FF8B488B490860002048600021894867
:101E300081608021C1600021016141618161C161D6
:101E4000FEF7DCFE18B19C2183A002F0D3F800BF9E
:101E500080486063446200BF7D481438824908604E
:101E6000102048600021804881608021C1600021ED
:101E7000016141618161C161FEF7C0FE18B1AC2111
:101E800075A002F0B7F800BF77482063446200BF36
:101E9000002211462520FFF774F92520FFF764F989
:101EA000CDE072492068884261D100BF6648C069B0
:101EB00040F400306449C8610846C06900F400304D
:101EC000019000BF00BF0420029002200390032075
:101ED000059002A95D48FEF727FF08200290002028
:101EE0000390049002A95948FEF71EFF5848143089
:101EF0005F4908600020486000215D4881608021C2
:101F0000C1600021016141618161C161FEF776FE1E
:101F100018B1DA2150A002F06DF800BF5448606398
:101F2000446200BF4A482830524908601020486087
:101F30000021504881608021C16000210161416120
:101F40008161C161FEF75AFE18B1EA2142A002F098
:101F500051F800BF47482063446200BF0022114689
:101F60002620FFF70EF92620FFF7FEF867E042492A
:101F70002068884263D100BF3348C06940F48020A4
:101F80003149C8610846C06900F48020019000BF53
:101F900000BF08150290022003900320059002A9BB
:101FA0003648FEF7C1FE4FF4006002900020039017
:101FB000049002A93148FEF7B7FE25482838304979
:101FC00008600020486000212D4881608021C160A8
:101FD0000021016141618161C161FEF70FFE20B105
:101FE0004FF48C711CA002F005F800BF2448606318
:101FF000446200BF16483C382249086010204860FF
:102000000021204881608021C1600021016141617F
:102010008161C161FEF7F2FD20B14FF494710EA011
:1020200001F0E8FF00BF17482063446200BF0022B0
:1020300011462720FFF7A5F82720FFF795F806B0EF
:1020400010BD0000003801400010024000080140AF
:10205000580002408C0400202E2E2F5372632F75DF
:10206000736172742E630000D004002000440040AD
:10207000140500205805002000480040000C0140D5
:102080009C050020E005002077B581B00446154688
:1020900094F83A00202850D1029800B115B90120D7
:1020A00004B070BD00BF94F83800012801D10220AF
:1020B000F6E7012084F8380000BF0298A062A585E9
:1020C0000020E063222084F83A001D48616B88629A
:1020D0001C48616BC8621C48616B08630020616B1F
:1020E000486302AE32682368191D2B46606BFEF709
:1020F000BDFD00BF002000902068006800902068AF
:102100004068009000BF00BF00BF002084F8380086
:1021100000BF2068C06840F480702168C8602068F3
:10212000406940F00100216848612068406940F042
:102130004000216848610020B2E70220B0E70000BB
:102140003D35000883350008ED34000870477047BE
:102150002DE9F84304460D4616461F464FF0000988
:1021600094F8390020285CD105B116B90120BDE8EA
:10217000F88300BF94F83800012801D10220F6E767
:10218000012084F8380000BF0020E063212084F89B
:102190003900FEF769FF8146A684E6842BE0E08CD7
:1021A000401EE084A068B0F5805F16D14B46002247
:1021B00080212046009701F0A3FB08B10320D6E759
:1021C000A846B8F80000C0F30800216848602069FC
:1021D00008B9AD1C0FE06D1C0DE04B4600228021BC
:1021E0002046009701F08CFB08B10320BFE715F8EB
:1021F000010B21684860E08C0028D0D14B460022BA
:1022000040212046009701F07BFB08B10320AEE798
:10221000202084F8390000BF002084F8380000BF77
:10222000A5E70220A3E70000F7B50446154694F899
:10223000390020283DD1019800B10DB90120FEBD23
:1022400000BF94F83800012801D10220F7E70120EF
:1022500084F8380000BF01982062A584E58400203E
:10226000E063212084F839001348216B8862134809
:10227000216BC8621248216B08630020216B486300
:1022800001AE23681A1D31682B46206BFEF7EEFC69
:102290006FF040002168086000BF002084F838001B
:1022A00000BF2068406940F080002168486100203C
:1022B000C5E70220C3E7000091350008C7350008D4
:1022C000ED3400087047704700BFFEE70EB5424886
:1022D000424908608115414881600121C1600021A7
:1022E00041614FF46021C16100203C4948600821F0
:1022F0003A480161FEF784F918B1452138A001F090
:1023000079FE002000900120019002906946334838
:10231000FEF7C2F818B14F2131A001F06BFE012089
:1023200000900220019069462C48FEF7B5F818B1DC
:1023300058212BA001F05EFE0420009003200190A4
:1023400069462648FEF7A8F818B1612124A001F0DB
:1023500051FE052000900420019069461F48FEF7B9
:102360009BF818B16A211EA001F044FE06200090DF
:102370000520019069461948FEF78EF818B17321BF
:1023800017A001F037FE0720009006200190694653
:102390001248FEF781F818B17C2111A001F02AFE45
:1023A000082000900720019069460C48FEF774F859
:1023B00018B185210AA001F01DFE09200090082017
:1023C000019069460548FEF767F818B18E2104A010
:1023D00001F010FE0EBD0000002401405803002053
:1023E0002E2E2F5372632F6164632E630000000052
:1023F00008B500BF2248406940F00100204948610B
:102400000846406900F00100009000BF00BF0022B4
:1024100011460B20FEF7B5FE0B20FEF7A5FE0022AD
:1024200011460C20FEF7ADFE0C20FEF79DFE0022AB
:1024300011460D20FEF7A5FE0D20FEF795FE0022A9
:1024400011460E20FEF79DFE0E20FEF78DFE0022A7
:1024500011460F20FEF795FE0F20FEF785FE0022A5
:1024600011461020FEF78DFE1020FEF77DFE0022A3
:1024700011461120FEF785FE1120FEF775FE08BDFE
:102480000010024000B585B000BF4648806940F0AA
:102490001000444988610846806900F010000090EF
:1024A00000BF00BF00BF0846806940F0040088619B
:1024B0000846806900F00400009000BF00BF00BF24
:1024C0000846806940F0080088610846806900F08D
:1024D0000800009000BF00BF00224FF400513248B6
:1024E000FEF7BCFD00224FF440412F48FEF7B6FD39
:1024F000012211032D48FEF7B1FD00224FF40041E7
:102500002A48FEF7ABFD01224FF4C8512848FEF7D8
:10251000A5FD4FF46040019001200290022004903C
:1025200001A92148FEF700FC4FF410400190012062
:1025300002900220049001A91C48FEF7F5FB46F228
:10254000C8000190002002900220039001A91748C2
:10255000FEF7EAFB4FF4C8500190012002900220E0
:10256000049001A91248FEF7DFFB302001901148CA
:1025700002900220039001A90C48FEF7D5FB00222F
:1025800011460A20FEF7FDFD0A20FEF7EDFD0022B0
:1025900011461720FEF7F5FD1720FEF7E5FD05B003
:1025A00000BD00000010024000100140000C01407E
:1025B000000801400000111010B50C480C490860DB
:1025C0004FF4E1304860002109488160C160016139
:1025D0000C21416100218161C161FFF7BFFB18B18E
:1025E0004B2104A001F006FD10BD000000380140A1
:1025F000CC0300202E2E2F5372632F7573617274DB
:102600002E63000010B50C480C4908604FF496404A
:102610004860002109488160C16001610C2141616D
:1026200000218161C161FFF799FB18B15E2104A00F
:1026300001F0E0FC10BD0000004400400C0400204C
:102640002E2E2F5372632F75736172742E630000E8
:1026500010B50C480C4908604FF4E1304860002187
:1026600009488160C16001610C21416100218161E3
:10267000C161FFF773FB18B1712104A001F0BAFC2E
:1026800010BD0000004800404C0400202E2E2F53A7
:1026900072632F75736172742E63000000BFFEE7D2
:1026A0007047000002480068C0F302207047000035
:1026B0000CED00E010B5002807DA0A07140E054AF1
:1026C00000F00F031B1FD45403E00A07130E024A45
:1026D000135410BD18ED00E000E400E07047000066
:1026E00008B508490968C9084FF47A72B1FBF2F1DC
:1026F0004143009100BF00BF00994A1E009200298B
:10270000F9D108BD00000020704700002DE9F0411C
:1027100004460D464120134908704B2048700A209A
:1027200088700020C870201208714D718C712812B9
:10273000C87126200872092048720027002605E08B
:102740000848805D3844C7B2701CC6B20A2EF7DB59
:1027500078420449C8700A220348FFF765FDBDE8C6
:10276000F08100000D0300200C04002010B5FEF7DE
:1027700081FCFFF714FA02F04DF810BD10B594B0CB
:102780000A200A9001200E9010200F900120109036
:1027900002201190002112914FF4201113910AA8E8
:1027A000FEF7AEFF18B1AF211AA001F023FC0F20F5
:1027B000059002200690002007904FF4806008905A
:1027C00000200990012105A8FEF756FE18B1BD2191
:1027D00010A001F00FFC022001904003039001A81B
:1027E000FEF7B2FD18B1C4210AA001F003FCFEF708
:1027F00015FF4FF47A71B0FBF1F42046FFF7B5F9FD
:102800000420FFF79DF900221146501EFEF7B9FC87
:1028100014B010BD2E2E2F5372632F6D61696E2E72
:10282000630000001148006840F001000F49086093
:10283000084640680E4908400C4948600846006850
:102840000C490840094908600846006820F48020C7
:1028500008600846406820F4FE0048604FF41F00FE
:102860008860C803044908607047000000100240F7
:102870000000FFF8FFFFF6FE08ED00E00B4880883F
:1028800040F6C22188420BDD0848808840F60241AC
:10289000884205DA0520064948701420C87004E013
:1028A0000020034948700420087070475A01002036
:1028B000290000200B48C08840F2C37188420BDD1C
:1028C0000848C08840F63F01884205DA06200649DC
:1028D00048701920C87004E00020034948700520A2
:1028E000087070475A0100202900002010B5F848F0
:1028F00000780D2873D2DFE800F007253E5873906A
:10290000D1F4F2F1F0EFEE000020F2490860F24954
:102910000860F2490860F2490860F2490860F2492B
:102920000860F24908605620F149C8700122D103BD
:10293000F048FEF793FB0120E5490870C820EE49F6
:10294000088002E243F23540EC4908803620488096
:10295000E9480088002804DDE7480088401EE64971
:102960000880E548008828B90220D9490870C820A5
:10297000E1490880E9E143F23320E04908804FF45F
:10298000FA704880DC480088002804DDDA480088B6
:10299000401ED9490880D848008828B90320CC496E
:1029A0000870C820D4490880CFE142F22540D349BD
:1029B00008800F204880D0480088002804DDCE48D9
:1029C0000088401ECC490880CB48008830B90420DC
:1029D000BF4908704FF4C870C7490880B5E1B3E13A
:1029E0005A20C349C87042F22320C449088040F6E7
:1029F000B8304880C0480088002804DDBE48008800
:102A0000401EBD490880BC48008828B90520B0494F
:102A10000870C820B849088097E142F22320B749DE
:102A2000088040F6B8304880B54890F8620000F061
:102A3000A00038BBB348C08AA6490860B04890F8E7
:102A40006700A6490860AE4890F86600096800EB88
:102A50000120A24908600846006800EBC00101EBB4
:102A600000104FF4FA71C1EB80003621B0FBF1F099
:102A70009A4908600620964908704FF47A709E497A
:102A800008800AE000209A4948701220087000204F
:102A90008F490870C8209849088056E1572094490A
:102AA000C87042F223209549088044F25060488063
:102AB00091480088002804DD8F480088401E8E4918
:102AC00008808D48008828B9072081490870C820EF
:102AD0008949088039E12BE1DFE0C4E0A0E03AE079
:102AE000FFE742F223208549088044F25060488085
:102AF000834890F8620000F0A00030BB8148C08A93
:102B0000754908607E4890F86700754908607C4800
:102B100090F86600096800EB0120714908600846DA
:102B2000006800EBC00101EB00104FF4FA71C1EB3B
:102B300080003621B0FBF1F0694908600820644943
:102B40000870C8206C49088004E00020684948707B
:102B500012200870F9E042F2232068490880002022
:102B600048805D4800685B490968401A6421484311
:102B70005B490968594A1268891AB0FBF1F05A4951
:102B80000860574800680968484356490860524839
:102B9000006800EBC00101EB001052490968B1EB7D
:102BA000800F1BD84C48006800EBC00101EB0010FF
:102BB0004C490968C1EB80004C4908600846006830
:102BC00040F6B831884202D908464849086047486B
:102BD0000068F0B90120454908601AE03E480068E5
:102BE00000EBC00101EB00103E490968A1EB800039
:102BF0003E4908600846006840F6B831884202D96C
:102C000008463A4908603948006840F400403749AE
:102C1000086009202E490870C8203749088094E0D0
:102C200042F223203549088000204880324800883D
:102C3000002804DD30480088401E2F4908802E48B7
:102C4000008878B90A2022490870274801682EA018
:102C500001F0D2F92548016830A001F0CDF9C82073
:102C60002549088071E043F23540244908801E4818
:102C70000088488020480088002804DD1E4800881D
:102C8000401E1D4908801C48008828B90B201049A7
:102C90000870C8201849088057E043F233201749CC
:102CA000088012480088488013480088002804DD06
:102CB00011480088401E104908800F48008828B934
:102CC0000C2003490870C8200B4908803DE0000033
:102CD0004C0000205000002054000020580000202C
:102CE0005C000020600000206400002068000020DC
:102CF00029000020001001404A0000202E00002082
:102D00005C0200205A0100200A0D20637572726572
:102D10006E745F666163743D202564000A0D206354
:102D2000757272656E745F626173653D2025640023
:102D30005F200749C87013204870002005490870BB
:102D4000C8200549088000E000BF00BF10BD00009A
:102D5000290000204C0000204A00002042F22541BA
:102D6000204A1180002151801F490978002904DD83
:102D70001D490978491E1C4A11701C4909784129CE
:102D800016D11A4949784B2912D11849497901F0CD
:102D9000080121B916490978491C154A117000200B
:102DA00004E00021114A1154411CC8B23228F8DB5A
:102DB0000D490978A1B90E49097804290BDDFF21D5
:102DC000094A117000210A4A11700A21094A5170FA
:102DD0002D21D17004E00021064A517009211170A3
:102DE000704700002E00002039000020280100203C
:102DF0003A0000202900002010B514200649087070
:102E0000002048706420C87000224FF4004103483D
:102E1000FEF724F910BD0000290000200010014039
:102E200010B580210A48FEF70DF901280AD140218A
:102E30000748FEF707F928B90420064948700F2013
:102E4000C87004E00020034948700320087010BDDA
:102E5000000C0140290000200B48008940F2C3719A
:102E600088420BDD0848008940F63F01884205DAB8
:102E70000720064948701E20C87004E0002003495E
:102E800048700620087070475A0100202900002071
:102E900000200F4991F86D0091F86C1001EB0021B2
:102EA00088B20C494989C83181420ADD09494989FA
:102EB000C839814205DA0C21074A51703721D17097
:102EC00004E00021044A51700B211170704700008A
:102ED0005C0200205A0100202900002024480078CC
:102EE00010B1012841D118E042F223202149088085
:102EF0000020488020480088401C1F490880084660
:102F00000088642808DD0020088001201849087026
:102F100000201A494870087028E042F22320154921
:102F2000088041F28830488013480088401C1249CC
:102F3000088008460088642816DD1048407858B19B
:102F400011200F4948705020C87042F223200949CF
:102F500008800020488004E00020094948701020C3
:102F6000087000200449088000E000BF00BF7047DF
:102F7000440000202E0000204200002025000020F8
:102F8000290000202948007810B101284AD118E012
:102F900042F22320264908800020488025480088E6
:102FA000401C2449088008460088642808DD002069
:102FB000088001201D49087000201F4948700870D2
:102FC00031E042F223201A49088041F288304880DB
:102FD00018480088401C1749088008460088642863
:102FE0001FDD15480078A0B155201449C87042F281
:102FF00023200F49088000204880114800780428C9
:1030000003D112200D49487008E014200B49487084
:1030100004E000200949487011200870002005498B
:10302000088000E000BF00BF70470000480000209B
:103030002E0000204600002025000020290000204E
:103040003400002010B52148007810B101283AD191
:103050000EE01F4890F8620000F0050038B9012228
:1030600051031C48FDF7FAFF0120184908702BE0B6
:1030700019480078002804DD17480078401E1649DA
:103080000870134890F8620000F00500052811D17F
:103090001148007800280DDD00224FF400510D4842
:1030A000FDF7DCFF0120094908700D200B4948702D
:1030B0003C20C8700848007820B9002007494870B3
:1030C0000C20087000E000BF00BF10BD3D000020D4
:1030D0005C020020001001403C000020290000207C
:1030E00010B53148007820B101280CD0022857D102
:1030F00019E000224FF400412C48FDF7AFFF0120FA
:10310000294908704DE02A480088401C2849088059
:10311000084600880A2805DD4FF47A7008800220EE
:10312000214908703DE042F223202249088041F203
:10313000883048801E480088002804DD1C4800882C
:10314000401E1B4908801C4890F86A00012818DDC1
:10315000194890F86A00082813DA154800880028F2
:103160000FDD0020124908800F4908701020134914
:1031700048704B20C87042F223200E49088000207E
:1031800048800B48008850B900200C4948700F2037
:10319000087042F22320074908800020488000E0A0
:1031A00000BF00BF10BD0000400000200010014023
:1031B0003E0000202E0000205C020020290000209C
:1031C00014200149487070472900002010B5364886
:1031D000007830B101280DD0022826D003285FD115
:1031E00039E00122D1033148FDF738FF01202E4993
:1031F000087056E02E480078401C2D4908700022C7
:103200004FF480512948FDF729FF294800780A2802
:103210000ADD012211032548FDF720FF0220224983
:1032200008700020224908703BE021480078401CCB
:103230001F490870084600780A280BDD4FF48041CA
:103240001A48FDF7FFFE28B1032017490870002037
:103250001749087025E04FF400511448FDF7F2FEBD
:1032600078B914480078012805D114201249487013
:103270006420C8700AE003200F4948700A20C87013
:1032800004E000200C494870022008700020064924
:10329000087000224FF400410448FDF7DFFE00E013
:1032A00000BF00BF10BD000037000020000C01402F
:1032B00036000020340000202900002010B5002234
:1032C0004FF400411F48FDF7C9FE1F480078401C1D
:1032D0001D49087008460078142831DD0020087068
:1032E0001A48C08A212826DA19480078012802D114
:1032F00002201849487016480078022802D103209D
:103300001449487012480078032802D1122011494C
:1033100048700F480078042802D102200D494870F7
:1033200000200C4908700520C8700122D10305480F
:10333000FDF794FE04E00120064908700020487063
:1033400010BD000000100140350000205A0100208F
:10335000340000202900002000200A4991F867006D
:1033600091F8661001EB002188B228B90F21064AB6
:1033700051704621D17004E00021034A51700E21A2
:10338000117070475C0200202900002000200F49C6
:1033900091F8650091F8641001EB002188B20C49A6
:1033A000898A143181420ADD0949898A14398142A6
:1033B00005DA0E21074A51704121D17004E0002145
:1033C000044A51700D211170704700005C0200200A
:1033D0005A010020290000200B48808940F24671E4
:1033E00088420BDD0848808940F6B211884205DA30
:1033F0000820064948702320C87004E000200349D3
:1034000048700720087070475A01002029000020EA
:1034100010B5012291031248FDF720FE11480078F3
:10342000401C10490870084600781E2817DD00204F
:1034300008700D48C08940F2AA2188420ADD0A4876
:10344000C089B0F56C7F05DC092008494870282048
:10345000C87004E00020054948700820087010BDBD
:1034600000100140380000205A01002029000020EF
:1034700010B542F22540144908804FF6FF7048808D
:1034800012480078002804DD10480078401E0F49DB
:1034900008700E480078A8B908210D48FDF7D2FD44
:1034A00028B90B200B4948703220C87004E0002076
:1034B000084948700A20087042F2254002490880F5
:1034C0000020488010BD00002E0000203B0000209E
:1034D000000C01402900002070B505466C6A0020F0
:1034E000E085E0842046FEF791FB70BD70B506468E
:1034F0000025746A20684069C0F3C01594F839004B
:10350000212805D125B10020E084204600F082F872
:1035100020684069C0F3801594F83A00222805D14C
:1035200025B10020E085204600F054F8E06B40F023
:103530001000E0632046FEF769FB70BD70B50546DC
:103540006C6A2868006800F02000B0B90020E085AF
:103550002068C06820F480702168C86020684069D5
:1035600020F00100216848612068406920F0400097
:1035700021684861202084F83A002046FEF7E6FDE5
:1035800070BD70B50446656A2846FEF7E0FD70BD63
:1035900070B505466C6A2868006800F0200070B9B4
:1035A0000020E0842068406920F0800021684861A4
:1035B0002068C06840F040002168C86002E02046F2
:1035C000FEF780FE70BD70B50446656A2846FEF7BA
:1035D0007AFE70BD0168C96821F490710268D160FB
:1035E0000168496921F0010102685161202180F8D8
:1035F0003A10704710B504462068C06820F04000BB
:103600002168C860202084F839002046FEF75AFE61
:10361000002010BD0168C96821F0C0010268D160B6
:10362000202180F83910704770B5044694F83A00AC
:1036300022284AD1A068B0F5805F13D1A56A20691D
:1036400040B920684068C0F308002880A06A801C48
:10365000A06219E020684068C0B22880A06A401CBF
:10366000A06211E0206938B920684068C1B2A26A3E
:10367000501CA062117007E02068406800F07F01D4
:10368000A26A501CA0621170E08D401E80B2E085DD
:10369000C8B92068C06820F020002168C860206890
:1036A000C06820F480702168C8602068406920F0FC
:1036B000010021684861202084F83A002046FEF786
:1036C00045FD002070BD0020FCE70220FAE7000065
:1036D0002DE9F041044600252068006920F440509F
:1036E000E1680843216808612169A06808436169AD
:1036F000084305432068C06841F20C6188432843B1
:103700002168C8602068406920F44070A1690843BE
:10371000216848615F49206888425CD1FDF794FFC9
:1037200000EBC00101EB001061688900B0FBF1F60D
:10373000FDF78AFF00EBC00101EB00106168890012
:10374000B0FBF1F06421B0FBF1F000EBC00101EB44
:103750000010A6EB8000322101EB00106421B0FBC9
:10376000F1F000F0F006FDF76FFF00EBC00101EB98
:10377000001061688900B0FBF1F06421B0FBF1F04A
:1037800006EB0016FDF760FF00EBC00101EB001037
:1037900061688900B0FBF1F7FDF756FF00EBC0014F
:1037A00001EB001061688900B0FBF1F06421B0FB0F
:1037B000F1F000EBC00101EB0010A7EB800032211B
:1037C00001EB00106421B0FBF1F000F00F00304479
:1037D000216888605BE0FDF727FF00EBC00101EB8B
:1037E000001061688900B0FBF1F6FDF71DFF00EBEA
:1037F000C00101EB001061688900B0FBF1F06421A9
:10380000B0FBF1F000EBC00101EB0010A6EB800073
:10381000322101EB00106421B0FBF1F000F0F00662
:10382000FDF702FF00EBC00101EB001061688900A9
:10383000B0FBF1F06421B0FBF1F006EB0016FDF7F0
:10384000F3FE00EBC00101EB001061688900B0FBE2
:10385000F1F7FDF7E9FE00EBC00101EB0010616834
:103860008900B0FBF1F06421B0FBF1F000EBC00186
:1038700001EB0010A7EB8000322101EB0010642166
:10388000B0FBF1F000F00F00304421688860BDE823
:10389000F081000000380140014691F839002128EC
:1038A0002CD18868B0F5805F0FD10A6A1088C0F308
:1038B00008000B685860086918B9086A801C08621B
:1038C00009E0086A401C086205E00B6A581C08629F
:1038D00018780B685860C88C401E80B2C88458B9EC
:1038E0000868C06820F080000B68D8600868C0686D
:1038F00040F040000B68D860002070470220FCE7D1
:103900002DE9F04104460D4617469846069E21E0F3
:10391000701CF8B12EB1FDF7A7FBA0EB0800B04278
:1039200018D92068C06820F4D0702168C860206869
:10393000406920F0010021684861202084F83900A6
:1039400084F83A0000BF002084F8380000BF03204C
:10395000BDE8F081206800682840A84201D101201C
:1039600000E00020B842D3D00020F1E708B50D48B0
:10397000FEF74EF90B4800680068C0F3001078B1FC
:1039800000BF0020009007480068006800900548CC
:1039900000684068009000BF00BF012002498870A5
:1039A00008BD0000CC0300202500002008B50D480C
:1039B000FEF72EF90B4800680068C0F3001078B1DC
:1039C00000BF00200090074800680068009005488C
:1039D00000684068009000BF00BF01200249C87025
:1039E00008BD00000C0400202500002010B502488E
:1039F000FEF70EF910BD00004C04002070B517480A
:103A0000807848B31648FEF7CEF800201349887036
:103A10000025002405E01348005D2844C5B2601C61
:103A2000C4B2062CF7DB0F48007841280CD10D48B2
:103A300040784B2808D13DB911200B4988700948BE
:103A400040790A49887002E00548FEF787F90622A6
:103A500004490348FEF718FB70BD00002500002054
:103A6000CC03002076000020220000202900002046
:103A700010B50D48007818B901200B49087002E014
:103A80000020094908700848007818B907490878E3
:103A900000F046F804480078002803DD0349C878A0
:103AA00000F006F810BD00007F0000202900002073
:103AB00070B50446002505E01648405D1649485596
:103AC000681CC5B20F2DF7DB642094FBF0F030309A
:103AD0001149C873642094FBF0F100FB1140C4B29B
:103AE0000A2094FBF0F030300B4908740A2094FB54
:103AF000F0F100FB1140C4B204F1300006494874F3
:103B0000FF208874C874087515220448FEF78CFBE2
:103B100070BD00008000002017030020CC030020AF
:103B200070B50546152D70D2DFE805F00B1F334741
:103B30005B708498ACC0D4F2F0EFEEEDECEBEAE908
:103B4000E800002405E0D848005DD8490855601C0D
:103B5000C4B21B2CF7DBFF20D449C876087748771E
:103B60001E22D348FEF760FB9BE1002405E0D1480C
:103B7000005DCE490855601CC4B21B2CF7DBFF204A
:103B8000CA49C876087748771E22C948FEF74CFB19
:103B900087E1002405E0C848005DC4490855601C61
:103BA000C4B21B2CF7DBFF20C049C87608774877E2
:103BB0001E22BF48FEF738FB73E1002405E0BF4832
:103BC000005DBA490855601CC4B21B2CF7DBFF200E
:103BD000B649C876087748771E22B548FEF724FB19
:103BE0005FE1002405E0B648005DB0490855601C5F
:103BF000C4B21B2CF7DBFF20AC49C87608774877A6
:103C00001E22AB48FEF710FB4BE149E1002405E022
:103C1000AC48005DA5490855601CC4B21B2CF7DBFD
:103C2000FF20A249C876087748771E22A048FEF7F1
:103C3000FBFA36E1002405E0A348005D9B490855E6
:103C4000601CC4B21B2CF7DBFF209849C8760877AC
:103C500048771E229648FEF7E7FA22E1002405E0A5
:103C60009A48005D91490855601CC4B21B2CF7DBD3
:103C7000FF208E49C876087748771E228C48FEF7C9
:103C8000D3FA0EE1002405E09148005D874908550C
:103C9000601CC4B21B2CF7DBFF208449C876087770
:103CA00048771E228248FEF7BFFAFAE0002405E0BA
:103CB0008848005D7D490855601CC4B21B2CF7DBA9
:103CC000FF207A49C876087748771E227848FEF7A1
:103CD000ABFAE6E0002405E07F48005D7349085533
:103CE000601CC4B21C2CF7DBFF20704908774877B2
:103CF00088771F226E48FEF797FAD2E0BCE0A7E073
:103D000092E07DE068E053E03EE029E014E0FFE768
:103D1000002405E07148005D64490855601CC4B288
:103D20001C2CF7DBFF2061490877487788771F2232
:103D30005F48FEF779FAB4E0002405E06848005DCA
:103D40005A490855601CC4B21C2CF7DBFF205749A8
:103D50000877487788771F225548FEF765FAA0E074
:103D6000002405E05F48005D50490855601CC4B25E
:103D70001C2CF7DBFF204D490877487788771F22F6
:103D80004B48FEF751FA8CE0002405E05648005DF0
:103D900046490855601CC4B21C2CF7DBFF20434980
:103DA0000877487788771F224148FEF73DFA78E088
:103DB000002405E04D48005D3C490855601CC4B234
:103DC0001C2CF7DBFF2039490877487788771F22BA
:103DD0003748FEF729FA64E0002405E04448005D16
:103DE00032490855601CC4B21C2CF7DBFF202F4958
:103DF0000877487788771F222D48FEF715FA50E09C
:103E0000002405E03B48005D28490855601CC4B209
:103E10001C2CF7DBFF2025490877487788771F227D
:103E20002348FEF701FA3CE0002405E03248005D3B
:103E30001E490855601CC4B21C2CF7DBFF201B492F
:103E40000877487788771F221948FEF7EDF928E0B0
:103E5000002405E02948005D14490855601CC4B2DF
:103E60001C2CF7DBFF2011490877487788771F2241
:103E70000F48FEF7D9F914E0002405E02048005D62
:103E80000A490855601CC4B21C2CF7DBFF20074907
:103E90000877487788771F220548FEF7C5F900E0C4
:103EA00000BF00BF70BD0000C04800083003002004
:103EB000CC030020DC480008F8480008144900083A
:103EC000304900084C490008684900088449000846
:103ED000A0490008BC490008D8490008F549000875
:103EE000124A00082F4A00084C4A0008694A000894
:103EF000864A0008A34A0008C04A0008DD4A0008B4
:103F0000FA4A000870B52B480078002804DD2948DB
:103F10000078401E274908702748C078002847D0FD
:103F20002648FDF740FE00202349C87000250024E4
:103F300005E02348005D2844C5B2601CC4B2204897
:103F40008078A042F5DC1E480078412824D11C4826
:103F500040784B2820D1FDB94FF400611948FDF796
:103F600079F8142013490870042407E01449601CF0
:103F7000085C095D144A5054A01CC4B210488078F3
:103F8000A042F3DC002405E00D48005D0F49085510
:103F9000601CC4B2322CF7DB064800780A2802DA2B
:103FA0000648FDF7DBFE322205490448FEF76CF8AF
:103FB00070BD00007E000020250000200C040020C1
:103FC000DB020020000801405C02002028010020E4
:103FD00010B50648008840B1044A51881088FEF7A1
:103FE00095FB002001490880488010BD2E0000206C
:103FF00000BFFEE700BFFEE70FB4054B10B503A9F5
:10400000044A029800F018F810BC5DF814FB000098
:10401000494200089400002002E008C8121F08C1AD
:10402000002AFAD170477047002001E001C1121F39
:10403000002AFBD1704700002DE9FF4F89B09B4655
:104040000446002506E025280BD05A460B999047D8
:10405000641C6D1C20780028F5D10DB02846BDE801
:10406000F08F0027B8460122474900E0074314F8C3
:10407000013F203B02FA03F00842F7D120782E28B6
:1040800019D114F8010F47F004072A280ED06FF059
:104090002F022078A0F1300109290CD808EB880103
:1040A00002EB410100EB0108641CF2E70A98641C72
:1040B00050F8048B0A9020780028CED0642808D0CD
:1040C000692806D075281ED05A460B9990476D1C5A
:1040D00058E00A994FF00A0901C90A91002802DA4A
:1040E00040422D2102E0390504D52B218DF8201006
:1040F000012103E0F90704D02021F7E78A4608AE42
:104100000DE00021FAE70A994FF00A0901C90A9166
:10411000F7E74946FCF706F8303106F8011D00289C
:10412000F7D1ADEB060000F12009780701D44FF07C
:104130000108C84502DDA8EB090000E00020804628
:10414000002706E008A85A46C05D0B9990476D1CF1
:104150007F1C5745F6DB04E030205A460B99904708
:104160006D1CB8F10001A8F10108F5DC05E016F8B6
:10417000010B5A460B9990476D1CB9F10001A9F14A
:104180000109F4DC641C65E70928010010B5284822
:104190008078A0B1264880782649087000202449FC
:1041A000887024480078001123490870214800785D
:1041B00000F00F00214908700020214908701E48B6
:1041C000007800282EDD1D480078002814DD1B48EB
:1041D0000078401E194908701948007830B900224B
:1041E0004FF480511748FCF739FF20E001221103FA
:1041F0001448FCF733FF1AE00F480078401E0E49C0
:1042000008700F48007818B901200D49087002E0C5
:1042100000200B4908700748007800F00F0007499C
:10422000087004E0012211030648FCF717FF10BDD7
:10423000220000206E0000206F000020700000208F
:10424000710000200008014013B50C464FF6FF73C3
:10425000012269460248FDF77BFF00981CBD000063
:104260004C04002010B51F48407880B11D484078AC
:104270001D49087000201B4948701B48007800F059
:104280000F00194908700846007818490870164848
:1042900000780F2806D100224FF400611448FCF783
:1042A000DDFE1DE01048007828B90122D102104837
:1042B000FCF7D4FE14E00D480078002804DD0B481C
:1042C0000078401E094908700848007840B906483F
:1042D0000078064908704FF400610548FCF7BAFE03
:1042E00010BD000022000020740000207500002096
:1042F0000008014010B51F48007880B11D480078C3
:104300001D49087000201B4908701B48007800F008
:104310000F001949087008460078184908701648B7
:1043200000780F2806D100224FF480711448FCF762
:1043300095FE1DE01048007828B9012211021048AE
:10434000FCF78CFE14E00D480078002804DD0B48D3
:104350000078401E094908700848007840B90648AE
:104360000078064908704FF480710548FCF772FE2A
:1043700010BD000022000020720000207300002009
:1043800000080140FCF77EFEFEF7F8F9FEF77AF828
:10439000FEF72EF8FDF79AFF1C48FBF7FBFF2022E3
:1043A0001B491A48FCF726FAFEF706F91948006877
:1043B000C06840F0100017490968C860FEF722F98C
:1043C00015480068C06840F0100013490968C860CB
:1043D000FEF73EF9112011498870002010494870FD
:1043E00008708870C8700FA0FFF706FE002407E071
:1043F000002501E0681CC5B2FF2DFBDB601CC4B2C8
:10440000FF2CF5DB01E000F021FAFCE75803002067
:10441000A8000020CC0300200C0400202200002073
:10442000290000200A0D204D61696E626F6172647F
:1044300020646961676E6F73652073797374656D4D
:104440002073746172746564212056302E303100FF
:1044500030B501236C4C238002201BE06B4B53F8DA
:1044600020306B4C54F820401C44694D00F1080387
:1044700055F823301C4400F1100355F823301C4438
:1044800000F1180355F823302344604C44F82030E1
:10449000431CD8B20828E1DB5D4B1B685C4C246AE6
:1044A00023445B4C246C2344594C246E2344C3F3B3
:1044B0008F03584C2382564B5B68554C646A2344E7
:1044C000534C646C2344524C646E2344C3F38F03F7
:1044D000504C6382504B1B78312B05DA4E4B1B78C6
:1044E0005B1C4D4C237002E000234B4C2370494B66
:1044F0001B8A4A4C484D2D7824F81530454B5B8A71
:10450000474C454D2D7824F815300021002200201D
:1045100009E0434B33F810301944404B33F8103066
:104520001A44431CD8B23228F3DB3223B1FBF3F335
:10453000384C63803223B2FBF3F32380394B1B7872
:10454000322B36D10023374C2370304B9B68C82464
:10455000B3FBF4F32F4CA3802C4BDB68C824B3FBD4
:10456000F4F32C4CE380294B1B69C824B3FBF4F310
:10457000284C2381254B5B69C824B3FBF4F3254CFD
:104580006381224B9B69C824B3FBF4F3214CA381C4
:104590001E4BDB69C824B3FBF4F31E4CE3810020FF
:1045A00005E00023194C44F82030431CD8B20828F9
:1045B000F7DB1C4B1B785B1C1A4C2370154B1B88BC
:1045C00040F2EB4463434FF47A7493FBF4F3143BEF
:1045D000104CA38223465B8803EB430404EB0313D4
:1045E00040F6532404EB4303642493FBF4F3094C97
:1045F000E38223469B8AE48A6343642493FBF4F3B7
:10460000044C238330BD0000980000203C020020B1
:10461000A80000205A0100206C000020D8010020D2
:10462000740100206D00002010B505204649488027
:1046300046488078002836D0002044490870C87069
:10464000487008468078012802D1487040490870B7
:104650003E488078022805D101203C49487002205C
:104660003B49087039488078032805D10120374933
:10467000487003203649087034488078042805D1F2
:104680000120324948700420314908702F48807851
:10469000052805D114202D49487005202C490870A3
:1046A00000202A49887029484078152849D2DFE837
:1046B00000F00B0C0F1215181B1E2124272A2D3079
:1046C0003336393C3F4245003CE0FEF7F7FD39E028
:1046D000FEF77CFD36E0FEF7A3FB33E0FEF7CEF8F5
:1046E00030E0FEF7E7F82DE0FEF7B6FB2AE0FEF734
:1046F00073FE27E0FEF78CFE24E0FEF72FFB21E09F
:10470000FEF7B6FE1EE0FEF7C3FB1BE0FEF79AFCC9
:1047100018E0FEF73BFE15E0FEF71EFE12E0FEF786
:10472000DFFC0FE0FEF7DAFB0CE0FEF72BFC09E004
:10473000FEF7DCF806E0FEF743FD03E0FEF75CFB66
:1047400000E000BF00BF10BD98000020290000203D
:104750003400002040F2F511044A91800449C87ADF
:10476000497A01EB002188B27047000098000020D0
:104770002801002010B532200B49C8800B48007872
:1047800018B901200949087002E0002007490870A3
:104790000648007808B9FFF71BFC04480078002899
:1047A00001DDFFF7AFFB10BD980000207C0000206A
:1047B00010B565200B4908810B48007818B9012015
:1047C0000949087002E0002007490870064800788F
:1047D00008B9FFF74DF904480078002801DDFFF71C
:1047E0000DF910BD980000207D00002010B561205B
:1047F00004494881FFF7CAFCFFF77CFDFFF732FD53
:1048000010BD000098000020672001498881704792
:1048100098000020002014E00B4931F81010002906
:104820000DDD094931F810104FF6FF72914206DA9A
:10483000054931F81010491E034A22F81010411C96
:10484000C8B20728E8DB704798000020002405E084
:104850000020124921F81400601CC4B2072CF7DBB9
:104860001AE000200E49087011E00C480C49097844
:1048700030F8110030B90B49094A127851F822007A
:10488000804708E006480078401C05490870044845
:1048900000780728E9DB00BFE3E70000980000206C
:1048A00020000020040000200000000000000000A4
:1048B00001020304060708090000000001020304C6
:1048C00070726F636573732E74312E7478743D65E6
:1048D00072726F722E74302E7478740070726F63FF
:1048E0006573732E74312E7478743D6572726F72B5
:1048F0002E74312E7478740070726F636573732E2A
:1049000074312E7478743D6572726F722E74322E0B
:104910007478740070726F636573732E74312E74C3
:1049200078743D6572726F722E74332E74787400D1
:1049300070726F636573732E74312E7478743D6575
:1049400072726F722E74342E7478740070726F638A
:104950006573732E74312E7478743D6572726F7244
:104960002E74352E7478740070726F636573732EB5
:1049700074312E7478743D6572726F722E74362E97
:104980007478740070726F636573732E74312E7453
:1049900078743D6572726F722E74372E747874005D
:1049A00070726F636573732E74312E7478743D6505
:1049B00072726F722E74382E7478740070726F6316
:1049C0006573732E74312E7478743D6572726F72D4
:1049D0002E74392E7478740070726F636573732E41
:1049E00074312E7478743D6572726F722E7431302A
:1049F0002E7478740070726F636573732E74312E29
:104A00007478743D6572726F722E7431312E7478C1
:104A1000740070726F636573732E74312E747874C2
:104A20003D6572726F722E7431322E74787400701C
:104A3000726F636573732E74312E7478743D657272
:104A4000726F722E7431332E7478740070726F63CB
:104A50006573732E74312E7478743D6572726F7243
:104A60002E7431342E7478740070726F63657373B2
:104A70002E74312E7478743D6572726F722E74319B
:104A8000352E7478740070726F636573732E743191
:104A90002E7478743D6572726F722E7431362E7476
:104AA00078740070726F636573732E74312E74782E
:104AB000743D6572726F722E7431372E7478740083
:104AC00070726F636573732E74312E7478743D65E4
:104AD00072726F722E7431382E7478740070726F27
:104AE000636573732E74312E7478743D6572726FC2
:104AF000722E7431392E7478740070726F6365731E
:104B0000732E74312E7478743D6572726F722E74C8
:104B100032302E7478740000384B000800000020FA
:104B20009800000018400008D04B000898000020B2
:104B3000900900002840000800A24A0451440008DF
:104B4000294600085547000875470008B147000886
:104B5000ED470008094800080000000000000000C0
:104B60000000000000000000000000000000000045
:104B700000FF00FFFF000000000000000000000038
:104B80000000C8000000000000000000000000005D
:104B90000000000000000000000000000000000015
:104BA0000000000000000000000000000000000005
:104BB000000000000000140070726F636573732EB4
:104BC0006A302E76616C3D0000000000000000009D
:04000005080000ED02
:00000001FF
